:100000000C9463000C948B000C948B000C94A5044E
:100010000C94A5040C94A5040C948B000C948B00F8
:100020000C948B000C948B000C948B000C948B0024
:100030000C948B000C948B000C948B000C948B0014
:100040000C9403040C948B000C9473040C944D04D6
:100050000C948B000C948B000C948B000C948B00F4
:100060000C948B000C948B000000000024002700EF
:100070002A0000000008000201000003040700003D
:1000800000000000000000000000250028002B00F8
:1000900000000000230026002900040404040404D6
:1000A0000404020202020202030303030303010227
:1000B00004081020408001020408102001020408F6
:1000C00010201F057A0711241FBECFEFD8E0DEBF36
:1000D000CDBF22E0A4EAB1E001C01D92A13BB2076E
:1000E000E1F711E0A0E0B1E0E4E0F4E102C0059046
:1000F0000D92A43AB107D9F710E0C2E6D0E004C0EF
:100100002197FE010E94E307C136D107C9F70E947B
:10011000CA050C94F5090C940000833081F028F492
:10012000813099F08230A1F008958730A9F08830AD
:10013000B9F08430D1F4809180008F7D03C080912C
:1001400080008F7780938000089584B58F7702C0F8
:1001500084B58F7D84BD08958091B0008F7703C0F2
:100160008091B0008F7D8093B00008951F93CF934E
:10017000DF93282F30E0F901EE58FF4F8491F90109
:10018000E255FF4FD491F901E656FF4FC491CC23BD
:10019000C9F0162F81110E948D00EC2FF0E0EE0FB8
:1001A000FF1FEA57FF4FA591B4918FB7F894111133
:1001B00005C09C91ED2FE095E92302C0EC91ED2B59
:1001C000EC938FBFDF91CF911F910895CF93DF9371
:1001D00090E0FC01E255FF4F2491FC01E656FF4FF1
:1001E0008491882361F190E0880F991FFC01E85900
:1001F000FF4FC591D491FC01EA57FF4FA591B491EF
:10020000611109C09FB7F894888120958223888363
:10021000EC912E230BC0623061F49FB7F8943881C3
:10022000822F809583238883EC912E2B2C939FBF64
:1002300006C08FB7F894E8812E2B28838FBFDF91FB
:10024000CF9108953FB7F8948091ED019091EE0120
:10025000A091EF01B091F00126B5A89B05C02F3FFA
:1002600019F00196A11DB11D3FBFBA2FA92F982FDC
:100270008827820F911DA11DB11DBC01CD0142E057
:10028000660F771F881F991F4A95D1F708958F929F
:100290009F92AF92BF92CF92DF92EF92FF926B014B
:1002A0007C010E9422014B015C01C114D104E104D4
:1002B000F104F1F00E942201DC01CB0188199909B7
:1002C000AA09BB09883E9340A105B10570F321E05E
:1002D000C21AD108E108F10888EE880E83E0981E62
:1002E000A11CB11CC114D104E104F10419F7DDCF44
:1002F000FF90EF90DF90CF90BF90AF909F908F9046
:100300000895CF92DF92EF92FF920F931F93CF93B6
:10031000DF936C017A018B01C0E0D0E0CE15DF05E0
:1003200089F0D8016D918D01D601ED91FC9101907C
:10033000F081E02DC6010995892B11F47E0102C0E0
:100340002196ECCFC701DF91CF911F910F91FF90C4
:10035000EF90DF90CF900895FC01918D828D9817DA
:1003600061F0828DDF01A80FB11D5D968C91928D99
:100370009F5F9F73928F90E008958FEF9FEF089596
:10038000FC01918D828D981731F0828DE80FF11D5F
:10039000858D90E008958FEF9FEF0895FC01918D7A
:1003A000228D892F90E0805C9F4F821B91098F7373
:1003B0009927089581EF91E00E94CE0121E0892BD9
:1003C00009F420E0822F0895FC01848DDF01A80F3D
:1003D000B11DA35ABF4F2C91848D90E001968F736D
:1003E0009927848FA689B7892C93A089B1898C918C
:1003F00080648C93938D848D981306C00288F38952
:10040000E02D80818F7D80830895EF92FF920F937E
:100410001F93CF93DF93EC0181E0888F9B8D8C8DB0
:10042000981305C0E889F989808185FD24C0F62EDE
:100430000B8D10E00F5F1F4F0F731127E02E8C8D77
:10044000E8120CC00FB607FCFACFE889F989808161
:1004500085FFF5CFCE010E94E401F1CF8B8DFE0127
:10046000E80FF11DE35AFF4FF0820B8FEA89FB89F9
:100470008081806207C0EE89FF896083E889F989FD
:1004800080818064808381E090E0DF91CF911F9133
:100490000F91FF90EF900895CF93DF93EC01888D3B
:1004A0008823C9F0EA89FB89808185FD05C0A88978
:1004B000B9898C9186FD0FC00FB607FCF5CF8081FE
:1004C00085FFF2CFA889B9898C9185FFEDCFCE0148
:1004D0000E94E401E7CFDF91CF91089580E090E0A2
:1004E000892B29F00E94DA0181110C9400000895F3
:1004F0002091E6013091E7012817390771F49091B6
:10050000E4018091E501981741F0E091E401F0E009
:10051000EC55FE4F808190E008958FEF9FEF089596
:1005200008951F93CF93DF93DC015C962D913C914E
:100530005D972115310539F481E090E013969C9385
:100540008E9312973DC05196ED91FC915297509623
:100550009C915097892F80951FB75E964C915E971E
:1005600041FB772770F941FD6095F894408177232E
:1005700011F0492B01C048234083E9012197F1F78D
:1005800048E0508160FF02C0592B01C058235083BE
:10059000E9012197F1F76695415099F7772321F00A
:1005A00090818923808303C08081982B90831FBF13
:1005B0005C968D919C915D970197F1F721E030E079
:1005C000C901DF91CF911F9108952091E6013091EB
:1005D000E7012817390771F48091E5012091E401C2
:1005E00090E0805C9F4F821B910960E470E00E9464
:1005F000BB07089580E090E008952091E6013091D6
:10060000E70128173907B9F49091E4018091E501D9
:10061000981789F0E091E401F0E0EC55FE4F8081FD
:100620002091E40130E02F5F3F4F2F733327209359
:10063000E40190E008958FEF9FEF0895E091E601C7
:10064000F091E701E817F90769F4A389B4899C914F
:100650008589809589238C931092E7011092E60199
:1006600081E0089580E008950F931F93CF93DF9367
:10067000EC0188819981009729F02A813B81261716
:10068000370788F48B016F5F7F4F0E941609009730
:1006900061F0998388831B830A832C813D81232BFE
:1006A00011F4FC01108281E001C080E0DF91CF9164
:1006B0001F910F9108956115710579F0FB0101906B
:1006C0000020E9F73197AF01461B570BDC01ED9194
:1006D000FC910280F381E02D099480E090E0089580
:1006E000CF93DF93BC0181EF91E00E945B03EC01AB
:1006F0006AE371E081EF91E00E945B038C0F9D1F24
:10070000DF91CF9108950E94E0090F931F93CF933B
:10071000DF93CDB7DEB728970FB6F894DEBF0FBED4
:10072000CDBF1A8219821C821B821E821D8260E04C
:1007300070E0CE0101960E94340329813A81811133
:100740000DC02115310519F0C9010E947E081A82D9
:1007500019821E821D821C821B8207C01E821D827E
:100760006CE371E0C9010E94EE098EE892E00E94FC
:10077000E502892BD1F38EE892E00E94E502892BF5
:1007800029F18EE892E00E94FD028F8318860D8188
:100790001E810F5F1F4FB801CE0101960E943403E6
:1007A000882369F029813A818D819E81BE01695F2C
:1007B0007F4F820F931F0E94EE091E830D8364E614
:1007C00070E080E090E00E944701D5CF4D815E81CE
:1007D00069817A8181EF91E00E9481016AE371E091
:1007E00081EF91E00E945B0389819A810E947E08DB
:1007F00028960FB6F894DEBF0FBECDBFDF91CF9124
:100800001F910F9108951F920F920FB60F9211240E
:100810002F933F938F939F93AF93BF938091E90161
:100820009091EA01A091EB01B091EC013091E801C7
:1008300023E0230F2D3720F40196A11DB11D05C023
:1008400026E8230F0296A11DB11D2093E801809395
:10085000E9019093EA01A093EB01B093EC01809140
:10086000ED019091EE01A091EF01B091F0010196A0
:10087000A11DB11D8093ED019093EE01A093EF01B6
:10088000B093F001BF91AF919F918F913F912F91C4
:100890000F900FBE0F901F9018951F920F920FB6DA
:1008A0000F9211242F933F934F935F936F937F93F6
:1008B0008F939F93AF93BF93EF93FF9381EF91E05B
:1008C0000E94E401FF91EF91BF91AF919F918F91B1
:1008D0007F916F915F914F913F912F910F900FBE3C
:1008E0000F901F9018951F920F920FB60F92112420
:1008F0002F938F939F93EF93FF93E0910102F091D9
:1009000002028081E0910702F091080282FD12C08C
:10091000908180910A028F5F8F7320910B02821762
:1009200051F0E0910A02F0E0EF50FE4F958F809376
:100930000A0201C08081FF91EF919F918F912F91C9
:100940000F900FBE0F901F9018951F920F920FB629
:100950000F9211242F933F934F935F936F937F9345
:100960008F939F93AF93BF93EF93FF93E091E60133
:10097000F091E701309709F451C0968DA685B785AF
:10098000858591FF04C09C91892329F447C09C91DF
:10099000892309F043C0A389B4899C9185898095F6
:1009A00089238C93868997890197F1F7608D718DE2
:1009B000A685B785558538E020E0CB010197F1F792
:1009C000822F90E095958795282F4C91452309F02B
:1009D0002068315091F7868D81FD20958091E50149
:1009E00090E001968F7399273091E401381749F010
:1009F000A091E501B0E0AC55BE4F2C938093E5018A
:100A000003C0868D8160868F828D938D0197F1F76B
:100A1000A389B4899C918589892B8C93FF91EF914F
:100A2000BF91AF919F918F917F916F915F914F9106
:100A30003F912F910F900FBE0F901F90189510921D
:100A4000F4011092F30188EE93E0A0E0B0E080930F
:100A5000F5019093F601A093F701B093F8012EE110
:100A600031E03093F2012093F10125EC30E0309336
:100A7000FE012093FD0124EC30E03093000220932E
:100A8000FF0120EC30E0309302022093010221ECC0
:100A900030E0309304022093030222EC30E03093E4
:100AA00006022093050226EC30E0309308022093E2
:100AB000070210920A0210920B0210920C0210927E
:100AC0000D021092910210929002809392029093E4
:100AD0009302A0939402B09395028EE291E09093DA
:100AE0008F0280938E021092A5021092A40210929F
:100AF000A7021092A6021092A9021092A8021092C8
:100B0000AB021092AA026091AC026E7F6D7F60937F
:100B1000AC026695617081E0682787E00E94B600AC
:100B200061E087E00E94E600E5EBF0E0E491E0930D
:100B30009E02E1EAF0E0E491F0E0EE0FFF1FEA57D9
:100B4000FF4F859194919093A00280939F0260E063
:100B500086E00E94E6008091AC0281FD04C061E065
:100B600086E00E94B60086E080939A02E4EBF0E013
:100B7000E491E0939B02E0EAF0E0E491F0E0EE0F14
:100B8000FF1FE057FF4F8591949190939D028093B2
:100B90009C020895789484B5826084BD84B5816098
:100BA00084BD85B5826085BD85B5816085BD809138
:100BB0006E00816080936E001092810080918100B0
:100BC00082608093810080918100816080938100A8
:100BD000809180008160809380008091B10084606A
:100BE0008093B1008091B00081608093B0008091CB
:100BF0007A00846080937A0080917A00826080938A
:100C00007A0080917A00816080937A0080917A00E6
:100C1000806880937A001092C1001092A90210920D
:100C2000A8021092A7021092A6021092A50210929A
:100C3000A4028DE991E09093AB028093AA02909177
:100C40009A02963108F057C02DEB30E03093A502A0
:100C50002093A4022BE931E03093A7022093A6024F
:100C60002CE231E03093A9022093A8022091680081
:100C7000983050F031E09E3008F430E081E001C05F
:100C8000880F3A95EAF701C084E0822B80936800D0
:100C9000983038F09E3040F0963148F020E030E057
:100CA00008C02DE630E005C02BE630E002C02CE69F
:100CB00030E03093A2022093A102983030F481E01A
:100CC00001C0880F9A95EAF70EC0292F30E09E30B8
:100CD00018F42850310902C02E50310981E001C0BA
:100CE000880F2A95EAF78093A3028091AA02909137
:100CF000AB020197F1F78091A8029091A902892B8C
:100D000021F18091E6019091E70122E08E3892076F
:100D1000E1F0009711F00E941E038091AC028E7FDB
:100D20008093AC021092E5011092E4018EE892E00B
:100D30009093E7018093E601E091A102F091A20275
:100D400090818091A302892B8083E0910102F09130
:100D5000020282E08083E091FD01F091FE011082A9
:100D6000E091FF01F09100028FEC80831092090264
:100D7000E0910502F091060286E08083E091030293
:100D8000F0910402808180618083E0910302F09100
:100D90000402808188608083E0910302F091040264
:100DA000808180688083E0910302F0910402808159
:100DB0008F7D80838DE391E00E94700361E08DE080
:100DC0000E94E60061E08DE00E94B60060E177E2FB
:100DD00080E090E00E94470160E08DE00E94B60054
:100DE0006AE571E08EE892E00E945B030E94850351
:100DF0008DE591E00E9470036CE671E08EE892E070
:100E00000E945B036AE071E08EE892E00E945B035F
:100E100068EE73E080E090E00E9447010E94850345
:100E200084E791E00E94700366E871E08EE892E04A
:100E30000E945B03E0918E02F0918F020190F0819D
:100E4000E02D64E38EE892E0099568EE73E080E0BF
:100E500090E00E9447010E9485038EE891E00E9485
:100E600070036DE971E08EE892E00E945B0360E040
:100E700071E08EE892E00E945B0368EE73E080E030
:100E800090E00E9447010E948503CFE7D0E00BEB82
:100E900010E037EAE32E30E0F32EFE018491F801F2
:100EA000C490F701D490DD20A9F081110E948D003B
:100EB0008D2D90E0880F991F80579F4FFC01A591C1
:100EC000B4918C91C82291E080E009F490E0692F00
:100ED000782F02C060E070E0F1E06F278DE00E94A3
:100EE000B60064EF71E080E090E00E9447010E944C
:100EF0006E02D3CF8EE291E090938F0280938E02A8
:100F00008EE892E00C941E032F923F924F925F92D4
:100F10006F927F928F929F92AF92BF92CF92DF9209
:100F2000EF92FF920F931F93CF93DF93CDB7DEB76E
:100F3000CA1BDB0B0FB6F894DEBF0FBECDBF099402
:100F40002A88398848885F846E847D848C849B8459
:100F5000AA84B984C884DF80EE80FD800C811B8167
:100F6000AA81B981CE0FD11D0FB6F894DEBF0FBE96
:100F7000CDBFED01089597FB072E16F4009407D01E
:100F800077FD09D00E94CF0707FC05D03EF490956D
:100F900081959F4F0895709561957F4F0895AA1B85
:100FA000BB1B51E107C0AA1FBB1FA617B70710F054
:100FB000A61BB70B881F991F5A95A9F78095909586
:100FC000BC01CD010895EE0FFF1F0590F491E02DB7
:100FD0000994CF93DF938230910510F482E090E082
:100FE000E091AF02F091B00220E030E0C0E0D0E04C
:100FF000309711F14081518148175907C0F04817C7
:10100000590761F482819381209719F09B838A8329
:101010002BC09093B0028093AF0226C021153105FA
:1010200019F04217530718F49A01BE01DF01EF01CE
:101030000280F381E02DDCCF2115310509F1281B59
:10104000390B2430310590F412968D919C911397B1
:101050006115710521F0FB019383828304C0909395
:10106000B0028093AF02FD01329644C0FD01E20F51
:10107000F31F81939193225031092D933C933AC0F1
:101080002091AD023091AE02232B41F42091160144
:10109000309117013093AE022093AD0220911401DC
:1010A000309115012115310541F42DB73EB740911E
:1010B000180150911901241B350BE091AD02F091FC
:1010C000AE02E217F307A0F42E1B3F0B28173907D7
:1010D00078F0AC014E5F5F4F2417350748F04E0F94
:1010E0005F1F5093AE024093AD028193919302C073
:1010F000E0E0F0E0CF01DF91CF9108950F931F93CF
:10110000CF93DF93009709F48CC0FC0132971382D0
:1011100012820091AF021091B0020115110581F405
:1011200020813181820F931F2091AD023091AE0258
:101130002817390779F5F093AE02E093AD0271C03C
:10114000D80140E050E0AE17BF0750F412962D9141
:101150003C911397AD012115310509F1D901F3CF68
:101160009D01DA013383228360817181860F971F8D
:101170008217930769F4EC0128813981260F371F04
:101180002E5F3F4F318320838A819B8193838283AB
:10119000452B29F4F093B002E093AF0242C01396BE
:1011A000FC93EE931297ED01499159919E01240F02
:1011B000351FE217F30771F480819181840F951F29
:1011C000029611969C938E938281938113969C93A1
:1011D0008E931297E0E0F0E0D80112968D919C91E9
:1011E0001397009719F0F8018C01F6CF8D919C911F
:1011F00098012E5F3F4F820F931F2091AD023091D7
:10120000AE022817390769F4309729F41092B0021A
:101210001092AF0202C0138212821093AE020093AA
:10122000AD02DF91CF911F910F910895A0E0B0E042
:10123000ECE1F9E00C948807EC01009721F4CB0174
:101240000E94E907B8C0FC01E60FF71F9C0122507D
:101250003109E217F30708F4ACC0D9010D911C91D4
:10126000119706171707B0F00530110508F49FC055
:10127000C80104978617970708F499C0025011090E
:10128000061B170B019311936D937C93CF010E9462
:101290007E088DC05B01A01AB10A4C01800E911E20
:1012A000A091AF02B091B00240E050E0E12CF12CEF
:1012B000109709F44AC0A815B905D1F56D907C9036
:1012C0001197630182E0C80ED11CCA14DB0480F1BF
:1012D000A3014A195B096A0182E0C80ED11C12966B
:1012E000BC9012971396AC91B5E0CB16D10440F0A8
:1012F000B282A38351834083D9016D937C930AC04A
:101300000E5F1F4FC301800F911FF90191838083EE
:10131000EB2DFA2FE114F10431F0D7011396FC9371
:10132000EE93129744C0F093B002E093AF023FC037
:101330008D919C9111974817590708F4AC017D01D4
:1013400012960D90BC91A02DB3CF8091AD029091DB
:10135000AE0288159905E1F446175707C8F4809145
:10136000140190911501009741F48DB79EB74091FB
:10137000180150911901841B950BE817F907C8F45F
:10138000F093AE02E093AD02F901718360830FC068
:10139000CB010E94E9077C01009759F0A801BE012A
:1013A0000E94E509CE010E947E08C70104C0CE015B
:1013B00002C080E090E0CDB7DEB7EEE00C94A40769
:1013C00081E090E0F8940C94F509FB01DC0102C087
:1013D00001900D9241505040D8F70895FB01DC0177
:1013E00001900D920020E1F7089510E0C2E6D0E0F0
:1013F00004C0FE010E94E3072196C336D107C9F756
:04140000F894FFCF8E
:10140400313233340000000000005A6F7769000065
:10141400000000000000B10280000000000005028E
:101424008101CE01AC01C0014C0200000000910218
:101434008101E502FD02780290020D0A00434F4E3D
:10144400464947204843303620424C5545544F4F77
:101454005448204D4F44554C450041540053455485
:10146400204E414D453A205A6F77690041542B4E26
:10147400414D450053455420424155524154453A4B
:1014840020393630300041542B42415544005345F5
:101494005420504153533A20313233340041542BB9
:0414A40050494E005D
:00000001FF
