:100000000C94E6000C940E010C940E010C94030465
:100010000C9403040C9403040C940E010C94CF2153
:100020000C940E010C940E010C940E010C94160508
:100030000C940E010C940E010C940E010C940E0104
:100040000C9485210C940E010C94AF0F0C94890F25
:100050000C940E010C940E010C940E010C940E01E4
:100060000C940E010C940E01300633063606390648
:100070003C063F064206450648064B064E0651061C
:10008000540657065A065D066006630666068E0627
:100090009106940697069A069D06A006A306A60654
:1000A000A906AC06AF06B2067E089D08C6083A0946
:1000B000CB093B0A4D0A6A0AF80A490B0D0C880D58
:1000C000310E922695269826A126A426AD26CB266B
:1000D000FD26332742274F27642781278A27992720
:1000E000A627A927B227B527BE27DC2756177917D9
:1000F0009E17CC17E317FA171D1849187818A71878
:10010000D6180019251953197E199519D619ED1904
:10011000041A05A84CCDB2D44EB93836A9020C50F9
:10012000B9918688083CA6AAAA2ABE000000803F92
:1001300025250045200026260025250044200026F0
:1001400026002525004E20002626002525004220D9
:10015000002626002525004920002626002525000A
:100160004100262600252500460026260002000024
:100170000000250028002B000000000023002600BE
:10018000290004040404040404040202020202021A
:10019000030303030303010204081020408001024B
:1001A00004081020010204081020000000002400B0
:1001B00027002A00000000080002010000030407D5
:1001C0000000000000000000A028A02311241FBE92
:1001D000CFEFD8E0DEBFCDBF13E0A0E0B1E0E4EEAA
:1001E000FEE502C005900D92A43CB107D9F728E0C6
:1001F000A4ECB3E001C01D92AD37B207E1F710E007
:10020000C5EED0E004C02197FE010E94342FC43E09
:10021000D107C9F70E94AA230C94652F0C94000003
:1002200020910704309108042817390771F4909140
:10023000050480910604981741F0E0910504F0E070
:10024000EB53FC4F808190E008958FEF9FEF08956E
:1002500008951F93CF93DF93DC015C962D913C9121
:100260005D972115310539F481E090E013969C9358
:100270008E9312973DC05196ED91FC9152975096F6
:100280009C915097892F80951FB75E964C915E97F1
:1002900041FB772770F941FD6095F8944081772301
:1002A00011F0492B01C048234083E9012197F1F760
:1002B00048E0508160FF02C0592B01C05823508391
:1002C000E9012197F1F76695415099F7772321F0DD
:1002D00090818923808303C08081982B90831FBFE6
:1002E0005C968D919C915D970197F1F721E030E04C
:1002F000C901DF91CF911F9108952091070430919A
:1003000008042817390771F4809106042091050428
:1003100090E0805C9F4F821B910960E470E00E9436
:10032000202F089580E090E00895209107043091F7
:10033000080428173907B9F4909105048091060440
:10034000981789F0E0910504F0E0EB53FC4F8081B1
:100350002091050430E02F5F3F4F2F733327209308
:10036000050490E008958FEF9FEF08956EE170E02F
:1003700080E090E00E943F2082E691E00E940F140E
:1003800080E691E00E940F148DE591E00C9430140A
:100390000E9498158AE591E00E940F1487E591E08C
:1003A0000E940F1464E171E085E498E00E945822F5
:1003B00084E591E00C943014CF93DF93CDB7DEB792
:1003C0002B970FB6F894DEBF0FBECDBF0E949815D5
:1003D00085E0E9E0F1E0DE01119601900D928A9549
:1003E000E1F7FE01369686E0DF011D928A95E9F776
:1003F00086E391E00E940F1483E391E00E940F14C2
:10040000BE016F5F7F4F85E498E00E94582280E331
:1004100091E00E9430142B960FB6F894DEBF0FBE09
:10042000CDBFDF91CF9108958F929F92AF92BF92EF
:10043000CF92DF92EF92FF920E9498150E94E113F3
:100440006B017C0181E591E00E940F148EE491E044
:100450000E940F14A7019601C701B6010E94732ED6
:10046000882319F065E373E01AC046015701E89448
:10047000B7F82FEF3FEF4FE75FE7C501B4010E94E8
:10048000732E811111C02FEF3FEF4FE75FE7C501DA
:10049000B4010E949A2C18163CF469E373E085E4D9
:1004A00098E00E9458227DC02FEF3FEF4FE75FE4B6
:1004B000C701B6010E94F92D18161CF46DE373E014
:1004C000EECF2FEF3FEF4FE75FECC701B6010E9481
:1004D0009A2C87FDF3CF20E030E0A901C701B601D7
:1004E0000E949A2C87FF09C06DE285E498E00E9483
:1004F0005122F7FAF094F7F8F0942AE037ED43EA46
:100500005BE3C701B6010E942E2C4B015C010E94E7
:10051000182D6B017C010E94472D9B01AC01C50188
:10052000B4010E942D2C4B015C012AE0B701A60109
:1005300085E498E00E9480226EE285E498E00E94C3
:10054000512220E030E040E251E4C501B4010E94B4
:10055000FE2D4B015C010E94182D6B01E12CF12C4A
:100560002AE0B701A60185E498E00E948022C70135
:10057000B6010E94472D9B01AC01C501B4010E9448
:100580002D2C20E030E040E251E40E94FE2D0E943C
:10059000182DAB0160E070E02AE085E498E00E944D
:1005A00080228BE491E0FF90EF90DF90CF90BF909E
:1005B000AF909F908F900C943014CF93DF930E9454
:1005C00098158091EF050E9428208091EF050E94E8
:1005D0002820EC0164E070E080E090E00E943F2081
:1005E0008091EF050E942820C80FD91F64E070E0B9
:1005F00080E090E00E943F2088E491E00E940F1488
:1006000085E491E00E940F14BE01D7FF02C06F5F26
:100610007F4F7595679585E498E00E94C41582E444
:1006200091E0DF91CF910C9430140F931F93CF93EF
:10063000DF9300D000D0CDB7DEB70E94981560E000
:100640008091D1050E946F1F83E090E00197F1F740
:1006500061E08091D1050E946F1F83E290E00197D5
:10066000F1F760E08091D1050E946F1F8091D30562
:100670009091D4059927FC01EA56FE4F6491FC0144
:10068000EE57FE4FE491F0E0EE0FFF1FE858FE4FEB
:100690008591949100E41CE920E030E0462F0E940F
:1006A0005B23611571058105910549F0DC01CB01E2
:1006B0000196A11DB11DBC01CD019F7003C060E07A
:1006C00070E0CB012AE330E040E050E00E94B52B1F
:1006D000211531054105510521F427EE33E040E0B5
:1006E00050E08FE391E029833A834B835C830E943F
:1006F0000F148CE391E00E940F1429813A814B8101
:100700005C81CA01B9010E94492D0E94112D85E426
:1007100098E00E94C41589E391E00F900F900F902C
:100720000F90DF91CF911F910F910C9430140E9484
:10073000B6010E9498158FE090E00C9441170E943A
:10074000B60161E473E086E194E00E945822809152
:1007500009068111109209060E94EF1D009779F099
:100760000E94142B90930A04809309040E94C922CA
:100770006DE773E086E194E00E94582212C06AE1BE
:1007800070E080E090E00E94141B60ED77E080E074
:1007900090E00E943F200E94411B10920A04109298
:1007A00009040E94EF1D009779F00E94142B90938A
:1007B0000301809302010E94C9226DE773E086E184
:1007C00094E00E94582206C088EE93E090930301C3
:1007D000809302010E94EF1D009771F00E94142B7C
:1007E00090930101809300010E94C9226DE773E09C
:1007F00086E194E00C9458228EE190E09093010100
:100800008093000108951F920F920FB60F9211244A
:100810002F933F934F935F936F937F938F939F9308
:10082000AF93BF93EF93FF93E0910704F091080417
:10083000309709F451C0968DA685B785858591FFBF
:1008400004C09C91892329F447C09C91892309F015
:1008500043C0A389B4899C918589809589238C9311
:10086000868997890197F1F7608D718DA685B78587
:10087000558538E020E0CB010197F1F7822F90E019
:1008800095958795282F4C91452309F02068315084
:1008900091F7868D81FD20958091060490E0019668
:1008A0008F73992730910504381749F0A0910604F9
:1008B000B0E0AB53BC4F2C938093060403C0868DED
:1008C0008160868F828D938D0197F1F7A389B4891A
:1008D0009C918589892B8C93FF91EF91BF91AF916A
:1008E0009F918F917F916F915F914F913F912F9148
:1008F0000F900FBE0F901F901895E0910704F09194
:100900000804E817F90769F4A389B4899C918589DB
:10091000809589238C93109208041092070481E03B
:10092000089580E00895CF92DF92EF92FF92CF93E7
:10093000DF93EC01603282E078070CF03DC077FD78
:1009400006C0653B71052CF064EB70E002C060E00E
:1009500070E0898128E830E06901C81AD10887FD74
:10096000D394CC0CDD1CCC0CDD1C0D2C000CEE0843
:10097000FF088A8128E532E0281B310987FD33957D
:10098000220F331F220F331FC901330FAA0BBB0BDA
:100990009C01AD012C193D094E095F09DB010E9444
:1009A000DF2B24EB30E040E050E00E94B52BC20E7C
:1009B000D31EE41EF51EB60188818C3080F5998126
:1009C00048E850E0491B510997FD5395440F551FC6
:1009D000440F551F6417750784F09A8128E532E0AB
:1009E000291B310997FD3395220F331F220F331F27
:1009F000AB01261737070CF4A90142505109440FE7
:100A0000551F2FB7F89490E0FC01EE0FFF1F8E0FDB
:100A10009F1FFC01ED54FB4F528341832FBFDF9199
:100A2000CF91FF90EF90DF90CF9008951F920F929B
:100A30000FB60F9211242F933F934F935F936F93B1
:100A40007F938F939F93AF93BF93EF93FF93809187
:100A5000C40387FF05C010928500109284001BC05C
:100A60002091C403022E000C330B8091D70490E038
:100A70002817390784F48091C403082E000C990BC1
:100A8000FC01EE0FFF1F8E0F9F1FFC01ED54FB4F6B
:100A9000808186FD15C08091C4038F5F8093C4035D
:100AA0002091C403022E000C330B8091D70490E0F8
:100AB00028173907C4F48091C4038C3064F113C043
:100AC0008091C403082E000C990BFC01EE0FFF1F50
:100AD0008E0F9F1FFC01ED54FB4F808160E08F73F0
:100AE0000E946F1FD8CF809184009091850004965A
:100AF00080349C4918F480E49CE905C0809184000E
:100B000090918500049690938900809388008FEFE0
:100B10008093C4033BC02091840030918500809174
:100B2000C403082E000C990BFC01EE0FFF1F8E0F63
:100B30009F1FFC01ED54FB4F81819281820F931F17
:100B400090938900809388008091C403082E000C44
:100B5000990BFC01EE0FFF1F8E0F9F1FFC01ED5440
:100B6000FB4F808186FF12C08091C403082E000CC9
:100B7000990BFC01EE0FFF1F8E0F9F1FFC01ED5420
:100B8000FB4F808161E08F730E946F1FFF91EF9197
:100B9000BF91AF919F918F917F916F915F914F9195
:100BA0003F912F910F900FBE0F901F9018956EE1FF
:100BB00070E080E090E00E943F208AE691E00E9491
:100BC0000F1488E691E00E940F1485E691E00C94E2
:100BD0003014CF93DF9300D0CDB7DEB70E94B601BB
:100BE0000E9498150E94EF1D009751F042E050E0DE
:100BF000BE016F5F7F4F0E94022A0E945D1A0EC0E5
:100C00006AE170E080E090E00E94141B60ED77E004
:100C100080E090E00E943F200E94411B0E94D70587
:100C20000F900F90DF91CF9108950E94B6010E941E
:100C300098150E94EF1D009761F00E94142B0197F8
:100C40008331910508F046C08C5C9F4FFC010C94E9
:100C5000342F60ED77E080E090E00E943F203AC0C2
:100C600080E090E035C081E090E032C086E090E026
:100C70002FC087E090E02CC088E090E029C089E098
:100C800090E026C08AE090E023C08BE090E020C096
:100C90008CE090E01DC08DE090E01AC08EE090E006
:100CA00017C08FE090E014C080E190E011C081E1B6
:100CB00090E00EC082E190E00BC083E090E008C0BD
:100CC00084E090E005C085E090E002C082E090E022
:100CD0000E9441170C94D7050E94B6010E949815F6
:100CE0000E94EF1D009759F00E94142B01978D3040
:100CF0009105E0F5895B9F4FFC010C94342F6AE16C
:100D000070E080E090E00E94141B60ED77E080E0EE
:100D100090E00E943F200E94411B28C080E090E0AC
:100D200023C081E090E020C082E090E01DC083E01D
:100D300090E01AC084E090E017C085E090E014C015
:100D400086E090E011C087E090E00EC088E090E07F
:100D50000BC089E090E008C08AE090E005C08BE01D
:100D600090E002C08CE090E00E94D5070C94D7057B
:100D7000AF92BF92CF92DF92EF92FF921F93CF93E9
:100D8000DF93CDB7DEB728970FB6F894DEBF0FBE5E
:100D9000CDBF0E94B6018EE190E090930A0480934B
:100DA00009040E94EF1D009729F00E94142B5C019A
:100DB00010E001C011E00E94EF1D009721F00E9499
:100DC000142B6C0101C011E00E94EF1D009721F06F
:100DD0000E94142B7C0101C011E00E94EF1D0097BE
:100DE00021F00E94142B112339F060ED77E080E0B0
:100DF00090E00E943F200FC0BA82A982DC82CB82A1
:100E0000FE82ED8298878F83BE016F5F7F4F88ECF3
:100E100090E00E9460140E94881581E0809309068A
:100E20000E94D70528960FB6F894DEBF0FBECDBF3F
:100E3000DF91CF911F91FF90EF90DF90CF90BF9007
:100E4000AF900895CF92DF92EF92FF920F931F938E
:100E5000CF93DF930E94B6010E9498150E94EF1D68
:100E6000009729F00E94142B6C01C0E001C0C1E082
:100E70000E94EF1D009721F00E94142B7C0101C0FD
:100E8000C1E00E94EF1D009721F00E94142B8C01FD
:100E900001C0C1E00E94EF1D009721F00E94142BB9
:100EA000CC2339F060ED77E080E090E00E943F20B5
:100EB00023C0D0923D05C0923C05F0926605E092B9
:100EC000650510938F0500938E059093B805809368
:100ED000B7050CE315E0C0E0D0E0F8016081CE0179
:100EE0000E94752B2196075D1F4FC430D105A9F7CD
:100EF00080E593E00E946D22DF91CF911F910F91C9
:100F0000FF90EF90DF90CF900C94D705EF92FF9277
:100F10000F931F93CF93DF9300D000D0CDB7DEB7F0
:100F20000E94B6010E9498150E94EF1D009729F0BB
:100F30000E94142B7C0110E001C011E00E94EF1D03
:100F4000009721F00E94142B112339F060ED77E017
:100F500080E090E00E943F2016C09C01990F440B56
:100F6000550BB701FF0C880B990B29833A834B83F0
:100F70005C830E94492D01E010E029813A814B8178
:100F80005C810E94C8100F900F900F900F90DF911E
:100F9000CF911F910F91FF90EF900C94D7050E9475
:100FA000B6010E9498150C94D7052F923F924F924C
:100FB0005F926F927F928F929F92AF92BF92CF92E9
:100FC000DF92EF92FF920F931F93CF93DF93CDB7F2
:100FD000DEB7C058D1090FB6F894DEBF0FBECDBF43
:100FE00028E0E1E2F1E0DE01AF58BF4F01900D9241
:100FF0002A95E1F728E0E9E2F1E0DE01A759BF4FC9
:1010000001900D922A95E1F728E0E1E3F1E0DE019D
:10101000AF59BF4F01900D922A95E1F728E0E9E31F
:10102000F1E0DE01A75ABF4F01900D922A95E1F73A
:1010300028E0E1E4F1E0DE01AF5ABF4F01900D92EC
:101040002A95E1F728E0E9E4F1E0DE01A75BBF4F74
:1010500001900D922A95E1F728E0E1E5F1E0DE014B
:10106000AF5BBF4F01900D922A95E1F728E0E9E5CB
:10107000F1E0DE01D99601900D922A95E1F728E082
:10108000E1E6F1E0DE01D19601900D922A95E1F7BB
:1010900028E0E9E6F1E0DE01999601900D922A95AB
:1010A000E1F728E0E1E7F1E0DE01919601900D9291
:1010B0002A95E1F728E0E9E7F1E0DE015996019091
:1010C0000D922A95E1F728E0E1E8F1E0DE01519682
:1010D00001900D922A95E1F728E0E9E8F1E0DE01C0
:1010E000199601900D922A95E1F78D30910508F03F
:1010F00028C6FC01EC5AFF4F0C94342F0EE110E08F
:1011000022E330E040E050E064EA70ED84E294E4F1
:101110000E94C8106AE070E080E090E00E94141B1A
:101120008DE090E00E94411764E170E080E293E07E
:101130000E9402238DE090E02BC16BE070E080E024
:1011400090E00E94141B8BE090E00E9441176CE03D
:1011500070E080E090E00E94141B84EF91E00E9418
:101160000F1C6BE070E080E090E00E94141B8CE0AC
:1011700090E00E9441176CE070E080E090E00E94F7
:10118000141B84EF91E00E940F1C80C266E170E0A6
:1011900080E090E00E94141BBE016F587F4F8CEBE3
:1011A00092E00E946014A8EC8A2E912CB4E1AB2E40
:1011B000B12CC12CD12C1CE5E12E1FE8F12E02E848
:1011C0001FE320E030E84FE454E460E070E08CE599
:1011D00094E40E94501368E170E080E090E00E9487
:1011E000141B20E030E845E454E460E070E88FE44C
:1011F00094E40E94501367E170E080E090E00E9468
:10120000141B20E030E049E354E460E070E885E43A
:1012100094E40E94501368E170E080E090E00E9446
:10122000141B20E030E04FE254E460E070E089E31A
:1012300094E40E94501367E170E080E090E00E9427
:10124000141B20E030E447E254E460E070E08FE2F9
:1012500094E40E94501366E170E080E090E00E9408
:10126000141B64EF71E080E090E00E943F200E9438
:101270009815CEC2BE0167597F4F8CEB92E00E9459
:101280006014F4E06F2E712C40E050E061E070E0FB
:1012900080E090E00E94551C5AE0852E912C6AE077
:1012A000A62EB12CC12CD12C18EBE12E1EE1F12E73
:1012B00005E81FE320E030E048E453E460E070E03C
:1012C00088EC92E40E94501341E050E061E070E04D
:1012D00080E090E00E94551C20E030E046E953E4B5
:1012E00060E070E088E493E40E94501342E050E034
:1012F00061E070E080E090E00E94551C20E030E06A
:101300004AEF53E460E070E086E993E40E945013F2
:1013100064EF71E080E090E00E943F2041E050E007
:1013200061E070E080E090E00E94551C8824839486
:10133000912C20E030E04AE753E460E070E088EC74
:1013400093E40E94501340E050E061E070E080E0E0
:1013500090E00E94551C20E030E048EC52E460E050
:1013600070E08AE793E40E94501364EF71E080E03C
:1013700090E00E943F2021E0621A710809F084CFBA
:1013800063E170E080E090E00E94141B89E090E04F
:101390000E9441177BC1BE016F597F4F84EF91E0DE
:1013A0000E9460146CE271E080E090E00E943F20B7
:1013B00063E170E080E090E00E94141B80E190E027
:1013C0000E94411760E170E080E090E00E94141BF1
:1013D0006AEF70E080E090E00E943F20BE01675A13
:1013E0007F4F84EF91E00E9460146CE271E080E036
:1013F00090E00E943F2063E170E080E090E00E9476
:10140000141B81E190E00E94411760E170E080E0F0
:1014100090E00E94141B6AEF70E080E090E00E9470
:101420003F20BE016F5A7F4F84EF91E00E9460140D
:101430006CE271E080E090E00E943F2063E170E0A8
:1014400080E090E00E94141B82E190E00E9441172E
:1014500060E170E080E090E00E94141B6CE271E0BB
:1014600080E090E00E943F200E94981564EF71E0B8
:1014700080E090E04AC3BE01675B7F4F8CE291E061
:101480000E94601464E170E080E090E00E94141B10
:101490008FE090E00E944117F3C06DE070E080E0C3
:1014A00090E00E94141B89E090E00E94411701E047
:1014B00010E02FE030E04CED55E060E070E080E0BF
:1014C00090E40E94D21C0E9498158DE090E00E944A
:1014D0004117C0C3BE016F5B7F4F8CE291E00E9459
:1014E00060146EE170E080E090E00E94141B0EE159
:1014F00010E024E630E040E050E060E070E08CE591
:1015000094E40E94C81014E0812E912C07E0A02ED4
:10151000B12CC12CD12C1CE5E12E1FE8F12E02E8E4
:101520001FE32FE135ED42E954E460E070E08CE523
:1015300094E40E94501388248394912C2AE0A22ED4
:10154000B12CC12CD12C2CE53FEF43EC54E46FE1DE
:1015500075ED82E994E40E94501320E030E04CE500
:1015600054E46CE57FEF83EC94E40E9450136FE049
:1015700070E080E090E00E943F2034E0832E912CC8
:1015800044E1A42EB12CC12CD12C24EA30ED44E24C
:1015900054E460E070E08CE594E40E94501360E94C
:1015A00071E080E090E00E943F20BE01675C7F4FC9
:1015B00088EC90E00E9460142FE135ED42E954E49C
:1015C00060E070E08CE594E40E945013BE016F5C13
:1015D0007F4F88EC90E00E94601424EA30ED44E2F2
:1015E00054E460E070E08CE594E40E9450134EC037
:1015F0006EE170E080E090E00E94141BF4E08F2E1A
:10160000912CA4E1AA2EB12CC12CD12C1CE5E12EE9
:101610001FE8F12E02E81FE32FE135ED42E954E423
:1016200060E070E08CE594E40E94501324EA30ED11
:1016300044E254E460E070E08CE594E40E945013CE
:101640006CE271E080E090E00E943F2063E170E096
:1016500080E090E00E94141B04E010E0BE01675D92
:101660007F4F84E690E00E9460140E94981501501C
:101670001109A1F76EE170E080E090E00E94141B78
:1016800064EF71E080E090E00E943F200E94981596
:10169000E1C224E030E0EB963FAF2EAFEB9700E9DC
:1016A00011E0612C712CA30162E070E080E090E019
:1016B0000E94551CC8018C599F4FED969FAF8EAF6D
:1016C000ED97B801110F880B990B0E94492D1B0152
:1016D0002C01ED96EEADFFADED97BF01FF0F880B2E
:1016E000990B0E94492D9B01AC016AE0862E912C3A
:1016F0007AE0A72EB12CC12CD12C18EBE12E1EE1E3
:10170000F12E05E81FE3C201B1010E945013FFEF63
:101710006F1A7F0AED960EAD1FADED9726E06216AB
:10172000710409F60E94411B18EBE12E1EE1F12E17
:1017300005E81FE320E030E849E854E4C201B101C4
:101740000E94501398EE492E93E0592E612C712C73
:10175000A30162E070E080E090E00E94551CB201BD
:101760006C597F4F072E000C880B990B0E94492D56
:101770009B01AC01B201052C000C880B990BEE9675
:101780002FAFEE97EF963FAFEF97C158DF4F4883EB
:10179000CF57D040C058DF4F5883C058D0400E9428
:1017A000492DFAE08F2E912CAAE0AA2EB12CC12C43
:1017B000D12C18EBE12E1EE1F12E05E81FE3EE9689
:1017C0002FADEE97EF963FADEF97C158DF4F4881B1
:1017D000CF57D040C058DF4F5881C058D0400E94EA
:1017E000501334E6431A51088FEF681A780A96E0CE
:1017F0006916710409F0ACCFEB96EEADFFADEB9737
:101800003197EB96FFAFEEAFEB97EF2B09F047CF99
:101810006CE271E080E090E078C1A2E02A2E312CE9
:10182000F4EF4F2E55245394612C712CA30163E0E7
:1018300070E080E090E00E94551CB2016C597F4F2F
:10184000072E000C880B990B0E94492D9B01AC01BF
:10185000B201052C000C880B990BEE962FAFEE977A
:10186000EF963FAFEF97C158DF4F4883CF57D04037
:10187000C058DF4F5883C058D0400E94492D4AE0DD
:10188000842E912C5AE0A52EB12CC12CD12C1CE514
:10189000E12E1FE8F12E02E81FE3EE962FADEE9742
:1018A000EF963FADEF97C158DF4F4881CF57D040FB
:1018B000C058DF4F5881C058D0400E94501335E6C1
:1018C000430E511C8FEF681A780A9AE0691671046A
:1018D00009F0ACCF36EE432E35E0532E612C712C3F
:1018E000A30163E070E080E090E00E94551CB2012B
:1018F0006C597F4F072E000C880B990B0E94492DC5
:101900009B01AC01B201052C000C880B990BEE96E3
:101910002FAFEE97EF963FAFEF97C158DF4F488359
:10192000CF57D040C058DF4F5883C058D0400E9496
:10193000492DAAE08A2E912CBAE0AB2EB12CC12CF5
:10194000D12C1CE5E12E1FE8F12E02E81FE3EE96F4
:101950002FADEE97EF963FADEF97C158DF4F48811F
:10196000CF57D040C058DF4F5881C058D0400E9458
:101970005013E5E64E0E511CFFEF6F1A7F0A2AE066
:101980006216710409F0ACCFF8ED4F2EF9E05F2E2E
:10199000612C712CA30163E070E080E090E00E9474
:1019A000551CB20164567109072E000C880B990B67
:1019B0000E94492D9B01AC01B201052C000C880B43
:1019C000990BEE962FAFEE97EF963FAFEF97C1587A
:1019D000DF4F4883CF57D040C058DF4F5883C0589F
:1019E000D0400E94492D4AE0842E912C5AE0A52E29
:1019F000B12CC12CD12C1CE5E12E1FE8F12E02E800
:101A00001FE3EE962FADEE97EF963FADEF97C158DF
:101A1000DF4F4881CF57D040C058DF4F5881C05862
:101A2000D0400E94501335E6431A51088FEF681AD0
:101A3000780A9AE06916710409F0ACCF36EE432EAD
:101A400035E0532E612C712CA30163E070E080E03F
:101A500090E00E94551CB20164567109072E000CDB
:101A6000880B990B0E94492D9B01AC01B201052CFA
:101A7000000C880B990BEE962FAFEE97EF963FAFC9
:101A8000EF97C158DF4F4883CF57D040C058DF4F42
:101A90005883C058D0400E94492D1AE0812E912CC5
:101AA0000AE0A02EB12CC12CD12C1CE5E12E1FE8A0
:101AB000F12E02E81FE3EE962FADEE97EF963FADC5
:101AC000EF97C158DF4F4881CF57D040C058DF4F04
:101AD0005881C058D0400E945013E5E64E1A510874
:101AE000FFEF6F1A7F0A2AE06216710409F0ACCF8B
:101AF0002A94232821F022242394312C91CE0E9471
:101B0000411B64E670E080E090E00E943F20A2C0AC
:101B10006FE070E080E090E00E94141B40E4242E0F
:101B200046E0342E5AE5652E712C68E0B62ECE01C3
:101B300001962C017AE5E72EF12CE4EBCE2ED12C88
:101B4000F2012B2D11922A95E9F7FA82E982FC82A3
:101B5000EB827E826D82C6018619970998878F83F2
:101B6000B2018AE090E00E946014B101032C000CE5
:101B7000880B990B0E94492D01E010E02FE030E026
:101B800040E050E00E94C8103FEF631A730A84E1FE
:101B9000280E311C96E96916710491F66EE070E02A
:101BA00080E090E00E94141B80EF282E8AE0382EFF
:101BB00098E0B92E2AE5E22EF12C34EBC32ED12C7D
:101BC000F2012B2D11922A95E9F7FA82E982FC8223
:101BD000EB827E826D82C6018619970998878F8372
:101BE000B2018AE090E00E946014B101032C000C65
:101BF000880B990B0E94492D01E010E02FE030E0A6
:101C000040E050E00E94C81031E0631A710884E19E
:101C1000280E311C9AE56916710491F66BE070E0AC
:101C200080E090E00E94141B84EF91E00E940F1C62
:101C30008CE090E00E9441176CE070E080E090E062
:101C40000E94141B84EF91E00E940F1C0E949815C3
:101C50000E94411B6BE070E080E090E00E94141B4A
:101C600070C067E170E080E090E00E94141BBE014C
:101C70006F5D7F4F8CE291E00E94601401E010E004
:101C800028EC30E040E050E060E070E081E694E471
:101C90000E94C81068E170E080E090E00E94141B90
:101CA000BE01675E7F4F8CE291E00E94601428ECD9
:101CB00030E040E050E060E070E086E194E40E94B3
:101CC000C81064E170E080E090E00E94141BBE0147
:101CD0006F5E7F4F8CE291E00E94601428EC30E050
:101CE00040E050E060E070E086E993E40E94C810B4
:101CF000BE01675F7F4F8CE291E00E9460146AE151
:101D000070E080E090E00E94141B0E94881528E992
:101D100038E040E050E060E070E086E193E40E944B
:101D2000C81068E572E080E090E00E943F200E94C9
:101D3000411B6BE070E080E090E00E94141B0E9469
:101D40009815C058DF4F0FB6F894DEBF0FBECDBF59
:101D5000DF91CF911F910F91FF90EF90DF90CF9087
:101D6000BF90AF909F908F907F906F905F904F90BB
:101D70003F902F900895FC01918D828D981761F00E
:101D8000828DDF01A80FB11D5D968C91928D9F5FB2
:101D90009F73928F90E008958FEF9FEF0895FC015D
:101DA000918D828D981731F0828DE80FF11D858D10
:101DB00090E008958FEF9FEF0895FC01918D228DA3
:101DC000892F90E0805C9F4F821B91098F73992728
:101DD000089586E194E00E94DD0E21E0892B09F44C
:101DE00020E0822F0895FC01848DDF01A80FB11D32
:101DF000A35ABF4F2C91848D90E001968F73992741
:101E0000848FA689B7892C93A089B1898C9180642D
:101E10008C93938D848D981306C00288F389E02DEE
:101E200080818F7D80830895EF92FF920F931F939F
:101E3000CF93DF93EC0181E0888F9B8D8C8D98137D
:101E400005C0E889F989808185FD24C0F62E0B8DB7
:101E500010E00F5F1F4F0F731127E02E8C8DE812DB
:101E60000CC00FB607FCFACFE889F989808185FF9D
:101E7000F5CFCE010E94F30EF1CF8B8DFE01E80F5E
:101E8000F11DE35AFF4FF0820B8FEA89FB898081B5
:101E9000806207C0EE89FF896083E889F9898081C3
:101EA0008064808381E090E0DF91CF911F910F915A
:101EB000FF90EF900895CF93DF93EC01888D8823F6
:101EC000C9F0EA89FB89808185FD05C0A889B989A7
:101ED0008C9186FD0FC00FB607FCF5CF808185FF82
:101EE000F2CFA889B9898C9185FFEDCFCE010E94F0
:101EF000F30EE7CFDF91CF91089580E090E0892B3A
:101F000029F00E94E90E81110C94000008950E94AE
:101F10003A2F1F920F920FB60F9211242F933F93D7
:101F20004F935F936F937F938F939F93AF93BF93E1
:101F3000EF93FF9386E194E00E94F30EFF91EF91FF
:101F4000BF91AF919F918F917F916F915F914F91D1
:101F50003F912F910F900FBE0F901F9018951F92D9
:101F60000F920FB60F9211242F938F939F93EF939D
:101F7000FF93E0912604F09127048081E0912C04E6
:101F8000F0912D0482FD12C0908180912F048F5F0B
:101F90008F7320913004821751F0E0912F04F0E00C
:101FA000EA5EFB4F958F80932F0401C08081FF91E3
:101FB000EF919F918F912F910F900FBE0F901F90D7
:101FC00018950F931F93CF93DF9385E10E942820EC
:101FD00025E0AC01249FC001259F900D1124BC0178
:101FE000990F880B990B0E94492D20E030E040E8C2
:101FF0005AE30E94FE2D8B01D82FC92F26E636E624
:1020000046E850E40E94F92D181624F406E616E678
:10201000D6E8C0E42FEB36E842ED52E4B8018D2F4C
:102020009C2F0E94FE2D2CE73DE04BEA53E40E94DA
:102030002D2C8B01D82FC92F20E030E0A9010E9460
:102040009A2C87FF04C000E010E0D0E0C0E0B801A7
:102050008D2F9C2FDF91CF911F910F9108951F938A
:10206000CF93DF93EC019881292F30E0F901EE0F37
:10207000FF1F2E0F3F1FF901ED54FB4F808186FD9E
:1020800083C0162F9C3008F04EC061E0812F0E9463
:10209000EC1F8881E82FF0E09F01220F331FE20F31
:1020A000F31FED54FB4F1F736081607C162B108370
:1020B00019821A826CE00E94002F9CE0899FB00177
:1020C000112440E050E09A01260F371FF901EE0F6E
:1020D000FF1F2E0F3F1FF901ED54FB4F908196FD1E
:1020E00016C04F5F5F4F4C30510569F781110FC02B
:1020F0001092800082E080938100109285001092FF
:102100008400B19A80916F00826080936F00E881B3
:10211000F0E0CF01880F991FE80FF91FED54FB4F36
:102120008081806480836AE570E0CE010E94930420
:102130008EE190E09E8F8D8F80ED97E098878F8362
:1021400080E090E0A4E8B2E4898F9A8FAB8FBC8FD7
:102150008AE198EFA2ECBDE38D8B9E8BAF8BB88F9D
:102160001F8E18A219A21AA28DE290E09C838B8385
:10217000198A1A8A1B8A1C8A19861A861B861C864B
:102180001E821D821FA218A6DF91CF911F91089574
:102190003F924F925F926F927F928F929F92AF92F7
:1021A000BF92CF92DF92EF92FF920F931F93CF9344
:1021B000DF93CDB7DEB728970FB6F894DEBF0FBE1A
:1021C000CDBF29013A010115110511F401E010E01C
:1021D000E090ED05F090EE05209104012E1521F020
:1021E0002F3F09F0DEC104C0EDE6F1E0349081C07C
:1021F000E0920401EDE6F1E0E491EF3F09F4D1C192
:10220000E13031F1E23009F44BC0E11171C014BC8E
:1022100015BC24B5226024BD25B5216025BDA701CC
:102220005527FA01EE57FE4FE491F0E0EE0FFF1F45
:10223000E259FE4F25913491309369082093680844
:10224000FA01EA56FE4FE491E0936708312C53C03F
:1022500010928000109281002091810028602093CC
:10226000810020918100216020938100A7015527E2
:10227000FA01EE57FE4FE491F0E0EE0FFF1FE25936
:10228000FE4F259134913093660820936508FA013A
:10229000EA56FE4FE491E0936408332433942BC054
:1022A0001092B0001092B1002091B00022602093F3
:1022B000B0002091B10021602093B100A701552703
:1022C000FA01EE57FE4FE491F0E0EE0FFF1FE259E6
:1022D000FE4F259134913093110420931004FA019C
:1022E000EA56FE4FE491E0930F04B2E03B2E03C0A8
:1022F0003E2E37FC56C10E94182D6D837E838F833E
:10230000988761E08E2D0E94EC1F8D819E814C018B
:10231000A12CB12C832D8D7F09F0BBC060E072E150
:102320008AE790E0A50194010E94B52B29833A83A6
:102330004B835C8369017A0191E0C91AD108E108F5
:10234000F108EFEFCE16D104E104F10409F008F42E
:102350004CC060E472E48FE090E0A50194010E941B
:10236000B52B69017A01F1E0CF1AD108E108F10833
:1023700022E0321220C08FEFC816D104E104F1042C
:1023800009F008F48BC160E970ED83E090E0A501ED
:1023900094010E94B52B69017A0191E0C91AD10814
:1023A000E108F108EFEFCE16D104E104F10409F0E1
:1023B000D0F583E067C0FFEFCF16D104E104F1044C
:1023C000B1F0A8F068E478EE81E090E0A501940116
:1023D0000E94B52B69017A0181E0C81AD108E10891
:1023E000F108332009F438C12EC181E001C082E038
:1023F0003320A1F047C089819A81AB81BC812AE05A
:10240000B595A795979587952A95D1F76C017D018C
:10241000E1E0CE1AD108E108F10885E095B5987F92
:10242000892B85BD6FC068E478EE81E090E0A5015E
:1024300094010E94B52B69017A01E1E0CE1AD1081E
:10244000E108F108FFEFCF16D104E104F10409F02F
:1024500008F4C8C064E274EF80E090E0A501940144
:102460000E94B52B69017A0191E0C91AD108E108EF
:10247000F108EFEFCE16D104E104F10411F008F0F9
:10248000B3C085E09091B100987F892B8093B10013
:1024900039C060E072E18AE790E0A50194010E94F2
:1024A000B52B69017A0181E0C81AD108E108F10869
:1024B000C114D10491E0E906F10488F068E478EEF3
:1024C00081E090E0A50194010E94B52B69017A0199
:1024D000E1E0CE1AD108E108F10893E001C091E0F3
:1024E000F1E03F120FC080918100887F892B80939B
:1024F0008100411451046104710449F42FEF3FEF4E
:10250000A9012EC0411451046104710479F0AD8118
:10251000BE81AA0FBB1FA30192010E94D42B28EEFB
:1025200033E040E050E00E94932B03C02FEF3FEFD9
:10253000A90181E03816A1F092E0391619F13110A5
:1025400030C0C7BC20936E0830936F08409370086A
:102550005093710880916E00826080936E0021C05C
:10256000D0928900C092880020936A0830936B084B
:1025700040936C0850936D0880916F008260809347
:102580006F000FC0C092B300209312043093130465
:1025900040931404509315048091700082608093DE
:1025A0007000C301B2010E943F20B801110F880BD7
:1025B000990B28960FB6F894DEBF0FBECDBFDF9102
:1025C000CF911F910F91FF90EF90DF90CF90BF9030
:1025D000AF909F908F907F906F905F904F903F90C3
:1025E0000C943F2084E04ECF62E17AE780E090E0F7
:1025F000A50194010E94B52B69017A0181E0C81AF6
:10260000D108E108F1089FEFC916D104E104F104F3
:10261000C1F0B8F089819A81AB81BC814AE0B5955F
:10262000A795979587954A95D1F76C017D01F1E0C3
:10263000CF1AD108E108F108332009F4EECE87E083
:1026400021CF86E0D5CEEFEFCE16D104E104F10420
:1026500009F050F684E0CCCE8FEFC816D104E10427
:10266000F104D1F0C8F062E17AE780E090E0A501E2
:1026700094010E94B52B69017A01F1E0CF1AD108CB
:10268000E108F1082FEFC216D104E104F10411F0C2
:1026900008F0B1CE84E0C2CE83E0C0CE82E0F2CEBC
:1026A0004F925F926F927F928F929F92AF92BF9262
:1026B000CF92DF92EF92FF920F931F93CF93DF930E
:1026C000CDB7DEB728970FB6F894DEBF0FBECDBFEB
:1026D0002B013C0129833A834B835C83ED82FE828C
:1026E0000F8318878114910419F488248394912C02
:1026F00029813A814B815C81C301B2010E949A2CED
:1027000087FF24C0C301B2010E94112D072E000CC7
:10271000880B990B0E94492D2B013C0129813A819C
:102720004B815C810E949A2C87FF34C08401A601F2
:102730009501C301B2010E94C8102D813E814F81D5
:102740005885C301B2010E94FE2DDECFC301B20144
:102750000E94112D072E000C880B990B0E94492D09
:102760002B013C0129813A814B815C810E94F92D2A
:10277000181684F48401A6019501C301B2010E94D8
:10278000C8102D813E814F815885C301B2010E943E
:102790009F2CDECF28960FB6F894DEBF0FBECDBFBC
:1027A000DF91CF911F910F91FF90EF90DF90CF902D
:1027B000BF90AF909F908F907F906F905F904F9061
:1027C0000895CF92DF92EF92FF92CF93DF930E9412
:1027D000E10FCAE0D0E0C12CD12C76010E94E10FBC
:1027E0009B01AC01C701B6010E942E2C6B017C013C
:1027F00061E070E080E090E00E943F20219771F757
:1028000020E030E040E251E4C701B6010E949F2C75
:10281000DF91CF91FF90EF90DF90CF9008950F93CD
:102820001F93CF93DF938C01C0E0D0E0F801EC0F51
:10283000FD1F6491662371F0E0914508F091460810
:102840000190F081E02D85E498E00995892B11F045
:102850002196ECCFCE01DF91CF911F910F9108957A
:10286000CF93DF930E940F14EC0161EC73E085E4D9
:1028700098E00E9458228C0F9D1FDF91CF91089500
:102880006091D5057091D6058DE295E00E942F10DC
:102890006091D7057091D80586E595E00E942F10CC
:1028A0006091D9057091DA058FE795E00E942F10AD
:1028B0006091DB057091DC0588EA95E00C942F109F
:1028C0002F923F924F925F926F927F928F929F9240
:1028D000AF92BF92CF92DF92EF92FF920F931F932E
:1028E000CF93DF93CDB7DEB728970FB6F894DEBF4E
:1028F0000FBECDBF6C0178876F830E94401480911A
:1029000009068111109209068F81988508961C018D
:102910009BE0C916D1040CF4C2C00D2C000CEE08CB
:10292000FF08C701B6010E94492D20E030E040E2D7
:1029300051E40E949F2C4B015C010F81188529EF07
:10294000422E25E0522E35EE632E35E0732EF8012F
:10295000619171918F01F301819191913F01681B08
:10296000790B072E000C880B990B0E94492DA501AD
:1029700094010E949F2CF201619371938193919332
:102980002F010215130519F70E947921C60ED71ED3
:10299000E81EF91EC092F105D092F205E092F3050F
:1029A000F092F40544244394512C0E947921009123
:1029B000F1051091F2052091F3053091F4056017AF
:1029C00071078207930708F07FC00E947921DC011C
:1029D000CB010A96A11DB11D8093F5059093F605D4
:1029E000A093F705B093F8050DE215E089EF682E86
:1029F00085E0782E85EE95E09A8389834201052C47
:102A0000000CAA08BB08E981FA8161917191FA83EF
:102A1000E983F30121913191419151913F01072EB9
:102A2000000C880B990B2B833C834D835E830E94A3
:102A3000492D6B017C01C501B4010E94492D2B81F8
:102A40003C814D815E810E94FE2D9B01AC01C7013E
:102A5000B6010E942E2C0E94112DF8012785308985
:102A6000620F731FC8010E949304075D1F4FF9E0B6
:102A70006F16F6E07F0639F60E9479210091F50580
:102A80001091F6052091F7053091F8056017710750
:102A90008207930788F38FEF481A580A86CFEF8092
:102AA000F8840DE215E0F701619171917F01F80161
:102AB00087859089680F791FC8010E949304075D7C
:102AC0001F4FE214F30479F7AF81B885E5EEF5E026
:102AD0008D919D9181939193A215B305C9F7289685
:102AE0000FB6F894DEBF0FBECDBFDF91CF911F911F
:102AF0000F91FF90EF90DF90CF90BF90AF909F909D
:102B00008F907F906F905F904F903F902F9008959F
:102B10008DE295E00E945F1F86E595E00E945F1FB1
:102B20008FE795E00E945F1F88EA95E00C945F1F95
:102B3000CF93DF93CDB7DEB728970FB6F894DEBFFB
:102B40000FBECDBF80910906811115C088E0E1ED6F
:102B5000F1E0DE01119601900D928A95E1F7BE0138
:102B60006F5F7F4F84EF91E00E9460140E94881590
:102B700081E08093090628960FB6F894DEBF0FBE59
:102B8000CDBFDF91CF910895CF92DF92EF92FF9268
:102B90000F931F93CF93DF936B01770FEE08FF081E
:102BA000F7FE1BC0EC016DE20E9451228C0144270C
:102BB0005527BA014C195D096E097F092AE0CE013B
:102BC0000E948022800F911FDF91CF911F910F9162
:102BD000FF90EF90DF90CF9008952AE0B701A60113
:102BE000DF91CF911F910F91FF90EF90DF90CF90E9
:102BF0000C9480222F923F924F925F926F927F921D
:102C00008F929F92AF92BF92CF92DF92EF92FF92FC
:102C10000F931F93CF93DF9300D000D0CDB7DEB7D3
:102C20001A01270138018B014C0190E3C92E95E070
:102C3000D92E59017B0188E0E80EF11CF801819141
:102C400091918F01F60193838283F4018191919197
:102C50004F01F6019183808335822482628D738DCA
:102C6000C1010E940C2F80E090E00E94472D9B0143
:102C7000AC01F601668B778B808F918F6BED7FE0D7
:102C800089EC90E40E949F2CF601628B738B848BFD
:102C9000958BF50181919191A191B1915F01F6011F
:102CA00086839783A087B187F9E2CF0ED11C0E15DA
:102CB0001F0521F60E9479210E94472D6B017C019E
:102CC000B101330C880B990B0E94492DA30192018D
:102CD0000E94FE2DA70196010E942E2C4B015C0143
:102CE000A5019401C701B6010E949A2C18160CF494
:102CF000B1C08DE2282E85E0382E00E010E00E9461
:102D00007921F10163A374A385A396A3C78CD0A0F6
:102D1000E1A0F2A02B013C014C185D086E087F0871
:102D2000C58CD68CE12CF12CC414D504E604F70430
:102D30000CF080C0678F70A381A392A3C801885252
:102D40009B4F7C01FC01E458FF4F8081811162C0E0
:102D5000F101218532854385548561897289838992
:102D600094890E942E2C0E946B2E9B01AC01F101D4
:102D70006381748180E090E029833A834B835C8394
:102D80000E94472D29813A814B815C810E94FE2D52
:102D90002B013C01F1016581768180E090E00E9489
:102DA000472D9B01AC01C301B2010E942E2C2B01C7
:102DB0003C0120E030E0A9010E94F92D20E030E044
:102DC00040E05FE387FD05C0C301B2010E942E2CE5
:102DD00004C0C301B2010E942D2C0E94112DF101EB
:102DE00076876587F701E358FF4F8081882331F0AC
:102DF000719561957109F10176876587F1016585A6
:102E00007685665A7F4F87859089680F791FC10143
:102E10000E949304F101258936894789508D618983
:102E20007289838994890E942E2CF101618B728BA7
:102E3000838B948B075D1F4FF9E22F0E311C043AF0
:102E4000110509F05CCF0E9479210E94472D6B018A
:102E50007C0146CF0F900F900F900F90DF91CF9194
:102E60001F910F91FF90EF90DF90CF90BF90AF90A8
:102E70009F908F907F906F905F904F903F902F909A
:102E800008958F929F92AF92BF92CF92DF92EF926E
:102E9000FF920F931F93CF93DF938331910508F037
:102EA000D5C2FC01EA58FF4F0C94342F0EE110E01C
:102EB00022E330E040E050E064EA70ED84E294E424
:102EC0000E94C81009E110E027E330E040E050E044
:102ED00062E570ED84EA94E40E94C8100AE010E014
:102EE0002CE330E040E050E060E070E08CED94E4F2
:102EF00022C00EE110E022E330E040E050E064EA5E
:102F000070ED84E294E40E94C81009E110E027E328
:102F100030E040E050E060E070E08CED94E40E942E
:102F2000C8100AE010E022E330E040E050E062E543
:102F300070ED84EA94E40E94C81088C292E0892E61
:102F4000912C24E1A22EB12CC12CD12C1AE0E12E1F
:102F500017EDF12E03E81FE32CE53FEF43EC54E4BB
:102F600062E570ED84EA94E40E9450136EE170E033
:102F700080E090E00E943F204AE0A42EB12CC12CBA
:102F8000D12C18EBE12E1EE1F12E05E81FE32FE115
:102F900035ED42E155E412C0CAE08C2E912CDEE101
:102FA000AD2EB12CC12CD12C1CE5E12E1FE8F12E49
:102FB00002E81FE320E030E04CED54E462E570ED00
:102FC00084EA94E441C2FAE08F2E912CAEE1AA2E5D
:102FD000B12CC12CD12C1AE0E12E17EDF12E03E813
:102FE0001FE32FE135ED42E155E46CE57FEF83EC23
:102FF00094E42AC204E610E022E330E040E050E02E
:1030000062E570ED84EA94E40E94C81000E510E0E7
:1030100022E330E040E050E06CE57FEF83EC94E4A5
:103020000E94C81000E010E02CE231E040E050E0E7
:103030006FE175ED82E195E47ECF88248394912C35
:103040005AE0A52EB12CC12CD12C1CE5E12E1FE895
:10305000F12E02E81FE320E030E646E055E460E0B0
:1030600070E088E494E40E94501377E0A72EB12C1E
:10307000C12CD12C1AE0E12E17EDF12E03E81FE34D
:1030800020E030E048E454E460E070E586E095E458
:10309000DBC193E0892E912C28E0A22EB12CC12C0B
:1030A000D12C18EBE12E1EE1F12E05E81FE320E004
:1030B00030E04AEF54E460E070E08CE594E40E9474
:1030C000501368EC70E080E090E00E943F20C6E181
:1030D000D0E00AE010E025E030E040E050E068E4B5
:1030E00071EF86E794E40E94C810219791F7AEC172
:1030F000C3E08C2E912CD8E0AD2EB12CC12CD12C5C
:103100001AE0E12E17EDF12E03E81FE320E030E88E
:103110004BE355E460E070E08BEE94E40E945013C2
:1031200068EC70E080E090E00E943F20C0E1D0E0D9
:103130000AE010E02AE030E040E050E060E070EDAE
:1031400082E894E40E94C810219791F77FC164E05F
:10315000862E912C70E1A72EB12CC12CD12C1AE017
:10316000E12E17EDF12E03E81FE320E030E041E609
:1031700054E460E070E08FE294E40E945013F7E0C2
:103180008F2E912CA2E1AA2EB12CC12CD12C1EEA9B
:10319000E12E17E4F12E01E81FE320E030E842E2DF
:1031A00054E460E070EC80E694E44EC12AE0822EA4
:1031B000912C3AE0A32EB12CC12CD12C18EBE12E8E
:1031C0001EE1F12E05E81FE320E030E04AEF53E472
:1031D00060E070E088EC92E40E94501364EF71E0CC
:1031E00080E090E00E943F2088248394912C20E08E
:1031F00030E048EC52E460E070E088EC93E424C1F5
:10320000D8E08D2E912C14E1A12EB12CC12CD12C03
:1032100016E6E12EFE2C06E81FE320E030E44CE148
:1032200055E460E070E88BEB94E40E94501399E160
:10323000A92EB12CC12CD12C20E030E84BEB54E46A
:1032400060E070E38CE195E4FFC0E3E08E2E912C0A
:10325000F8E0AF2EB12CC12CD12C16E6E12EFE2CBD
:1032600006E81FE320E030E84BEB55E460E070E057
:103270008AEF94E40E94501362E370E080E090E0F3
:103280000E943F20B2E08B2E912CCDE0AC2EB12CD1
:10329000C12CD12C20E030E04AEF54E460E078E724
:1032A0008BEB95E4D1C048E0842E912C5FE0A52EF5
:1032B000B12CC12CD12C16E6E12EFE2C06E81FE322
:1032C00020E030E04AEF54E460E070E88BEB94E4F7
:1032D0000E94501364E670E080E090E00E943F207E
:1032E0007AE0A72EB12CC12CD12C20E030E44CE1A7
:1032F00055E460E070E88DEE94E4A6C098EC892E69
:10330000912C24E1A22EB12CC12CD12C1CE5E12E54
:103310001FE8F12E02E81FE320E030E447E254E426
:1033200060E070E08CE594E48FC0F2E08F2E912C89
:10333000A8E0AA2EB12CC12CD12C1AE0E12E17ED59
:10334000F12E03E81FE320E030E844ED54E460E0B0
:1033500070E08AE794E40E945013C3E08C2E912C15
:1033600018EBE12E1EE1F12E05E81FE320E030E02E
:103370004AEF53E460E070E684ED94E40E94501359
:103380001AE0812E912C09E0A02EB12CC12CD12C59
:1033900016E6E12EFE2C06E81FE320E030E844EDBF
:1033A00054E460E070E08AE794E44EC06FE0862E5B
:1033B000912C72E0A72EB12CC12CD12C1CE5E12E52
:1033C0001FE8F12E02E81FE320E030E84BE355E46C
:1033D00060E070E088EC94E437C034E1832E912CF7
:1033E00042E0A42EB12CC12CD12C1CE5E12E1FE80B
:1033F000F12E02E81FE320E030E84BEB55E460E0FB
:1034000070E08AEF94E420C084E1882E912C92E051
:10341000A92EB12CC12CD12C1CE5E12E1FE8F12ED8
:1034200002E81FE320E030E04AE755E460E070E0A6
:1034300088EC94E40E94501320E030E84BE355E41C
:1034400060E070E08AE795E40E945013DF91CF912D
:103450001F910F91FF90EF90DF90CF90BF90AF90B2
:103460009F908F900895EF92FF920F931F93CF93A9
:10347000DF93E82EF62EC7E0D0E0042F10E098018D
:103480000C2E02C0359527950A94E2F7B9016170B8
:1034900077278E2D0E946F1F61E08F2D0E946F1F76
:1034A00060E08F2D0E946F1F219748F7DF91CF9129
:1034B0001F910F91FF90EF9008952F923F924F929E
:1034C0005F926F927F928F929F92AF92BF92CF92B4
:1034D000DF92EF92FF920F931F93CF93DF9300D071
:1034E00000D01F92CDB7DEB72B013C01E12CF12CAF
:1034F00087E0282E312C812C912C54018394D50106
:10350000C401022C04C0880F991FAA1FBB1F0A9474
:10351000D2F78983282F20952A8322EE34E03D8339
:103520002C8300E010E0C8018E0D9F1DA3019201C5
:1035300004C056954795379527958A95D2F7EC8123
:10354000FD8120FF04C080812981822B03C08081FE
:103550002A818223808360E08091D9040E946F1FBA
:10356000C12CD12C37E0301B3B838091DB0490E0F1
:10357000C816D90604F5C114D10459F44B816091E1
:10358000DA048091D8040E94331AEC81FD814081D5
:1035900008C040E06091DA048091D8040E94331A98
:1035A00040E06091DA048091D8040E94331AFFEF62
:1035B000CF1ADF0ADACF60E08091D9040E946F1F32
:1035C00061E08091D9040E946F1F0F5F1F4F2C8113
:1035D0003D81215031093D832C830630110509F0CE
:1035E000A2CF31E0231A310846E0E40EF11C5EE17F
:1035F000E516F10409F083CF0F900F900F900F9014
:103600000F90DF91CF911F910F91FF90EF90DF907E
:10361000CF90BF90AF909F908F907F906F905F9072
:103620004F903F902F900895CF93DF93CDB7DEB7A3
:10363000CC57D1090FB6F894DEBF0FBECDBF2CE733
:10364000E9EFF1E0DE01119601900D922A95E1F784
:10365000660F771F660F771FE1E0F0E0EC0FFD1FAC
:10366000E60FF71F6081718182819381C458DF4F1B
:103670000FB6F894DEBF0FBECDBFDF91CF910C9493
:103680005D1ABF92CF92DF92EF92FF920F931F933A
:10369000CF93DF93C0E0D0E060E08091D9040E9436
:1036A0006F1F0CED14E06801E12CF12CBC2EB394DB
:1036B0008091DB0490E0E816F906B4F44B2D60919C
:1036C000DA048091D8040E94331A40E06091DA0451
:1036D0008091D8040E94331AF6011082FFEFEF1A8E
:1036E000FF0ACC0EDD1EE4CF60E08091D9040E9479
:1036F0006F1F61E08091D9040E946F1F2196C8302E
:10370000D10551F6F80111928F01F5E00C321F0737
:10371000C9F7DF91CF911F910F91FF90EF90DF904C
:10372000CF90BF9008952F923F924F925F926F92E9
:103730007F928F929F92AF92BF92CF92DF92EF9241
:10374000FF920F931F93CF93DF93CDB7DEB72897E8
:103750000FB6F894DEBF0FBECDBF9A8389837C83FA
:103760006B835E834D831901270138010E94401449
:1037700080910906811110920906C301B2010E94CD
:10378000112D4B015C016B011616170684F1B40173
:10379000990C880B990B0E94492D9B01AC01C30128
:1037A000B2010E942D2C7B018C0191014D815E8123
:1037B0006B817C8189819A810E94FA1528960FB6C7
:1037C000F894DEBF0FBECDBFDF91CF911F910F9157
:1037D000FF90EF90DF90CF90BF90AF909F908F9031
:1037E0007F906F905F904F903F902F900895188634
:1037F0001F82E12CF12C00E81FE391014D815E81D5
:103800006B817C8189819A810E94FA158F819885CC
:10381000019698878F838C159D0559F7B8CFEF9245
:10382000FF920F931F93CF93DF93CDB7DEB7A0978F
:103830000FB6F894DEBF0FBECDBFAC0198E0FE011D
:103840007996DF01892F1D928A95E9F724E130E00E
:103850003E8F2D8F38A32F8FBE016F5E7F4FDB0110
:103860001D929A95E9F73E8B2D8B8CEE9FEF988FEA
:103870008F8B9E012F5F3F4F80E1D9011D928A956A
:10388000E9F7E12CF12C00E81FE3CF010E94931B24
:10389000A0960FB6F894DEBF0FBECDBFDF91CF91DB
:1038A0001F910F91FF90EF900895CF92DF92EF92CA
:1038B000FF92CF93DF93CDB7DEB7C057D1090FB6D4
:1038C000F894DEBF0FBECDBF20E2E5E7F2E0DE01F7
:1038D000999601900D922A95E1F720E1E5E9F2E051
:1038E000DE01AF59BF4F01900D922A95E1F728E113
:1038F000E5EAF2E0DE01A75BBF4F01900D922A9549
:10390000E1F728E2EDEBF2E0DE01119601900D9275
:103910002A95E1F761307105F9F08CF4672B89F590
:10392000440F551F440F551FE1E0F0E0EC0FFD1F61
:10393000E40FF51FC0A4D1A4E2A4F3A422C0623016
:10394000710589F063307105E1F4440F551F440F90
:10395000551FE1E0F0E00DC0440F551F440F551F07
:10396000E1E6F0E006C0440F551F440F551FE9E49F
:10397000F0E0EC0FFD1FE40FF51FC080D180E28066
:10398000F380C701B601C059DF4F0FB6F894DEBF10
:103990000FBECDBFDF91CF91FF90EF90DF90CF9022
:1039A0000C945D1A2F923F924F925F926F927F928A
:1039B0008F929F92AF92BF92CF92DF92EF92FF923F
:1039C0000F931F93CF93DF93CDB7DEB7A0970FB6BA
:1039D000F894DEBF0FBECDBF1B012C014A0188E069
:1039E0006E0199E1C90ED11CF601982F11929A959A
:1039F000E9F749E150E05A8F498F5C8F4B8F3E8F3A
:103A00002D8F38A32F8F5E01E1E1AE0EB11CF501C1
:103A100011928A95E9F7C90137FD01969595879529
:103A200004969E8B8D8B37FF02C02F5F3F4F3595DD
:103A3000279531952195310924503109388F2F8BE5
:103A4000CE0101963C0180E1F30111928A95E9F7DC
:103A500080E090E0A4EBB2E489839A83AB83BC83DB
:103A60008D839E83AF83B88724EC2003B001219F10
:103A7000700D1124072E000C880B990B0E94492D04
:103A80002BED3FE049E450E40E94FE2D20E030E0C1
:103A900044E353E40E949F2C6D877E878F87988B29
:103AA000820171019301A401B501C6010E94931B1B
:103AB000A0960FB6F894DEBF0FBECDBFDF91CF91B9
:103AC0001F910F91FF90EF90DF90CF90BF90AF903C
:103AD0009F908F907F906F905F904F903F902F902E
:103AE00008953FB7F8948091770890917808A09155
:103AF0007908B0917A0826B5A89B05C02F3F19F028
:103B00000196A11DB11D3FBFBA2FA92F982F88275D
:103B1000820F911DA11DB11DBC01CD0142E0660FB8
:103B2000771F881F991F4A95D1F70895CF92DF928A
:103B3000EF92FF920F931F93CF93DF936C017A0163
:103B40008B01C0E0D0E0CE15DF0589F0D8016D9182
:103B50008D01D601ED91FC910190F081E02DC6011F
:103B60000995892B11F47E0102C02196ECCFC70183
:103B7000DF91CF911F910F91FF90EF90DF90CF9049
:103B800008951F93CF93DF93209137063091380625
:103B90002E30310504F5EB01BC0115E2129FC00186
:103BA000139F900D112443E250E0875C994F0E94CF
:103BB000562F8091370690913806189FF001199F73
:103BC000F00D1124E45AF94FD183C08301969093EC
:103BD000380680933706DF91CF911F91089545E312
:103BE00056E060E376E080E090E00C943B2B6F922F
:103BF0007F928F929F92AF92BF92CF92DF92EF927D
:103C0000FF920F931F93CF93DF93CDB7DEB7A097AB
:103C10000FB6F894DEBF0FBECDBF3C018B0188E02C
:103C20006E0199E1C90ED11CF601982F11929A9557
:103C3000E9F72CE030E03A8F298F3C8F2B8F2EE173
:103C400030E03E8F2D8F38A32F8F5E01E1E1AE0E65
:103C5000B11CF50111928A95E9F784E190E09E8B01
:103C60008D8B8CEE9FEF988F8F8BCE0101964C0140
:103C700080E1F40111928A95E9F78BED9FE0A9E4C8
:103C8000B0E48D839E83AF83B88726EA2003B0011A
:103C9000219F700D1124072E000C880B990B0E9498
:103CA000492D2BED3FE049E450E40E94FE2D20E039
:103CB00030E044E353E40E949F2C69877A878B8726
:103CC0009C878AE5809FB001819F700D1124072E8B
:103CD000000C880B990B0E94492D2BED3FE049E425
:103CE00050E40E94FE2D20E030E044E353E40E94C3
:103CF0009F2C6D877E878F87988BE12CF12C00E8B5
:103D00001FE39401A301B501C6010E94931BA09675
:103D10000FB6F894DEBF0FBECDBFDF91CF911F91DC
:103D20000F91FF90EF90DF90CF90BF90AF909F905A
:103D30008F907F906F900895EF92FF920F931F9353
:103D4000CF93DF93CDB7DEB7A0970FB6F894DEBF61
:103D50000FBECDBFAC0198E0E5EEF2E0DE01599672
:103D600001900D929A95E1F798E0EDEEF2E0DE0118
:103D7000519601900D929A95E1F790E1E5EFF2E00E
:103D8000DE01119601900D929A95E1F7613071056F
:103D900039F48EE190E09A8F898F8AE090E006C036
:103DA0008AE090E09A8F898F8EE190E09C8F8B8FD4
:103DB000E12CF12C00E81FE39E012F5F3F4FBE0175
:103DC0006F5E7F4FCE0149960E94931BA0960FB65F
:103DD000F894DEBF0FBECDBFDF91CF911F910F9141
:103DE000FF90EF900895AF92BF92CF92DF92EF9243
:103DF000FF920F931F93CF93DF93CDB7DEB7A097BA
:103E00000FB6F894DEBF0FBECDBF5C019B0188E00A
:103E1000E5EEF2E0DE01599601900D928A95E1F708
:103E200088E0EDEEF2E0DE01519601900D928A9568
:103E3000E1F7CE0101966C0180E1F60111928A95BD
:103E4000E9F746EA4203B001439F700D1124072EA3
:103E5000000C880B990B0E94492D2BED3FE049E4A3
:103E600050E40E94FE2D20E030E044E353E40E9441
:103E70009F2C69877A878B879C876D877E878F8742
:103E8000988BE12CF12C00E81FE39601A501BE01FF
:103E90006F5E7F4FCE0149960E94931BA0960FB68E
:103EA000F894DEBF0FBECDBFDF91CF911F910F9170
:103EB000FF90EF90DF90CF90BF90AF900895DC011E
:103EC000EC91F0E0CF01880F991FE80FF91FED5436
:103ED000FB4F808186FF02C08F7B8083089590E036
:103EE000FC01EC54FE4F3491FC01EA56FE4F249144
:103EF000FC01EE57FE4FE491EE2309F43BC033235F
:103F000039F1333091F038F43130A9F0323001F525
:103F100084B58F7D12C0373091F03830A1F0343045
:103F2000B9F4809180008F7D03C0809180008F77ED
:103F3000809380000DC084B58F7784BD09C08091C7
:103F4000B0008F7703C08091B0008F7D8093B00068
:103F5000F0E0EE0FFF1FE259FE4FA591B4918FB72D
:103F6000F894EC91611103C020952E2301C02E2BF3
:103F70002C938FBF08950F931F93CF93DF93182F28
:103F8000062F60E08091D9040E946F1FC0E0D0E04E
:103F90002091DB0430E0C217D30784F4412F6091F5
:103FA000DA048091D8040E94331A402F6091DA0419
:103FB0008091D8040E94331A2196EACF60E0809164
:103FC000D9040E946F1F61E08091D904DF91CF91E5
:103FD0001F910F910C946F1FCF93DF9390E0FC0122
:103FE000EA56FE4F2491FC01EE57FE4F8491882340
:103FF00061F190E0880F991FFC01E655FE4FC591D5
:10400000D491FC01E259FE4FA591B491611109C010
:104010009FB7F8948881209582238883EC912E2382
:104020000BC0623061F49FB7F8943881822F80957D
:1040300083238883EC912E2B2C939FBF06C08FB7D0
:10404000F894E8812E2B28838FBFDF91CF910895BC
:104050008E3008F08E508770806480937C00809151
:104060007A00806480937A0080917A0086FDFCCF8C
:10407000809178002091790090E0922B08958F92A2
:104080009F92AF92BF92CF92DF92EF92FF926B011D
:104090007C010E94711D4B015C01C114D104E1043B
:1040A000F104F1F00E94711DDC01CB01881999091E
:1040B000AA09BB09883E9340A105B10570F321E030
:1040C000C21AD108E108F10888EE880E83E0981E34
:1040D000A11CB11CC114D104E104F10419F7DDCF16
:1040E000FF90EF90DF90CF90BF90AF909F908F9018
:1040F0000895EF92FF920F931F93CF93DF93CDB765
:10410000DEB7A0970FB6F894DEBF0FBECDBF28E094
:10411000E5E0F3E0DE01599601900D922A95E1F772
:1041200028E0EDE0F3E0DE01519601900D922A9532
:10413000E1F728E0E5E1F3E0DE01199601900D9248
:104140002A95E1F728E0EDE1F3E0DE011196019018
:104150000D922A95E1F76F3F7F4FA1F421E930E0FE
:104160003E8F2D8F2AE730E038A32F8F4CE350E0AD
:104170005E8B4D8B388F2F8B48E750E05E874D87E5
:10418000388B2F878C01085E1340003981E01807B7
:1041900014F400E911E0BE01675E7F4F84EF91E007
:1041A0000E946014BE016F5E7F4F84EF91E00E9419
:1041B00060147801F594E794F594E794BE01675F85
:1041C0007F4FC7010E946014BE016F5E7F4FC70121
:1041D0000E946014BE01675F7F4FC7010E94601498
:1041E000BE016F5E7F4FC7010E946014BE016F5F0A
:1041F0007F4F84EF91E00E946014B801110F880B8B
:10420000990B0E943F20A0960FB6F894DEBF0FBE18
:10421000CDBFDF91CF911F910F91FF90EF90089547
:104220000F931F93CF93DF93CDB7DEB768970FB689
:10423000F894DEBF0FBECDBF8C0188E0E5E2F3E06D
:10424000DE01519601900D928A95E1F788E0EDE24A
:10425000F3E0DE01199601900D928A95E1F788E06E
:10426000EDE1F3E0DE01119601900D928A95E1F700
:104270006F3F7F4F71F481E990E09E8B8D8B88E7D3
:1042800090E0988F8F8B2BE430E03E872D87988BC2
:104290008F87BE016F5E7F4F80E991E00E946014BE
:1042A000BE01675F7F4F80E991E00E946014B80112
:1042B000110F880B990B0E94492D2DEC3CEC4CE41E
:1042C0005FE30E94FE2D0E94182D0E943F20BE0138
:1042D0006F5F7F4F84EF91E00E94601468960FB685
:1042E000F894DEBF0FBECDBFDF91CF911F910F912C
:1042F00008952FB7F89460917308709174088091B5
:104300007508909176082FBF08951F920F920FB6EF
:104310000F9211242F933F938F939F93AF93BF934B
:104320008091730890917408A0917508B0917608F7
:104330003091720823E0230F2D3720F40196A11D40
:10434000B11D05C026E8230F0296A11DB11D2093C3
:1043500072088093730890937408A0937508B093C3
:1043600076088091770890917808A0917908B091AB
:104370007A080196A11DB11D809377089093780863
:10438000A0937908B0937A08BF91AF919F918F91D4
:104390003F912F910F900FBE0F901F9018951F9275
:1043A0000F920FB60F9211242F933F934F935F9369
:1043B0006F937F938F939F93AF93BF93EF93FF93ED
:1043C0008091120490911304A0911404B0911504EB
:1043D000892B8A2B8B2B59F180910F04E0911004CB
:1043E000F09111049081892780838091120490912B
:1043F0001304A0911404B0911504181619061A0696
:104400001B060CF03DC08091120490911304A09102
:104410001404B09115040197A109B1098093120405
:1044200090931304A0931404B093150429C08091B1
:104430000401EDE6F1E0E4919FEF90930401E13097
:10444000B9F098F0E230C9F4909170009D7F90939C
:10445000700091E09093B0009091B100987F9460CB
:104460009093B1001092B30008C010926E0005C086
:1044700090916F009D7F90936F0060E00E946F1F8E
:10448000FF91EF91BF91AF919F918F917F916F912C
:104490005F914F913F912F910F900FBE0F901F9002
:1044A0001895DC01ED91FC910190F081E02D0994CB
:1044B0006115710579F0FB0101900020E9F7319752
:1044C000AF01461B570BDC01ED91FC910280F3819B
:1044D000E02D099480E090E00895CF93DF93BC0134
:1044E00086E194E00E945822EC0161EC73E086E1E1
:1044F00094E00E9458228C0F9D1FDF91CF91089568
:104500004F925F926F927F92EF92FF920F931F9361
:10451000CF93DF93CDB7DEB7A1970FB6F894DEBF88
:104520000FBECDBF7C01FA01CB0119A2223008F4E5
:104530002AE08E010F5D1F4F422E512C612C712CF1
:10454000BF01A30192010E94932BF901CA010150FE
:1045500011096A3014F4605D01C0695CD8016C9384
:10456000232B242B252B61F7B801C7010E94582269
:10457000A1960FB6F894DEBF0FBECDBFDF91CF91ED
:104580001F910F91FF90EF907F906F905F904F90F1
:104590000895CF92DF92EF92FF92CF93DF936C0159
:1045A000990FEE08FF08F7FE16C06DE286E194E071
:1045B0000E945122EC0144275527BA014C195D098C
:1045C0006E097F092AE086E194E00E9480227C0146
:1045D000EC0EFD1E08C02AE0B701A60186E194E0BA
:1045E0000E9480227C0161EC73E086E194E00E94ED
:1045F00058228E0D9F1DDF91CF91FF90EF90DF909D
:10460000CF900895CF92DF92EF92FF920F931F9376
:10461000CF93DF93CDB7DEB7A0970FB6F894DEBF88
:104620000FBECDBF28E06E0139E1C30ED11CD6010B
:10463000E22F1D92EA95E9F77E8F6D8F78A36F8F39
:10464000DE015196FD0111922A95E9F79B0177FF52
:1046500002C02F5F3F4F359527953E8B2D8B9B01D9
:1046600077FF02C02F5F3F4F3595279531952195F4
:104670003109388F2F8B9E012F5F3F4F40E1F901A9
:1046800011924A95E9F7E12CF12C00E81FE3AC0107
:10469000BD01C6010E94931BA0960FB6F894DEBF21
:1046A0000FBECDBFDF91CF911F910F91FF90EF9083
:1046B000DF90CF900895CF92DF92EF92FF920F9309
:1046C0001F93E82FF92F05C0015011092109310965
:1046D00061F1908196239417B9F305C00150110937
:1046E0002109310911F1908196239413F7CFC12C40
:1046F000D12CE12CF12C0AC08FEFC81AD80AE80A95
:10470000F80A0C151D052E053F0579F080818623DA
:10471000841791F36C2D7D2D8E2D9F2D1F910F9160
:10472000FF90EF90DF90CF90089560E070E080E020
:1047300090E01F910F91FF90EF90DF90CF90089540
:104740008DEE91E0909346088093450885E498E0CB
:104750000C947D04CF93DF93CDB7DEB7A0970FB64F
:10476000F894DEBF0FBECDBF789484B5826084BD5F
:1047700084B5816084BD85B5826085BD85B5816065
:1047800085BD80916E00816080936E0010928100E3
:10479000809181008260809381008091810081609E
:1047A000809381008091800081608093800080915F
:1047B000B10084608093B1008091B00081608093EB
:1047C000B00080917A00846080937A0080917A00B2
:1047D000826080937A0080917A00816080937A0071
:1047E00080917A00806880937A001092C1001092C4
:1047F000600810925F0810925E0810925D08109297
:104800005C0810925B088DE991E0909362088093B8
:10481000610890915108963108F057C02DEB30E0B7
:1048200030935C0820935B082BE931E030935E08FD
:1048300020935D082CE231E03093600820935F08FC
:1048400020916800983050F031E09E3008F430E05C
:1048500081E001C0880F3A95EAF701C084E0822B1D
:1048600080936800983038F09E3040F0963148F0E0
:1048700020E030E008C02DE630E005C02BE630E057
:1048800002C02CE630E03093590820935808983045
:1048900030F481E001C0880F9A95EAF70EC0292F05
:1048A00030E09E3018F42850310902C02E503109F2
:1048B00081E001C0880F2A95EAF780935A08809119
:1048C0006108909162080197F1F780915F089091DB
:1048D0006008892B21F1809107049091080428E059
:1048E00085349207E1F0009711F00E947D048091D9
:1048F00063088E7F8093630810920604109205046B
:1049000085E498E09093080480930704E0915808A8
:10491000F0915908908180915A08892B8083E09109
:104920002604F091270482E08083E0912204F09134
:1049300023041082E0912404F09125048FEC8083FD
:1049400010922E04E0912A04F0912B0486E08083DB
:10495000E0912804F0912904808180618083E091B6
:104960002804F0912904808188608083E0912804E4
:10497000F0912904808180688083E0912804F0917F
:10498000290480818F7D808382E090E09093D6051A
:104990008093D50583E090E09093D8058093D70568
:1049A00084E090E09093DA058093D90585E090E06B
:1049B0009093DC058093DB050E9440141092090659
:1049C00085E693E00E946D227CE3E72E75E0F72EEA
:1049D00000E010E0C8010E946D2B682F70E0613884
:1049E00071050CF07A95D7016D937C9386E194E084
:1049F0000E94C4156CE773E086E194E00E9458229F
:104A00000F5F1F4FB9E2EB0EF11C0430110511F7D7
:104A10008AE590E09093E6058093E5059093E8059C
:104A20008093E7059093EA058093E9059093EC0560
:104A30008093EB0588E090E09093D2058093D105B8
:104A400089E090E09093D4058093D30561E088E0FD
:104A50000E94EC1F60E08091D3050E94EC1F8DE066
:104A600090E09093EE058093ED0584E190E09093C3
:104A7000F0058093EF0561E08DE00E94EC1F60E09F
:104A800084E10E94EC1F61E08091D8040E94EC1F39
:104A900061E08091DA040E94EC1F61E08091D9040A
:104AA0000E94EC1F61E08091DA040E946F1F67E0B2
:104AB0008BE00E94BB1F60E089E00E94BB1F61E0A9
:104AC0008CE00E94BB1F60E08FE00E94BB1F0E9431
:104AD000411B6FE08AE00E94BB1F61E08AE00E94F8
:104AE000BB1F8FE793E00E946D2284E10E94282083
:104AF000BC01990F880B990B611571058105910512
:104B000011F00E94F9296FEC77E080E993E00E94B0
:104B1000C11D69EE75E082E993E00E94C11D66E85F
:104B200077E084E993E00E94C11D6FE973E08AE7B2
:104B300093E00E94C11D6CE676E086E993E00E9456
:104B4000C11D65E176E088E993E00E94C11D62E243
:104B500077E08AE993E00E94C11D68EB76E08CE97A
:104B600093E00E94C11D67E973E08EE993E00E9423
:104B7000C11D6CED71E080EA93E00E94C11D65E10A
:104B800073E082EA93E00E94C11D6DED72E084EA59
:104B900093E00E94C11D64E172E086EA93E00E9406
:104BA000C11D68EC71E088EA93E00E94C11D8FECA2
:104BB00097E09093400880933F0880E090E00E9447
:104BC00041170E94981562E370E080E090E00E9437
:104BD0003F208AEA93E00E946D220E94DC0162E39A
:104BE00070E080E090E00E943F200E94C80162E3F4
:104BF00070E080E090E00E943F200E94140287EB6A
:104C000093E00E946D220E94E11320E030E044E333
:104C100052E40E949A2C87FF34C033E0832E912CFB
:104C200048E0A42EB12CC12CD12C18EBE12E1EE1B2
:104C3000F12E05E81FE320E030E04AEF54E460E0A5
:104C400070E08CE594E40E9450136EE170E080E027
:104C500090E00E943F201CE5E12E1FE8F12E02E8C3
:104C60001FE320E030E04CE554E460E070E08AEFC0
:104C700094E40E94501364EF71E080E090E00E94A1
:104C80003F2080E090E00E94D5078BE090E00E94FA
:104C9000411768EC70E080E090E00E943F200E94A5
:104CA000792160930B0470930C0480930D0490930E
:104CB0000E0425E2322E6E01E1E1CE0ED11C9E01E2
:104CC0002F5F3F4F59012E0139E1430E511C85E4FE
:104CD00098E00E947D01181619060CF0A1C111E0A0
:104CE0008091410890914208DC01ED91FC91048093
:104CF000F581E02D0995181619062CF0809109060A
:104D000081118EC103C011118EC1F8CFE091090449
:104D1000F0910A04E531F10508F082C1EF59FF4F27
:104D20000C94342F0E94981579C161E070E002C0A4
:104D30006FEF7FEF80910201909103010E94F31EBB
:104D40006DC161E070E002C06FEF7FEF8091020102
:104D5000909103010E949C1E61C1409102015091FB
:104D6000030128E0F201322F11923A95E9F78EE122
:104D700090E09E8F8D8F98A38F8FD6011D922A95DC
:104D8000E9F79E8B8D8B82EE9FEF988F8F8B80E162
:104D9000E1E9F1E035C18EE190E09093010180936B
:104DA0000001409102015091030128E0F201322FED
:104DB00011923A95E9F79E8F8D8F98A38F8FD60128
:104DC0001D922A95E9F781E190E09E8B8D8B8FEE05
:104DD0009FEF988F8F8B80E1F50111928A95E9F70B
:104DE0008BED9FE0A9ECBFEB89879A87AB87BC87E7
:104DF00087E39DE8A7E2B0EC31C08EE190E09093AC
:104E0000010180930001409102015091030128E0CB
:104E1000D201E22F1D92EA95E9F79E8F8D8F98A31C
:104E20008F8FD6011D922A95E9F781E190E09E8B44
:104E30008D8B8FEE9FEF988F8F8B80E1F501119214
:104E40008A95E9F78BED9FE0A9ECBFE389879A8704
:104E5000AB87BC8787E39DE8A7E2B0E48D879E8798
:104E6000AF87B88BD2C08EE190E090930101809320
:104E700000016EE170E080910201909103010E94B7
:104E80000223CCC08EE190E0909301018093000159
:104E9000409102015091030101E010E00CC08EE14D
:104EA00090E09093010180930001409102015091A4
:104EB00003010FEF1FEF2EE130E060E070E080E8CB
:104EC0009FE30E94D21CAAC000910201109103012D
:104ED00088E0E1EAF1E0D60101900D928A95E1F7D0
:104EE000B601C8010E94601488E0E9EAF1E0D5014A
:104EF00001900D928A95E1F7B501C8010E946014F6
:104F00008DC08EE190E0909301018093000161E0FB
:104F100070E008C08EE190E0909301018093000161
:104F20006FEF7FEF80910201909103010E94F71DC6
:104F300075C084E190E0909301018093000180911D
:104F40000201909103010E940F1C68C061E070E0B3
:104F500002C06FEF7FEF80910201909103010E94E8
:104F600010215CC061E070E002C06FEF7FEF8091C4
:104F70000201909103010E94792050C08EE190E0DF
:104F8000909301018093000140910201509103012F
:104F900088E0D201E82F1D92EA95E9F729E130E097
:104FA0003A8F298F3C8F2B8FD6011D928A95E9F776
:104FB00080E1E1EBF1E024C08EE190E0909301010B
:104FC0008093000140910201509103018DE090E037
:104FD0009A8F898F9C8F8B8F9E8F8D8F98A38F8FA9
:104FE00088E0F60111928A95E9F781E190E09E8BC5
:104FF0008D8B87EF9FEF988F8F8B80E1E1ECF1E055
:10500000D50101900D928A95E1F7E12CF12C00E891
:105010001FE39501B601C2010E94931B0E94D705B0
:105020000E947D0F54CE8091410890914208DC018E
:10503000ED91FC910680F781E02D099580930A0699
:1050400090913206891348C010922F0610922E06B6
:1050500045E356E060E376E08BE096E00E943B2B70
:105060007C019093340680933306892B09F446CE55
:10507000609037067090380699E3892E96E0992E55
:1050800000E010E0061517050CF04DC043E250E0BB
:10509000B401C7010E94482FA5E28A0E911C892BFA
:1050A000C1F4309EF001319EF00D1124E45AF94F05
:1050B0000190F081E02D0995EBE0F6E01192B6E069
:1050C000EE32FB07D9F710922F0610922E0610E051
:1050D00003C00F5F1F4FD6CF00910A06802F002E0E
:1050E000000C990B0E94412F892B09F4F9CD809176
:1050F0002E0690912F069C012F5F3F4F30932F0675
:1051000020932E06FC01E65FF94F0183F901E65F6B
:10511000F94F1182233231050CF4E2CD10922F06A3
:1051200010922E06DDCDE0913F08F09140080995E0
:10513000EBE0F6E0119226E0EE32F207D9F7C3CFAA
:10514000109219041092180488EE93E0A0E0B0E0E9
:1051500080931A0490931B04A0931C04B0931D0425
:105160002DED31E0309317042093160425EC30E048
:10517000309323042093220424EC30E03093250460
:105180002093240420EC30E030932704209326045D
:1051900021EC30E0309329042093280422EC30E005
:1051A00030932B0420932A0426EC30E030932D0416
:1051B00020932C0410922F0410923004109231048A
:1051C00010923204109248081092470880934908C0
:1051D00090934A08A0934B08B0934C088DEE91E051
:1051E000909346088093450810925C0810925B08E3
:1051F00010925E0810925D081092600810925F088D
:105200001092620810926108609163086E7F6D7F52
:10521000609363086695617081E0682786E00E946C
:105220006F1F61E086E00E94EC1FECE9F1E0E49181
:10523000E0935508E8E8F1E0E491F0E0EE0FFF1F9D
:10524000E259FE4F859194919093570880935608A8
:1052500060E087E00E94EC1F8091630881FD04C03C
:1052600061E087E00E946F1F87E080935108EDE9BD
:10527000F1E0E491E0935208E9E8F1E0E491F0E034
:10528000EE0FFF1FE858FE4F8591949190935408BC
:105290008093530881E090E0909344088093430802
:1052A00085E498E0909342088093410880E290E082
:1052B00090933106809330068DE0809332061092F1
:1052C000380610923706EBE0F6E0119226E0EE3257
:1052D000F207D9F710922F0610922E068AE08093DB
:1052E000D8048BE08093D9048CE08093DA0481E0C9
:1052F0008093DB04ECEDF4E0119285E0EC32F807EA
:10530000D9F78091D704EDE2F5E09FEF48EB5BE041
:105310008C3088F48083282F30E0D901AA0FBB1F7E
:105320002A0F3B1FD901AD54BB4F12965C934E938D
:1053300011978F5F01C09083108A1786B99625E078
:10534000E13DF20729F78093D70408958F929F9249
:10535000AF92BF92CF92DF92EF92FF92CF93DF9303
:10536000EC01688179818A819B81611571058105D4
:10537000910521F464E279ED8BE597E02DE133EFBF
:1053800041E050E00E94B52B49015A019B01AC015C
:10539000A7EAB1E40E94D42B6B017C01ACEEB4EF20
:1053A000A50194010E94E22BDC01CB018C0D9D1D17
:1053B000AE1DBF1DB7FF03C00197A109B048888388
:1053C0009983AA83BB83BC01CD019F77DF91CF91E5
:1053D000FF90EF90DF90CF90BF90AF909F908F9015
:1053E00008950E94A629089585E091E00E94A629CB
:1053F00008956093050170930601809307019093CF
:1054000008010895A6E0B0E0E8E0FAE20C94E72B8A
:105410005C016B017A016115710519F0DB018D9357
:105420009C93E114F10429F0C7010297839708F0D7
:10543000DCC03501BFEF6B1A7B0AF5011081812FAB
:1054400090E00E94322B892B11F05301F2CF1D32D4
:1054500049F43501F2E06F0E711CD50111961C91D3
:1054600001E009C01B3231F43501B2E06B0E711C52
:10547000F501118100E0E114F10409F4C4C0F0E188
:10548000EF16F10489F4103399F5D3018C918F7DD7
:10549000883509F0B2C011961C91B2E06B0E711CF8
:1054A000026050E1E52EF12CEAE0EE16F10409F479
:1054B000B0C0F0E1EF16F104D9F028E0E216F104F3
:1054C00051F438E0E32EF12C88248A94982CA82CEF
:1054D0004FE1B42E13C06FEF7FEFCB0197010F2C7C
:1054E000000C440B550B0E94932B49015A0106C036
:1054F00088248A94982CA82C2FE0B22E7E826D826C
:1055000060E020E030E0A90127010F2C000C6608C4
:1055100077082D803E80E0EDE10FEA3060F08FEB00
:10552000810F8A3110F4E9EC05C08FE9810F8A31CF
:1055300090F5E9EAE10F8E2F90E08E159F055CF55E
:105540006F3F09F182169306A406B506D8F0C30191
:10555000B2010E94832B2E2F30E040E050E02983DF
:105560003A834B835C83260F371F481F591F89815D
:105570009A81AB81BC81281739074A075B0710F075
:1055800061E001C06FEFED81FE813196FE83ED8316
:10559000D1011C91BECFC114D10489F0662339F02A
:1055A0008D819E810197F6019183808308C001FF60
:1055B00006C08D819E810297D6018D939C9300FF3A
:1055C00007C050954095309521953F4F4F4F5F4F05
:1055D00067FF10C082E290E090937C0880937B0884
:1055E0006FEF7FEF8FEF9FEF1BC060E070E080E018
:1055F00090E016C0B901CA0113C010E3E114F10430
:1056000009F45FCF51CF103309F43FCF9AE0E92E70
:10561000F12C89E9882E982CA82C89E1B82E6ECF20
:105620002696E2E10C94032CFC0188279927E89444
:1056300021912032E9F3293010F02E30C8F32B32BB
:1056400041F02D3239F4689404C00E94622B820F1D
:10565000911D219120532A30C0F31EF4909581951D
:105660009F4F089591110C946A2B803219F0895044
:105670008550C8F70895FA01A191B081009719F4F7
:105680001097E1F0CD01DC01CD010D90002011F467
:10569000C00113C0FB012191222319F02015D9F775
:1056A000F3CFFB012191201519F41E92119606C02B
:1056B0002223C1F70D900020A1F7D001FA01A19398
:1056C000B08308957AE0979F902D879F802D910D4C
:1056D00011240895992788270895F999FECF92BD3E
:1056E00081BDF89A992780B50895262FF999FECFA4
:1056F0001FBA92BD81BD20BD0FB6F894FA9AF99AEF
:105700000FBE01960895DB018F939F930E94D42BC7
:10571000BF91AF91A29F800D911DA39F900DB29F4D
:10572000900D11240895A1E21A2EAA1BBB1BFD01A6
:105730000DC0AA1FBB1FEE1FFF1FA217B307E40770
:10574000F50720F0A21BB30BE40BF50B661F771FC8
:10575000881F991F1A9469F76095709580959095A8
:105760009B01AC01BD01CF010895052E97FB1EF4EE
:1057700000940E94CC2B57FD07D00E94932B07FC6E
:1057800003D04EF40C94CC2B509540953095219538
:105790003F4F4F4F5F4F089590958095709561955D
:1057A0007F4F8F4F9F4F08950E941E2CA59F900DF5
:1057B000B49F900DA49F800D911D11240895B7FFF3
:1057C0000C94D42B0E94D42B821B930B08952F9200
:1057D0003F924F925F926F927F928F929F92AF9281
:1057E000BF92CF92DF92EF92FF920F931F93CF93CE
:1057F000DF93CDB7DEB7CA1BDB0B0FB6F894DEBF65
:105800000FBECDBF09942A88398848885F846E848A
:105810007D848C849B84AA84B984C884DF80EE80D4
:10582000FD800C811B81AA81B981CE0FD11D0FB6DD
:10583000F894DEBF0FBECDBFED010895A29FB00169
:10584000B39FC001A39F700D811D1124911DB29FB4
:10585000700D811D1124911D08955058BB27AA2752
:105860000E94452C0C94BF2D0E94B12D38F00E944F
:10587000B82D20F039F49F3F19F426F40C94AE2D86
:105880000EF4E095E7FB0C94A82DE92F0E94D02D93
:1058900058F3BA17620773078407950720F079F465
:1058A000A6F50C94F22D0EF4E0950B2EBA2FA02D38
:1058B0000B01B90190010C01CA01A0011124FF27BD
:1058C000591B99F0593F50F4503E68F11A16F040B8
:1058D000A22F232F342F4427585FF3CF46953795B7
:1058E0002795A795F0405395C9F77EF41F16BA0B7C
:1058F000620B730B840BBAF09150A1F0FF0FBB1F2A
:10590000661F771F881FC2F70EC0BA0F621F731F72
:10591000841F48F4879577956795B795F7959E3FCF
:1059200008F0B0CF9395880F08F09927EE0F979560
:10593000879508950E94842D08F481E008950E94BF
:10594000B32C0C94BF2D0E94B82D58F00E94B12D9D
:1059500040F029F45F3F29F00C94A82D51110C94CC
:10596000F32D0C94AE2D0E94D02D68F39923B1F342
:10597000552391F3951B550BBB27AA276217730775
:10598000840738F09F5F5F4F220F331F441FAA1F09
:10599000A9F335D00E2E3AF0E0E832D091505040C5
:1059A000E695001CCAF72BD0FE2F29D0660F771F73
:1059B000881FBB1F261737074807AB07B0E809F059
:1059C000BB0B802DBF01FF2793585F4F3AF09E3FDE
:1059D000510578F00C94A82D0C94F32D5F3FE4F35F
:1059E000983ED4F3869577956795B795F7959F5F21
:1059F000C9F7880F911D9695879597F90895E1E06D
:105A0000660F771F881FBB1F621773078407BA07CB
:105A100020F0621B730B840BBA0BEE1F88F7E09526
:105A200008950E94182D6894B1110C94F32D0895D7
:105A30000E94D82D88F09F5798F0B92F9927B75119
:105A4000B0F0E1F0660F771F881F991F1AF0BA9522
:105A5000C9F714C0B13091F00E94F22DB1E0089561
:105A60000C94F22D672F782F8827B85F39F0B93F53
:105A7000CCF3869577956795B395D9F73EF49095D5
:105A80008095709561957F4F8F4F9F4F0895E89453
:105A900009C097FB3EF490958095709561957F4F76
:105AA0008F4F9F4F9923A9F0F92F96E9BB27939524
:105AB000F695879577956795B795F111F8CFFAF434
:105AC000BB0F11F460FF1BC06F5F7F4F8F4F9F4F65
:105AD00016C0882311F096E911C0772321F09EE8C3
