:100000000C94E6000C940E010C940E010C940F0459
:100010000C940F040C940F040C940E010C947F1D8F
:100020000C940E010C940E010C940E010C942205FC
:100030000C940E010C940E010C940E010C940E0104
:100040000C94351D0C940E010C9456190C94301917
:100050000C940E010C940E010C940E010C940E01E4
:100060000C940E010C940E013C063F064206450618
:1000700048064B064E065106540657065A065D06BC
:1000800060066306660669066C066F0672069A06C7
:100090009D06A006A306A606A906AC06AF06B206F4
:1000A000B506B806BB06BE068A08A908D2084609E6
:1000B000D709470A590A760A040B550B190C940DF7
:1000C0003D0EF51418153D156B1582159915BC15C7
:1000D000E8151716461675169F16C416F2161D1744
:1000E000341775178C17A317A427A727AA27B32798
:1000F000B627BF27DD270F284528542861287628F2
:1001000093289C28AB28B828BB28C428C728D02807
:10011000EE2805A84CCDB2D44EB93836A9020C5001
:10012000B9918688083CA6AAAA2ABE000000803F92
:1001300025250045200026260025250044200026F0
:1001400026002525004E20002626002525004220D9
:10015000002626002525004920002626002525000A
:100160004100262600252500460026260002000024
:100170000000250028002B000000000023002600BE
:10018000290004040404040404040202020202021A
:10019000030303030303010204081020408001024B
:1001A00004081020010204081020000000002400B0
:1001B00027002A00000000080002010000030407D5
:1001C0000000000000000000AA23A02311241FBE8D
:1001D000CFEFD8E0DEBFCDBF13E0A0E0B1E0ECEFA1
:1001E000FEE502C005900D92A43CB107D9F728E0C6
:1001F000A4ECB3E001C01D92AD37B207E1F710E007
:10020000C5EED0E004C02197FE010E94402FC43EFD
:10021000D107C9F70E94B0240C94712F0C940000F0
:1002200080E090E0892B29F00E949C1881110C94A9
:100230000000089520916A0830916B08281739074B
:1002400071F49091680880916908981741F0E091E5
:100250006808F0E0EB53FC4F808190E008958FEF49
:100260009FEF089508951F93CF93DF93DC015C9671
:100270002D913C915D972115310539F481E090E095
:1002800013969C938E9312973DC05196ED91FC91DD
:10029000529750969C915097892F80951FB75E96E4
:1002A0004C915E9741FB772770F941FD6095F8947A
:1002B0004081772311F0492B01C048234083E90195
:1002C0002197F1F748E0508160FF02C0592B01C02F
:1002D00058235083E9012197F1F76695415099F72A
:1002E000772321F090818923808303C08081982B1C
:1002F00090831FBF5C968D919C915D970197F1F75C
:1003000021E030E0C901DF91CF911F910895209144
:100310006A0830916B082817390771F480916908D1
:100320002091680890E0805C9F4F821B910960E4F7
:1003300070E00E942C2F089580E090E008952091B5
:100340006A0830916B0828173907B9F4909168084A
:1003500080916908981789F0E0916808F0E0EB5304
:10036000FC4F80812091680830E02F5F3F4F2F7352
:1003700033272093680890E008958FEF9FEF08954A
:100380000E94462F6EE170E080E090E00E94EF1B3B
:1003900082E691E00E94F51280E691E00E94F5125B
:1003A0008DE591E00C9416130E947E148AE591E08D
:1003B0000E94F51287E591E00E94F51264E171E078
:1003C0008BE398E00E94081E84E591E00C941613DC
:1003D000CF93DF93CDB7DEB72B970FB6F894DEBF80
:1003E0000FBECDBF0E947E1485E0E9E0F1E0DE01A2
:1003F000119601900D928A95E1F7FE01369686E0FE
:10040000DF011D928A95E9F786E391E00E94F512DB
:1004100083E391E00E94F512BE016F5F7F4F8BE393
:1004200098E00E94081E80E391E00E9416132B962C
:100430000FB6F894DEBF0FBECDBFDF91CF91089508
:100440008F929F92AF92BF92CF92DF92EF92FF92E4
:100450000E947E140E94C7126B017C0181E591E02D
:100460000E94F5128EE491E00E94F512A701960118
:10047000C701B6010E947F2E882319F065E373E05F
:100480001AC046015701E894B7F82FEF3FEF4FE746
:100490005FE7C501B4010E947F2E811111C02FEFCB
:1004A0003FEF4FE75FE7C501B4010E94A62C181685
:1004B0003CF469E373E08BE398E00E94081E7DC082
:1004C0002FEF3FEF4FE75FE4C701B6010E94052E13
:1004D00018161CF46DE373E0EECF2FEF3FEF4FE7FC
:1004E0005FECC701B6010E94A62C87FDF3CF20E088
:1004F00030E0A901C701B6010E94A62C87FF09C000
:100500006DE28BE398E00E94011EF7FAF094F7F891
:10051000F0942AE037ED43EA5BE3C701B6010E949D
:100520003A2C4B015C010E94242D6B017C010E943E
:10053000532D9B01AC01C501B4010E94392C4B0124
:100540005C012AE0B701A6018BE398E00E941D1E22
:100550006EE28BE398E00E94011E20E030E040E272
:1005600051E4C501B4010E940A2E4B015C010E94B6
:10057000242D6B01E12CF12C2AE0B701A6018BE3BD
:1005800098E00E941D1EC701B6010E94532D9B01D9
:10059000AC01C501B4010E94392C20E030E040E2FA
:1005A00051E40E940A2E0E94242DAB0160E070E00D
:1005B0002AE08BE398E00E941D1E8BE491E0FF90FF
:1005C000EF90DF90CF90BF90AF909F908F900C9462
:1005D0001613CF93DF930E947E148091E5050E944D
:1005E000D81B8091E5050E94D81BEC0164E070E007
:1005F00080E090E00E94EF1B8091E5050E94D81BEF
:10060000C80FD91F64E070E080E090E00E94EF1B0B
:1006100088E491E00E94F51285E491E00E94F512D1
:10062000BE01D7FF02C06F5F7F4F759567958BE363
:1006300098E00E94AA1482E491E0DF91CF910C949B
:1006400016130F931F93CF93DF9300D000D0CDB735
:10065000DEB70E947E1460E08091C7050E94501BA7
:1006600083E090E00197F1F761E08091C7050E9477
:10067000501B83E290E00197F1F760E08091C7059D
:100680000E94501B8091C9059091CA059927FC01D1
:10069000EA56FE4F6491FC01EE57FE4FE491F0E004
:1006A000EE0FFF1FE858FE4F8591949100E41CE97E
:1006B00020E030E0462F0E945B2361157105810523
:1006C000910549F0DC01CB010196A11DB11DBC01D2
:1006D000CD019F7003C060E070E0CB012AE330E001
:1006E00040E050E00E94C12B211531054105510524
:1006F00021F427EE33E040E050E08FE391E02983DE
:100700003A834B835C830E94F5128CE391E00E9454
:10071000F51229813A814B815C81CA01B9010E949D
:10072000552D0E941D2D8BE398E00E94AA1489E3A9
:1007300091E00F900F900F900F90DF91CF911F914C
:100740000F910C9416130E94C2010E947E148FE038
:1007500090E00C94E0140E94C20161E473E08CE02C
:1007600094E00E94081E8091FF0581111092FF0500
:100770000E94E320009779F00E94202B90936D084F
:1007800080936C080E94EB2060E873E08CE094E0BA
:100790000E94081E12C06AE170E080E090E00E94B2
:1007A000B62060ED77E080E090E00E94EF1B0E94B1
:1007B000AD1F10926D0810926C080E94E320009704
:1007C00079F00E94202B90930401809303010E94F2
:1007D000EB2060E873E08CE094E00E94081E06C005
:1007E00088EE93E090930401809303010E94E3203C
:1007F000009771F00E94202B9093020180930101D9
:100800000E94EB2060E873E08CE094E00C94081EFA
:100810008EE190E0909302018093010108951F9270
:100820000F920FB60F9211242F933F934F935F9324
:100830006F937F938F939F93AF93BF93EF93FF93A8
:10084000E0916A08F0916B08309709F451C0968DD9
:10085000A685B785858591FF04C09C91892329F4DD
:1008600047C09C91892309F043C0A389B4899C9116
:100870008589809589238C93868997890197F1F7DB
:10088000608D718DA685B785558538E020E0CB0158
:100890000197F1F7822F90E095958795282F4C913D
:1008A000452309F02068315091F7868D81FD209510
:1008B0008091690890E001968F73992730916808BC
:1008C000381749F0A0916908B0E0AB53BC4F2C93A6
:1008D0008093690803C0868D8160868F828D938D99
:1008E0000197F1F7A389B4899C918589892B8C9311
:1008F000FF91EF91BF91AF919F918F917F916F91F8
:100900005F914F913F912F910F900FBE0F901F90CD
:100910001895E0916A08F0916B08E817F90769F4F7
:10092000A389B4899C918589809589238C931092A1
:100930006B0810926A0881E0089580E00895CF92D4
:10094000DF92EF92FF92CF93DF93EC01603282E06F
:1009500078070CF03DC077FD06C0653B71052CF0B3
:1009600064EB70E002C060E070E0898128E830E06C
:100970006901C81AD10887FDD394CC0CDD1CCC0CBE
:10098000DD1C0D2C000CEE08FF088A8128E532E002
:10099000281B310987FD3395220F331F220F331F88
:1009A000C901330FAA0BBB0B9C01AD012C193D09EA
:1009B0004E095F09DB010E94EB2B24EB30E040E0A5
:1009C00050E00E94C12BC20ED31EE41EF51EB601DC
:1009D00088818C3080F5998148E850E0491B5109A5
:1009E00097FD5395440F551F440F551F6417750706
:1009F00084F09A8128E532E0291B310997FD33956F
:100A0000220F331F220F331FAB01261737070CF4B9
:100A1000A90142505109440F551F2FB7F89490E097
:100A2000FC01EE0FFF1F8E0F9F1FFC01E755FB4FD0
:100A3000528341832FBFDF91CF91FF90EF90DF90E2
:100A4000CF9008951F920F920FB60F9211242F93FB
:100A50003F934F935F936F937F938F939F93AF9346
:100A6000BF93EF93FF938091C40387FF05C010925B
:100A70008500109284001BC02091C403022E000C3C
:100A8000330B8091CD0490E02817390784F48091CE
:100A9000C403082E000C990BFC01EE0FFF1F8E0FF4
:100AA0009F1FFC01E755FB4F808186FD15C080919B
:100AB000C4038F5F8093C4032091C403022E000CF3
:100AC000330B8091CD0490E028173907C4F480914E
:100AD000C4038C3064F113C08091C403082E000C51
:100AE000990BFC01EE0FFF1F8E0F9F1FFC01E755B6
:100AF000FB4F808160E08F730E94501BD8CF8091A4
:100B0000840090918500049680349C4918F480E418
:100B10009CE905C080918400909185000496909393
:100B20008900809388008FEF8093C4033BC020919D
:100B30008400309185008091C403082E000C990B2D
:100B4000FC01EE0FFF1F8E0F9F1FFC01E755FB4FAF
:100B500081819281820F931F9093890080938800F6
:100B60008091C403082E000C990BFC01EE0FFF1FAF
:100B70008E0F9F1FFC01E755FB4F808186FF12C03F
:100B80008091C403082E000C990BFC01EE0FFF1F8F
:100B90008E0F9F1FFC01E755FB4F808161E08F7333
:100BA0000E94501BFF91EF91BF91AF919F918F9148
:100BB0007F916F915F914F913F912F910F900FBE59
:100BC0000F901F9018956EE170E080E090E00E9419
:100BD000EF1B8AE691E00E94F51288E691E00E9400
:100BE000F51285E691E00C941613CF93DF9300D0B5
:100BF000CDB7DEB70E94C2010E947E140E94E3209E
:100C0000009751F042E050E0BE016F5F7F4F0E94BD
:100C10000E2A0E94FF1F0EC06AE170E080E090E0A3
:100C20000E94B62060ED77E080E090E00E94EF1B2C
:100C30000E94AD1F0E94E3050F900F90DF91CF91AE
:100C400008950E94C2010E947E140E94E320009732
:100C500061F00E94202B01978331910508F046C076
:100C60008C5C9F4FFC010C94402F60ED77E080E09E
:100C700090E00E94EF1B3AC080E090E035C081E038
:100C800090E032C086E090E02FC087E090E02CC07A
:100C900088E090E029C089E090E026C08AE090E0FA
:100CA00023C08BE090E020C08CE090E01DC08DE080
:100CB00090E01AC08EE090E017C08FE090E014C082
:100CC00080E190E011C081E190E00EC082E190E00F
:100CD0000BC083E090E008C084E090E005C085E0B0
:100CE00090E002C082E090E00E94E0140C94E305E2
:100CF0000E94C2010E947E140E94E320009759F0D6
:100D00000E94202B01978D309105E0F5895B9F4F64
:100D1000FC010C94402F6AE170E080E090E00E94BA
:100D2000B62060ED77E080E090E00E94EF1B0E942B
:100D3000AD1F28C080E090E023C081E090E020C09B
:100D400082E090E01DC083E090E01AC084E090E073
:100D500017C085E090E014C086E090E011C087E005
:100D600090E00EC088E090E00BC089E090E008C001
:100D70008AE090E005C08BE090E002C08CE090E05B
:100D80000E94E1070C94E305AF92BF92CF92DF92ED
:100D9000EF92FF921F93CF93DF93CDB7DEB72897E3
:100DA0000FB6F894DEBF0FBECDBF0E94C2018EE128
:100DB00090E090936D0880936C080E94E320009768
:100DC00029F00E94202B5C0110E001C011E00E947C
:100DD000E320009721F00E94202B6C0101C011E05C
:100DE0000E94E320009721F00E94202B7C0101C08B
:100DF00011E00E94E320009721F00E94202B112394
:100E000039F060ED77E080E090E00E94EF1B0FC0CA
:100E1000BA82A982DC82CB82FE82ED8298878F83A0
:100E2000BE016F5F7F4F88EC90E00E9446130E94E6
:100E30006E1481E08093FF050E94E30528960FB6AB
:100E4000F894DEBF0FBECDBFDF91CF911F91FF9011
:100E5000EF90DF90CF90BF90AF900895CF92DF9248
:100E6000EF92FF920F931F93CF93DF930E94C201E3
:100E70000E947E140E94E320009729F00E94202BFC
:100E80006C01C0E001C0C1E00E94E320009721F0A6
:100E90000E94202B7C0101C0C1E00E94E32000974A
:100EA00021F00E94202B8C0101C0C1E00E94E320B0
:100EB000009721F00E94202BCC2339F060ED77E0E1
:100EC00080E090E00E94EF1B23C0D0923305C092D7
:100ED0003205F0925C05E0925B0510938505009366
:100EE00084059093AE058093AD0502E315E0C0E064
:100EF000D0E0F8016081CE010E94812B2196075D30
:100F00001F4FC430D105A9F780E593E00E94D217A6
:100F1000DF91CF911F910F91FF90EF90DF90CF90D5
:100F20000C94E305EF92FF920F931F93CF93DF93FF
:100F300000D000D0CDB7DEB70E94C2010E947E145F
:100F40000E94E320009729F00E94202B7C0110E0F2
:100F500001C011E00E94E320009721F00E94202BA5
:100F6000112339F060ED77E080E090E00E94EF1B04
:100F700016C09C01990F440B550BB701FF0C880B51
:100F8000990B29833A834B835C830E94552D01E0A2
:100F900010E029813A814B815C810E94AE0F0F9055
:100FA0000F900F900F90DF91CF911F910F91FF90B5
:100FB000EF900C94E3050E94C2010E947E140C94F1
:100FC000E3052F923F924F925F926F927F928F92A2
:100FD0009F92AF92BF92CF92DF92EF92FF920F93C8
:100FE0001F93CF93DF93CDB7DEB7C058D1090FB6AB
:100FF000F894DEBF0FBECDBF28E0E1E2F1E0DE01F4
:10100000AF58BF4F01900D922A95E1F728E0E9E231
:10101000F1E0DE01A759BF4F01900D922A95E1F74B
:1010200028E0E1E3F1E0DE01AF59BF4F01900D92FE
:101030002A95E1F728E0E9E3F1E0DE01A75ABF4F86
:1010400001900D922A95E1F728E0E1E4F1E0DE015C
:10105000AF5ABF4F01900D922A95E1F728E0E9E4DD
:10106000F1E0DE01A75BBF4F01900D922A95E1F7F9
:1010700028E0E1E5F1E0DE01AF5BBF4F01900D92AA
:101080002A95E1F728E0E9E5F1E0DE01D996019043
:101090000D922A95E1F728E0E1E6F1E0DE01D19634
:1010A00001900D922A95E1F728E0E9E6F1E0DE01F2
:1010B000999601900D922A95E1F728E0E1E7F1E099
:1010C000DE01919601900D922A95E1F728E0E9E77B
:1010D000F1E0DE01599601900D922A95E1F728E0A2
:1010E000E1E8F1E0DE01519601900D922A95E1F7D9
:1010F00028E0E9E8F1E0DE01199601900D922A95C9
:10110000E1F78D30910508F028C6FC01EC5AFF4F3D
:101110000C94402F0EE110E022E330E040E050E07C
:1011200064EA70ED84E294E40E94AE0F6AE070E03D
:1011300080E090E00E94B6208DE090E00E94E014F4
:1011400064E170E080E293E00E9402238DE090E091
:101150002BC16BE070E080E090E00E94B6208BE055
:1011600090E00E94E0146CE070E080E090E00E946B
:10117000B62084EF91E00E94A0216BE070E080E057
:1011800090E00E94B6208CE090E00E94E0146CE0B9
:1011900070E080E090E00E94B62084EF91E00E9431
:1011A000A02180C266E170E080E090E00E94B6205D
:1011B000BE016F587F4F8CEB92E00E944613A8EC63
:1011C0008A2E912CB4E1AB2EB12CC12CD12C1CE574
:1011D000E12E1FE8F12E02E81FE320E030E84FE4A3
:1011E00054E460E070E08CE594E40E94361268E11B
:1011F00070E080E090E00E94B62020E030E845E416
:1012000054E460E070E88FE494E40E94361267E1F1
:1012100070E080E090E00E94B62020E030E049E3FA
:1012200054E460E070E885E494E40E94361268E1DA
:1012300070E080E090E00E94B62020E030E04FE2D5
:1012400054E460E070E089E394E40E94361267E1C0
:1012500070E080E090E00E94B62020E030E447E2B9
:1012600054E460E070E08FE294E40E94361266E19C
:1012700070E080E090E00E94B62064EF71E080E0D2
:1012800090E00E94EF1B0E947E14CEC2BE016759FF
:101290007F4F8CEB92E00E944613F4E06F2E712C8E
:1012A00040E050E061E070E080E090E00E94E621E4
:1012B0005AE0852E912C6AE0A62EB12CC12CD12C9F
:1012C00018EBE12E1EE1F12E05E81FE320E030E0EF
:1012D00048E453E460E070E088EC92E40E94361247
:1012E00041E050E061E070E080E090E00E94E621A3
:1012F00020E030E046E953E460E070E088E493E405
:101300000E94361242E050E061E070E080E090E040
:101310000E94E62120E030E04AEF53E460E070E014
:1013200086E993E40E94361264EF71E080E090E079
:101330000E94EF1B41E050E061E070E080E090E04F
:101340000E94E62188248394912C20E030E04AE733
:1013500053E460E070E088EC93E40E94361240E0D1
:1013600050E061E070E080E090E00E94E62120E043
:1013700030E048EC52E460E070E08AE793E40E94D9
:10138000361264EF71E080E090E00E94EF1B21E0F4
:10139000621A710809F084CF63E170E080E090E0A8
:1013A0000E94B62089E090E00E94E0147BC1BE015B
:1013B0006F597F4F84EF91E00E9446136CE271E019
:1013C00080E090E00E94EF1B63E170E080E090E03D
:1013D0000E94B62080E190E00E94E01460E170E09D
:1013E00080E090E00E94B6206AEF70E080E090E03C
:1013F0000E94EF1BBE01675A7F4F84EF91E00E946D
:1014000046136CE271E080E090E00E94EF1B63E124
:1014100070E080E090E00E94B62081E190E00E94C0
:10142000E01460E170E080E090E00E94B6206AEF96
:1014300070E080E090E00E94EF1BBE016F5A7F4F8A
:1014400084EF91E00E9446136CE271E080E090E04E
:101450000E94EF1B63E170E080E090E00E94B62004
:1014600082E190E00E94E01460E170E080E090E0B2
:101470000E94B6206CE271E080E090E00E94EF1BD9
:101480000E947E1464EF71E080E090E04AC3BE01E8
:10149000675B7F4F8CE291E00E94461364E170E04D
:1014A00080E090E00E94B6208FE090E00E94E0147F
:1014B000F3C06DE070E080E090E00E94B62089E02B
:1014C00090E00E94E01401E010E02FE030E04CEDED
:1014D00055E060E070E080E090E40E9463220E94AA
:1014E0007E148DE090E00E94E014C0C3BE016F5BEB
:1014F0007F4F8CE291E00E9446136EE170E080E045
:1015000090E00E94B6200EE110E024E630E040E0DA
:1015100050E060E070E08CE594E40E94AE0F14E0CF
:10152000812E912C07E0A02EB12CC12CD12C1CE5D2
:10153000E12E1FE8F12E02E81FE32FE135ED42E92D
:1015400054E460E070E08CE594E40E943612882454
:101550008394912C2AE0A22EB12CC12CD12C2CE505
:101560003FEF43EC54E46FE175ED82E994E40E94AF
:10157000361220E030E04CE554E46CE57FEF83EC7C
:1015800094E40E9436126FE070E080E090E00E94E8
:10159000EF1B34E0832E912C44E1A42EB12CC12CFE
:1015A000D12C24EA30ED44E254E460E070E08CE5B4
:1015B00094E40E94361260E971E080E090E00E94BD
:1015C000EF1BBE01675C7F4F88EC90E00E944613E2
:1015D0002FE135ED42E954E460E070E08CE594E4FD
:1015E0000E943612BE016F5C7F4F88EC90E00E9433
:1015F000461324EA30ED44E254E460E070E08CE508
:1016000094E40E9436124EC06EE170E080E090E0FB
:101610000E94B620F4E08F2E912CA4E1AA2EB12CCA
:10162000C12CD12C1CE5E12E1FE8F12E02E81FE3AE
:101630002FE135ED42E954E460E070E08CE594E49C
:101640000E94361224EA30ED44E254E460E070E097
:101650008CE594E40E9436126CE271E080E090E048
:101660000E94EF1B63E170E080E090E00E94B620F2
:1016700004E010E0BE01675D7F4F84E690E00E94C9
:1016800046130E947E1401501109A1F76EE170E02B
:1016900080E090E00E94B62064EF71E080E090E08E
:1016A0000E94EF1B0E947E14E1C224E030E0EB9622
:1016B0003FAF2EAFEB9700E911E0612C712CA30135
:1016C00062E070E080E090E00E94E621C8018C5961
:1016D0009F4FED969FAF8EAFED97B801110F880B1E
:1016E000990B0E94552D1B012C01ED96EEADFFAD1F
:1016F000ED97BF01FF0F880B990B0E94552D9B01A1
:10170000AC016AE0862E912C7AE0A72EB12CC12C78
:10171000D12C18EBE12E1EE1F12E05E81FE3C201EA
:10172000B1010E943612FFEF6F1A7F0AED960EADDF
:101730001FADED9726E06216710409F60E94AD1FF9
:1017400018EBE12E1EE1F12E05E81FE320E030E862
:1017500049E854E4C201B1010E94361298EE492EC4
:1017600093E0592E612C712CA30162E070E080E0BF
:1017700090E00E94E621B2016C597F4F072E000CC9
:10178000880B990B0E94552D9B01AC01B201052CD1
:10179000000C880B990BEE962FAFEE97EF963FAFAC
:1017A000EF97C158DF4F4883CF57D040C058DF4F25
:1017B0005883C058D0400E94552DFAE08F2E912CAE
:1017C000AAE0AA2EB12CC12CD12C18EBE12E1EE1DF
:1017D000F12E05E81FE3EE962FADEE97EF963FADA5
:1017E000EF97C158DF4F4881CF57D040C058DF4FE7
:1017F0005881C058D0400E94361234E6431A51082E
:101800008FEF681A780A96E06916710409F0ACCF78
:10181000EB96EEADFFADEB973197EB96FFAFEEAFEA
:10182000EB97EF2B09F047CF6CE271E080E090E09E
:1018300078C1A2E02A2E312CF4EF4F2E5524539478
:10184000612C712CA30163E070E080E090E00E94C5
:10185000E621B2016C597F4F072E000C880B990BC3
:101860000E94552D9B01AC01B201052C000C880B88
:10187000990BEE962FAFEE97EF963FAFEF97C158CB
:10188000DF4F4883CF57D040C058DF4F5883C058F0
:10189000D0400E94552D4AE0842E912C5AE0A52E6E
:1018A000B12CC12CD12C1CE5E12E1FE8F12E02E851
:1018B0001FE3EE962FADEE97EF963FADEF97C15831
:1018C000DF4F4881CF57D040C058DF4F5881C058B4
:1018D000D0400E94361235E6430E511C8FEF681A35
:1018E000780A9AE06916710409F0ACCF36EE432EFF
:1018F00035E0532E612C712CA30163E070E080E091
:1019000090E00E94E621B2016C597F4F072E000C37
:10191000880B990B0E94552D9B01AC01B201052C3F
:10192000000C880B990BEE962FAFEE97EF963FAF1A
:10193000EF97C158DF4F4883CF57D040C058DF4F93
:101940005883C058D0400E94552DAAE08A2E912C71
:10195000BAE0AB2EB12CC12CD12C1CE5E12E1FE836
:10196000F12E02E81FE3EE962FADEE97EF963FAD16
:10197000EF97C158DF4F4881CF57D040C058DF4F55
:101980005881C058D0400E943612E5E64E0E511CD8
:10199000FFEF6F1A7F0A2AE06216710409F0ACCFDC
:1019A000F8ED4F2EF9E05F2E612C712CA30163E05E
:1019B00070E080E090E00E94E621B2016456710977
:1019C000072E000C880B990B0E94552D9B01AC0132
:1019D000B201052C000C880B990BEE962FAFEE97F9
:1019E000EF963FAFEF97C158DF4F4883CF57D040B6
:1019F000C058DF4F5883C058D0400E94552D4AE050
:101A0000842E912C5AE0A52EB12CC12CD12C1CE592
:101A1000E12E1FE8F12E02E81FE3EE962FADEE97C0
:101A2000EF963FADEF97C158DF4F4881CF57D04079
:101A3000C058DF4F5881C058D0400E94361235E65A
:101A4000431A51088FEF681A780A9AE069167104F0
:101A500009F0ACCF36EE432E35E0532E612C712CBD
:101A6000A30163E070E080E090E00E94E621B20113
:101A700064567109072E000C880B990B0E94552D96
:101A80009B01AC01B201052C000C880B990BEE9662
:101A90002FAFEE97EF963FAFEF97C158DF4F4883D8
:101AA000CF57D040C058DF4F5883C058D0400E9415
:101AB000552D1AE0812E912C0AE0A02EB12CC12CBC
:101AC000D12C1CE5E12E1FE8F12E02E81FE3EE9673
:101AD0002FADEE97EF963FADEF97C158DF4F48819E
:101AE000CF57D040C058DF4F5881C058D0400E94D7
:101AF0003612E5E64E1A5108FFEF6F1A7F0A2AE008
:101B00006216710409F0ACCF2A94232821F0222414
:101B10002394312C91CE0E94AD1F64E670E080E0EA
:101B200090E00E94EF1BA2C06FE070E080E090E0C8
:101B30000E94B62040E4242E46E0342E5AE5652E5D
:101B4000712C68E0B62ECE0101962C017AE5E72EC5
:101B5000F12CE4EBCE2ED12CF2012B2D11922A95F3
:101B6000E9F7FA82E982FC82EB827E826D82C6010D
:101B70008619970998878F83B2018AE090E00E94C6
:101B80004613B101032C000C880B990B0E94552DB4
:101B900001E010E02FE030E040E050E00E94AE0FA6
:101BA0003FEF631A730A84E1280E311C96E9691627
:101BB000710491F66EE070E080E090E00E94B62043
:101BC00080EF282E8AE0382E98E0B92E2AE5E22E02
:101BD000F12C34EBC32ED12CF2012B2D11922A952E
:101BE000E9F7FA82E982FC82EB827E826D82C6018D
:101BF0008619970998878F83B2018AE090E00E9446
:101C00004613B101032C000C880B990B0E94552D33
:101C100001E010E02FE030E040E050E00E94AE0F25
:101C200031E0631A710884E1280E311C9AE56916C7
:101C3000710491F66BE070E080E090E00E94B620C5
:101C400084EF91E00E94A0218CE090E00E94E014DB
:101C50006CE070E080E090E00E94B62084EF91E0BC
:101C60000E94A0210E947E140E94AD1F6BE070E0D4
:101C700080E090E00E94B62070C067E170E080E0F4
:101C800090E00E94B620BE016F5D7F4F8CE291E034
:101C90000E94461301E010E028EC30E040E050E004
:101CA00060E070E081E694E40E94AE0F68E170E0CD
:101CB00080E090E00E94B620BE01675E7F4F8CE21C
:101CC00091E00E94461328EC30E040E050E060E0F4
:101CD00070E086E194E40E94AE0F64E170E080E081
:101CE00090E00E94B620BE016F5E7F4F8CE291E0D3
:101CF0000E94461328EC30E040E050E060E070E0E5
:101D000086E993E40E94AE0FBE01675F7F4F8CE2CD
:101D100091E00E9446136AE170E080E090E00E944A
:101D2000B6200E946E1428E938E040E050E060E000
:101D300070E086E193E40E94AE0F68E572E080E017
:101D400090E00E94EF1B0E94AD1F6BE070E080E00E
:101D500090E00E94B6200E947E14C058DF4F0FB65C
:101D6000F894DEBF0FBECDBFDF91CF911F910F91D1
:101D7000FF90EF90DF90CF90BF90AF909F908F90AB
:101D80007F906F905F904F903F902F9008950F93AA
:101D90001F93CF93DF9385E10E94D81B25E0AC0110
:101DA000249FC001259F900D1124BC01990F880B21
:101DB000990B0E94552D20E030E040E85AE30E9444
:101DC0000A2E8B01D82FC92F26E636E646E850E4C6
:101DD0000E94052E181624F406E616E6D6E8C0E49E
:101DE0002FEB36E842ED52E4B8018D2F9C2F0E9474
:101DF0000A2E2CE73DE04BEA53E40E94392C8B017C
:101E0000D82FC92F20E030E0A9010E94A62C87FF1F
:101E100004C000E010E0D0E0C0E0B8018D2F9C2F9E
:101E2000DF91CF911F910F9108951F93CF93DF936F
:101E3000EC019881292F30E0F901EE0FFF1F2E0FE2
:101E40003F1FF901E755FB4F808186FD83C0162FA8
:101E50009C3008F04EC061E0812F0E949C1B88815D
:101E6000E82FF0E09F01220F331FE20FF31FE75529
:101E7000FB4F1F736081607C162B108319821A82BE
:101E80006CE00E940C2F9CE0899FB001112440E07F
:101E900050E09A01260F371FF901EE0FFF1F2E0F9A
:101EA0003F1FF901E755FB4F908196FD16C04F5F2C
:101EB0005F4F4C30510569F781110FC010928000BF
:101EC00082E0809381001092850010928400B19A84
:101ED00080916F00826080936F00E881F0E0CF0115
:101EE000880F991FE80FF91FE755FB4F8081806429
:101EF00080836AE570E0CE010E949F048EE190E04D
:101F00009E8F8D8F80ED97E098878F8380E090E0A3
:101F1000A4E8B2E4898F9A8FAB8FBC8F8AE198EFE7
:101F2000A2ECBDE38D8B9E8BAF8BB88F1F8E18A25A
:101F300019A21AA28DE290E09C838B83198A1A8AD7
:101F40001B8A1C8A19861A861B861C861E821D8285
:101F50001FA218A6DF91CF911F9108953F924F9233
:101F60005F926F927F928F929F92AF92BF92CF9229
:101F7000DF92EF92FF920F931F93CF93DF93CDB732
:101F8000DEB728970FB6F894DEBF0FBECDBF29018C
:101F90003A010115110511F401E010E0E090E305AC
:101FA000F090E405209100012E1521F02F3F09F05B
:101FB000DEC104C0EDE6F1E0349081C0E0920001A2
:101FC000EDE6F1E0E491EF3F09F4D1C1E13031F108
:101FD000E23009F44BC0E11171C014BC15BC24B54A
:101FE000226024BD25B5216025BDA7015527FA0132
:101FF000EE57FE4FE491F0E0EE0FFF1FE259FE4F67
:102000002591349130935F0820935E08FA01EA56D7
:10201000FE4FE491E0935D08312C53C01092800094
:1020200010928100209181002860209381002091EE
:102030008100216020938100A7015527FA01EE5706
:10204000FE4FE491F0E0EE0FFF1FE259FE4F2591A5
:10205000349130935C0820935B08FA01EA56FE4FF6
:10206000E491E0935A08332433942BC01092B000CB
:102070001092B1002091B00022602093B000209116
:10208000B10021602093B100A7015527FA01EE5756
:10209000FE4FE491F0E0EE0FFF1FE259FE4F259155
:1020A00034913093070420930604FA01EA56FE4F58
:1020B000E491E0930504B2E03B2E03C03E2E37FCD2
:1020C00056C10E94242D6D837E838F83988761E0A3
:1020D0008E2D0E949C1B8D819E814C01A12CB12CC8
:1020E000832D8D7F09F0BBC060E072E18AE790E04C
:1020F000A50194010E94C12B29833A834B835C8301
:1021000069017A0191E0C91AD108E108F108EFEFFD
:10211000CE16D104E104F10409F008F44CC060E4E7
:1021200072E48FE090E0A50194010E94C12B690147
:102130007A01F1E0CF1AD108E108F10822E0321269
:1021400020C08FEFC816D104E104F10409F008F4AF
:102150008BC160E970ED83E090E0A50194010E94DD
:10216000C12B69017A0191E0C91AD108E108F1088F
:10217000EFEFCE16D104E104F10409F0D0F583E0CD
:1021800067C0FFEFCF16D104E104F104B1F0A8F06D
:1021900068E478EE81E090E0A50194010E94C12BF3
:1021A00069017A0181E0C81AD108E108F1083320F9
:1021B00009F438C12EC181E001C082E03320A1F0D2
:1021C00047C089819A81AB81BC812AE0B595A795EA
:1021D000979587952A95D1F76C017D01E1E0CE1A9C
:1021E000D108E108F10885E095B5987F892B85BD78
:1021F0006FC068E478EE81E090E0A50194010E9450
:10220000C12B69017A01E1E0CE1AD108E108F10899
:10221000FFEFCF16D104E104F10409F008F4C8C0BF
:1022200064E274EF80E090E0A50194010E94C12B6C
:1022300069017A0191E0C91AD108E108F108EFEFCC
:10224000CE16D104E104F10411F008F0B3C085E02A
:102250009091B100987F892B8093B10039C060E0E4
:1022600072E18AE790E0A50194010E94C12B690107
:102270007A0181E0C81AD108E108F108C114D1043B
:1022800091E0E906F10488F068E478EE81E090E0FE
:10229000A50194010E94C12B69017A01E1E0CE1AE7
:1022A000D108E108F10893E001C091E0F1E03F12AC
:1022B0000FC080918100887F892B80938100411419
:1022C00051046104710449F42FEF3FEFA9012EC0BE
:1022D000411451046104710479F0AD81BE81AA0FEB
:1022E000BB1FA30192010E94E02B28EE33E040E0E7
:1022F00050E00E949F2B03C02FEF3FEFA90181E028
:102300003816A1F092E0391619F1311030C0C7BC6F
:1023100020936408309365084093660850936708DB
:1023200080916E00826080936E0021C0D0928900FF
:10233000C09288002093600830936108409362083F
:102340005093630880916F00826080936F000FC08C
:10235000C092B300209308043093090440930A0408
:1023600050930B0480917000826080937000C301D1
:10237000B2010E94EF1BB801110F880B990B289630
:102380000FB6F894DEBF0FBECDBFDF91CF911F9186
:102390000F91FF90EF90DF90CF90BF90AF909F9004
:1023A0008F907F906F905F904F903F900C94EF1BB9
:1023B00084E04ECF62E17AE780E090E0A5019401ED
:1023C0000E94C12B69017A0181E0C81AD108E10895
:1023D000F1089FEFC916D104E104F104C1F0B8F08F
:1023E00089819A81AB81BC814AE0B595A795979583
:1023F00087954A95D1F76C017D01F1E0CF1AD1089C
:10240000E108F108332009F4EECE87E021CF86E021
:10241000D5CEEFEFCE16D104E104F10409F050F669
:1024200084E0CCCE8FEFC816D104E104F104D1F0E2
:10243000C8F062E17AE780E090E0A50194010E9493
:10244000C12B69017A01F1E0CF1AD108E108F10846
:102450002FEFC216D104E104F10411F008F0B1CE5F
:1024600084E0C2CE83E0C0CE82E0F2CE4F925F9293
:102470006F927F928F929F92AF92BF92CF92DF9294
:10248000EF92FF920F931F93CF93DF93CDB7DEB7F9
:1024900028970FB6F894DEBF0FBECDBF2B013C01CD
:1024A00029833A834B835C83ED82FE820F831887F6
:1024B0008114910419F488248394912C29813A8100
:1024C0004B815C81C301B2010E94A62C87FF24C00E
:1024D000C301B2010E941D2D072E000C880B990B21
:1024E0000E94552D2B013C0129813A814B815C8151
:1024F0000E94A62C87FF34C08401A6019501C30168
:10250000B2010E94AE0F2D813E814F815885C301DB
:10251000B2010E940A2EDECFC301B2010E941D2D1E
:10252000072E000C880B990B0E94552D2B013C01A6
:1025300029813A814B815C810E94052E181684F412
:102540008401A6019501C301B2010E94AE0F2D8145
:102550003E814F815885C301B2010E94AB2CDECF72
:1025600028960FB6F894DEBF0FBECDBFDF91CF9196
:102570001F910F91FF90EF90DF90CF90BF90AF90A1
:102580009F908F907F906F905F904F900895CF9223
:10259000DF92EF92FF92CF93DF930E94C70ECAE0C3
:1025A000D0E0C12CD12C76010E94C70E9B01AC015A
:1025B000C701B6010E943A2C6B017C0161E070E01A
:1025C00080E090E00E94EF1B219771F720E030E05F
:1025D00040E251E4C701B6010E94AB2CDF91CF91DC
:1025E000FF90EF90DF90CF9008950F931F93CF93BC
:1025F000DF938C01C0E0D0E0F801EC0FFD1F649187
:10260000662371F0E0913B08F0913C080190F08165
:10261000E02D8BE398E00995892B11F02196ECCF02
:10262000CE01DF91CF911F910F910895CF93DF934A
:102630000E94F512EC0165E673E08BE398E00E94DE
:10264000081E8C0F9D1FDF91CF9108956091CB05DF
:102650007091CC0583E295E00E94150F6091CD0545
:102660007091CE058CE495E00E94150F6091CF0526
:102670007091D00585E795E00E94150F6091D10516
:102680007091D2058EE995E00C94150F2F923F9230
:102690004F925F926F927F928F929F92AF92BF9272
:1026A000CF92DF92EF92FF920F931F93CF93DF931E
:1026B000CDB7DEB728970FB6F894DEBF0FBECDBFFB
:1026C0006C0178876F830E9426138091FF0581112A
:1026D0001092FF058F81988508961C019BE0C91612
:1026E000D1040CF4C2C00D2C000CEE08FF08C70189
:1026F000B6010E94552D20E030E040E251E40E94F6
:10270000AB2C4B015C010F8118852FEE422E25E08A
:10271000522E3BED632E35E0732EF80161917191DD
:102720008F01F301819191913F01681B790B072E75
:10273000000C880B990B0E94552DA50194010E9455
:10274000AB2CF20161937193819391932F01021548
:10275000130519F70E94291DC60ED71EE81EF91E83
:10276000C092E705D092E805E092E905F092EA050B
:1027700044244394512C0E94291D0091E705109197
:10278000E8052091E9053091EA0560177107820795
:10279000930708F07FC00E94291DDC01CB010A9637
:1027A000A11DB11D8093EB059093EC05A093ED0561
:1027B000B093EE0503E215E08FEE682E85E0782EEB
:1027C0008BED95E09A8389834201052C000CAA08C1
:1027D000BB08E981FA8161917191FA83E983F30180
:1027E00021913191419151913F01072E000C880BAD
:1027F000990B2B833C834D835E830E94552D6B0187
:102800007C01C501B4010E94552D2B813C814D8175
:102810005E810E940A2E9B01AC01C701B6010E9495
:102820003A2C0E941D2DF80127853089620F731FF5
:10283000C8010E949F04075D1F4FFFEF6F16F5E070
:102840007F0639F60E94291D0091EB051091EC05D9
:102850002091ED053091EE0560177107820793070F
:1028600088F38FEF481A580A86CFEF80F88403E286
:1028700015E0F701619171917F01F80187859089D9
:10288000680F791FC8010E949F04075D1F4FE21463
:10289000F30479F7AF81B885EBEDF5E08D919D916B
:1028A00081939193A215B305C9F728960FB6F894B2
:1028B000DEBF0FBECDBFDF91CF911F910F91FF9073
:1028C000EF90DF90CF90BF90AF909F908F907F90D0
:1028D0006F905F904F903F902F90089583E295E026
:1028E0000E94401B8CE495E00E94401B85E795E028
:1028F0000E94401B8EE995E00C94401BCF93DF9320
:10290000CDB7DEB728970FB6F894DEBF0FBECDBFA8
:102910008091FF05811115C088E0E1E9F1E0DE0159
:10292000119601900D928A95E1F7BE016F5F7F4F7E
:1029300084EF91E00E9446130E946E1481E0809320
:10294000FF0528960FB6F894DEBF0FBECDBFDF910E
:10295000CF910895CF92DF92EF92FF920F931F9342
:10296000CF93DF936B01770FEE08FF08F7FE1BC0D4
:10297000EC016DE20E94011E8C0144275527BA012B
:102980004C195D096E097F092AE0CE010E941D1EC7
:10299000800F911FDF91CF911F910F91FF90EF90CA
:1029A000DF90CF9008952AE0B701A601DF91CF9183
:1029B0001F910F91FF90EF90DF90CF900C941D1E10
:1029C0008F929F92AF92BF92CF92DF92EF92FF923F
:1029D0000F931F93CF93DF938331910508F0D5C2F6
:1029E000FC01EF59FF4F0C94402F0EE110E022E361
:1029F00030E040E050E064EA70ED84E294E40E944C
:102A0000AE0F09E110E027E330E040E050E062E57E
:102A100070ED84EA94E40E94AE0F0AE010E02CE32B
:102A200030E040E050E060E070E08CED94E422C0E3
:102A30000EE110E022E330E040E050E064EA70EDA7
:102A400084E294E40E94AE0F09E110E027E330E055
:102A500040E050E060E070E08CED94E40E94AE0F46
:102A60000AE010E022E330E040E050E062E570ED83
:102A700084EA94E40E94AE0F88C292E0892E912CE1
:102A800024E1A22EB12CC12CD12C1AE0E12E17ED9D
:102A9000F12E03E81FE32CE53FEF43EC54E462E53D
:102AA00070ED84EA94E40E9436126EE170E080E0FA
:102AB00090E00E94EF1B4AE0A42EB12CC12CD12C37
:102AC00018EBE12E1EE1F12E05E81FE32FE135EDB5
:102AD00042E155E412C0CAE08C2E912CDEE1AD2E0D
:102AE000B12CC12CD12C1CE5E12E1FE8F12E02E8FF
:102AF0001FE320E030E04CED54E462E570ED84EA41
:102B000094E441C2FAE08F2E912CAEE1AA2EB12CB2
:102B1000C12CD12C1AE0E12E17EDF12E03E81FE3B2
:102B20002FE135ED42E155E46CE57FEF83EC94E471
:102B30002AC204E610E022E330E040E050E062E523
:102B400070ED84EA94E40E94AE0F00E510E022E309
:102B500030E040E050E06CE57FEF83EC94E40E94CD
:102B6000AE0F00E010E02CE231E040E050E06FE119
:102B700075ED82E195E47ECF88248394912C5AE010
:102B8000A52EB12CC12CD12C1CE5E12E1FE8F12E75
:102B900002E81FE320E030E646E055E460E070E044
:102BA00088E494E40E94361277E0A72EB12CC12C61
:102BB000D12C1AE0E12E17EDF12E03E81FE320E0FF
:102BC00030E048E454E460E070E586E095E4DBC181
:102BD00093E0892E912C28E0A22EB12CC12CD12C6F
:102BE00018EBE12E1EE1F12E05E81FE320E030E0B6
:102BF0004AEF54E460E070E08CE594E40E94361201
:102C000068EC70E080E090E00E94EF1BC6E1D0E04D
:102C10000AE010E025E030E040E050E068E471EFC9
:102C200086E794E40E94AE0F219791F7AEC1C3E00E
:102C30008C2E912CD8E0AD2EB12CC12CD12C1AE0C9
:102C4000E12E17EDF12E03E81FE320E030E84BE31F
:102C500055E460E070E08BEE94E40E94361268EC7C
:102C600070E080E090E00E94EF1BC0E1D0E00AE05D
:102C700010E02AE030E040E050E060E070ED82E8F3
:102C800094E40E94AE0F219791F77FC164E0862EF5
:102C9000912C70E1A72EB12CC12CD12C1AE0E12E81
:102CA00017EDF12E03E81FE320E030E041E654E4A5
:102CB00060E070E08FE294E40E943612F7E08F2E1D
:102CC000912CA2E1AA2EB12CC12CD12C1EEAE12E0E
:102CD00017E4F12E01E81FE320E030E842E254E47B
:102CE00060E070EC80E694E44EC12AE0822E912CE4
:102CF0003AE0A32EB12CC12CD12C18EBE12E1EE111
:102D0000F12E05E81FE320E030E04AEF53E460E0F5
:102D100070E088EC92E40E94361264EF71E080E08B
:102D200090E00E94EF1B88248394912C20E030E0F7
:102D300048EC52E460E070E088EC93E424C1D8E011
:102D40008D2E912C14E1A12EB12CC12CD12C16E684
:102D5000E12EFE2C06E81FE320E030E44CE155E4D0
:102D600060E070E88BEB94E40E94361299E1A92EA2
:102D7000B12CC12CD12C20E030E84BEB54E460E0C6
:102D800070E38CE195E4FFC0E3E08E2E912CF8E037
:102D9000AF2EB12CC12CD12C16E6E12EFE2C06E86C
:102DA0001FE320E030E84BEB55E460E070E08AEF91
:102DB00094E40E94361262E370E080E090E00E94AA
:102DC000EF1BB2E08B2E912CCDE0AC2EB12CC12CA0
:102DD000D12C20E030E04AEF54E460E078E78BEB60
:102DE00095E4D1C048E0842E912C5FE0A52EB12C53
:102DF000C12CD12C16E6E12EFE2C06E81FE320E0C4
:102E000030E04AEF54E460E070E88BEB94E40E9419
:102E1000361264E670E080E090E00E94EF1B7AE0FA
:102E2000A72EB12CC12CD12C20E030E44CE155E48C
:102E300060E070E88DEE94E4A6C098EC892E912CA9
:102E400024E1A22EB12CC12CD12C1CE5E12E1FE8CF
:102E5000F12E02E81FE320E030E447E254E460E0B2
:102E600070E08CE594E48FC0F2E08F2E912CA8E006
:102E7000AA2EB12CC12CD12C1AE0E12E17EDF12E87
:102E800003E81FE320E030E844ED54E460E070E044
:102E90008AE794E40E943612C3E08C2E912C18EB42
:102EA000E12E1EE1F12E05E81FE320E030E04AEFBD
:102EB00053E460E070E684ED94E40E9436121AE078
:102EC000812E912C09E0A02EB12CC12CD12C16E61C
:102ED000E12EFE2C06E81FE320E030E844ED54E448
:102EE00060E070E08AE794E44EC06FE0862E912C9B
:102EF00072E0A72EB12CC12CD12C1CE5E12E1FE8CD
:102F0000F12E02E81FE320E030E84BE355E460E0F7
:102F100070E088EC94E437C034E1832E912C42E0D9
:102F2000A42EB12CC12CD12C1CE5E12E1FE8F12ED2
:102F300002E81FE320E030E84BEB55E460E070E08E
:102F40008AEF94E420C084E1882E912C92E0A92E8F
:102F5000B12CC12CD12C1CE5E12E1FE8F12E02E88A
:102F60001FE320E030E04AE755E460E070E088ECE1
:102F700094E40E94361220E030E84BE355E460E030
:102F800070E08AE795E40E943612DF91CF911F919D
:102F90000F91FF90EF90DF90CF90BF90AF909F90F8
:102FA0008F900895CF93DF93BC018CE094E00E9452
:102FB000081EEC0165E673E08CE094E00E94081EB8
:102FC0008C0F9D1FDF91CF9108951F93CF93DF93B7
:102FD00020912D0630912E062E30310504F5EB019F
:102FE000BC0115E2129FC001139F900D112443E212
:102FF00050E0815D994F0E94622F80912D06909143
:103000002E06189FF001199FF00D1124EE5AF94F6A
:10301000D183C083019690932E0680932D06DF9175
:10302000CF911F910895EF92FF920F931F93CF932B
:10303000DF93E82EF62EC7E0D0E0042F10E09801D1
:103040000C2E02C0359527950A94E2F7B9016170FC
:1030500077278E2D0E94501B61E08F2D0E94501B00
:1030600060E08F2D0E94501B219748F7DF91CF9190
:103070001F910F91FF90EF9008950F931F93CF939F
:10308000DF93182F062F60E08091CF040E94501B21
:10309000C0E0D0E02091D10430E0C217D30784F41F
:1030A000412F6091D0048091CE040E941318402FCC
:1030B0006091D0048091CE040E9413182196EACF2B
:1030C00060E08091CF040E94501B61E08091CF04AA
:1030D000DF91CF911F910F910C94501BFC01918DAA
:1030E000828D981761F0828DDF01A80FB11D5D966A
:1030F0008C91928D9F5F9F73928F90E008958FEFD8
:103100009FEF0895FC01918D828D981731F0828D8B
:10311000E80FF11D858D90E008958FEF9FEF0895E2
:10312000FC01918D228D892F90E0805C9F4F821B46
:1031300091098F73992708958CE094E00E9490186C
:1031400021E0892B09F420E0822F0895FC01848D71
:10315000DF01A80FB11DA35ABF4F2C91848D90E0C1
:1031600001968F739927848FA689B7892C93A0899C
:10317000B1898C9180648C93938D848D981306C053
:103180000288F389E02D80818F7D80830895EF92FE
:10319000FF920F931F93CF93DF93EC0181E0888F11
:1031A0009B8D8C8D981305C0E889F989808185FDF8
:1031B00024C0F62E0B8D10E00F5F1F4F0F731127E9
:1031C000E02E8C8DE8120CC00FB607FCFACFE88910
:1031D000F989808185FFF5CFCE010E94A618F1CF35
:1031E0008B8DFE01E80FF11DE35AFF4FF0820B8F2C
:1031F000EA89FB898081806207C0EE89FF8960834C
:10320000E889F98980818064808381E090E0DF91A2
:10321000CF911F910F91FF90EF900895CF93DF937F
:10322000EC01888D8823C9F0EA89FB89808185FDBE
:1032300005C0A889B9898C9186FD0FC00FB607FC1F
:10324000F5CF808185FFF2CFA889B9898C9185FF60
:10325000EDCFCE010E94A618E7CFDF91CF91089560
:103260001F920F920FB60F9211242F933F934F93FB
:103270005F936F937F938F939F93AF93BF93EF93DE
:10328000FF938CE094E00E94A618FF91EF91BF910C
:10329000AF919F918F917F916F915F914F913F91EE
:1032A0002F910F900FBE0F901F9018951F920F92A5
:1032B0000FB60F9211242F938F939F93EF93FF9349
:1032C000E0911C04F0911D048081E0912204F091B2
:1032D000230482FD12C09081809125048F5F8F733B
:1032E00020912604821751F0E0912504F0E0E45F7C
:1032F000FB4F958F8093250401C08081FF91EF9152
:103300009F918F912F910F900FBE0F901F90189546
:103310003FB7F8948091770890917808A091790848
:10332000B0917A0826B5A89B05C02F3F19F00196E9
:10333000A11DB11D3FBFBA2FA92F982F8827820F3B
:10334000911DA11DB11DBC01CD0142E0660F771F8B
:10335000881F991F4A95D1F70895CF92DF92EF9277
:10336000FF920F931F93CF93DF936C017A018B0130
:10337000C0E0D0E0CE15DF0589F0D8016D918D0158
:10338000D601ED91FC910190F081E02DC6010995E7
:10339000892B11F47E0102C02196ECCFC701DF9189
:1033A000CF911F910F91FF90EF90DF90CF900895F4
:1033B0006F927F928F929F92AF92BF92CF92DF9245
:1033C000EF92FF920F931F93CF93DF93CDB7DEB7AA
:1033D000A0970FB6F894DEBF0FBECDBF3C018B01A6
:1033E00088E06E0199E1C90ED11CF601982F119267
:1033F0009A95E9F72CE030E03A8F298F3C8F2B8F9C
:103400002EE130E03E8F2D8F38A32F8F5E01E1E15A
:10341000AE0EB11CF50111928A95E9F784E190E0B6
:103420009E8B8D8B8CEE9FEF988F8F8BCE010196AC
:103430004C0180E1F40111928A95E9F78BED9FE050
:10344000A9E4B0E48D839E83AF83B88726EA200386
:10345000B001219F700D1124072E000C880B990BD1
:103460000E94552D2BED3FE049E450E40E940A2EC6
:1034700020E030E044E353E40E94AB2C69877A8774
:103480008B879C878AE5809FB001819F700D1124F6
:10349000072E000C880B990B0E94552D2BED3FE059
:1034A00049E450E40E940A2E20E030E044E353E473
:1034B0000E94AB2C6D877E878F87988BE12CF12C37
:1034C00000E81FE39401A301B501C6010E94242175
:1034D000A0960FB6F894DEBF0FBECDBFDF91CF919F
:1034E0001F910F91FF90EF90DF90CF90BF90AF9022
:1034F0009F908F907F906F900895EF92FF920F931F
:103500001F93CF93DF93CDB7DEB7A0970FB6F89494
:10351000DEBF0FBECDBFAC0198E0E9EFF1E0DE0108
:10352000599601900D929A95E1F798E0E1E0F2E06A
:10353000DE01519601900D929A95E1F790E1E9E054
:10354000F2E0DE01119601900D929A95E1F761305B
:10355000710539F48EE190E09A8F898F8AE090E0CE
:1035600006C08AE090E09A8F898F8EE190E09C8F70
:103570008B8FE12CF12C00E81FE39E012F5F3F4F62
:10358000BE016F5E7F4FCE0149960E942421A09616
:103590000FB6F894DEBF0FBECDBFDF91CF911F9164
:1035A0000F91FF90EF900895AF92BF92CF92DF926C
:1035B000EF92FF920F931F93CF93DF93CDB7DEB7B8
:1035C000A0970FB6F894DEBF0FBECDBF5C019B0184
:1035D00088E0E9EFF1E0DE01599601900D928A95BD
:1035E000E1F788E0E1E0F2E0DE01519601900D9212
:1035F0008A95E1F7CE0101966C0180E1F601119206
:103600008A95E9F746EA4203B001439F700D112401
:10361000072E000C880B990B0E94552D2BED3FE0D7
:1036200049E450E40E940A2E20E030E044E353E4F1
:103630000E94AB2C69877A878B879C876D877E87F2
:103640008F87988BE12CF12C00E81FE39601A501F0
:10365000BE016F5E7F4FCE0149960E942421A09645
:103660000FB6F894DEBF0FBECDBFDF91CF911F9193
:103670000F91FF90EF90DF90CF90BF90AF900895A3
:10368000DC01EC91F0E0CF01880F991FE80FF91FE2
:10369000E755FB4F808186FF02C08F7B80830895B2
:1036A00090E0FC01EC54FE4F3491FC01EA56FE4FD1
:1036B0002491FC01EE57FE4FE491EE2309F43BC048
:1036C000332339F1333091F038F43130A9F032300E
:1036D00001F584B58F7D12C0373091F03830A1F0FC
:1036E0003430B9F4809180008F7D03C080918000D8
:1036F0008F77809380000DC084B58F7784BD09C01B
:103700008091B0008F7703C08091B0008F7D80934F
:10371000B000F0E0EE0FFF1FE259FE4FA591B4910B
:103720008FB7F894EC91611103C020952E2301C04E
:103730002E2B2C938FBF0895CF93DF9390E0FC0145
:10374000EA56FE4F2491FC01EE57FE4F84918823E8
:1037500061F190E0880F991FFC01E655FE4FC5917D
:10376000D491FC01E259FE4FA591B491611109C0B9
:103770009FB7F8948881209582238883EC912E232B
:103780000BC0623061F49FB7F8943881822F809526
:1037900083238883EC912E2B2C939FBF06C08FB779
:1037A000F894E8812E2B28838FBFDF91CF91089565
:1037B0008E3008F08E508770806480937C008091FA
:1037C0007A00806480937A0080917A0086FDFCCF35
:1037D000809178002091790090E0922B08958F924B
:1037E0009F92AF92BF92CF92DF92EF92FF926B01C6
:1037F0007C010E9488194B015C01C114D104E104D1
:10380000F104F1F00E948819DC01CB0188199909B3
:10381000AA09BB09883E9340A105B10570F321E0D8
:10382000C21AD108E108F10888EE880E83E0981EDC
:10383000A11CB11CC114D104E104F10419F7DDCFBE
:10384000FF90EF90DF90CF90BF90AF909F908F90C0
:103850000895EF92FF920F931F93CF93DF93CDB70D
:10386000DEB7A0970FB6F894DEBF0FBECDBF28E03D
:10387000E9E1F2E0DE01599601900D922A95E1F717
:1038800028E0E1E2F2E0DE01519601900D922A95E6
:10389000E1F728E0E9E2F2E0DE01199601900D92ED
:1038A0002A95E1F728E0E1E3F2E0DE0111960190CC
:1038B0000D922A95E1F76F3F7F4FA1F421E930E0A7
:1038C0003E8F2D8F2AE730E038A32F8F4CE350E056
:1038D0005E8B4D8B388F2F8B48E750E05E874D878E
:1038E000388B2F878C01085E1340003981E0180760
:1038F00014F400E911E0BE01675E7F4F84EF91E0B0
:103900000E944613BE016F5E7F4F84EF91E00E94DC
:1039100046137801F594E794F594E794BE01675F48
:103920007F4FC7010E944613BE016F5E7F4FC701E4
:103930000E944613BE01675F7F4FC7010E94461376
:10394000BE016F5E7F4FC7010E944613BE016F5FCD
:103950007F4F84EF91E00E944613B801110F880B4E
:10396000990B0E94EF1BA0960FB6F894DEBF0FBE16
:10397000CDBFDF91CF911F910F91FF90EF900895F0
:103980000F931F93CF93DF93CDB7DEB768970FB632
:10399000F894DEBF0FBECDBF8C0188E0E9E3F2E012
:1039A000DE01519601900D928A95E1F788E0E1E4FD
:1039B000F2E0DE01199601900D928A95E1F788E018
:1039C000E1E3F2E0DE01119601900D928A95E1F7B4
:1039D0006F3F7F4F71F481E990E09E8B8D8B88E77C
:1039E00090E0988F8F8B2BE430E03E872D87988B6B
:1039F0008F87BE016F5E7F4F80E991E00E94461382
:103A0000BE01675F7F4F80E991E00E944613B801D5
:103A1000110F880B990B0E94552D2DEC3CEC4CE4BA
:103A20005FE30E940A2E0E94242D0E94EF1BBE011C
:103A30006F5F7F4F84EF91E00E94461368960FB648
:103A4000F894DEBF0FBECDBFDF91CF911F910F91D4
:103A500008952FB7F894609173087091740880915D
:103A60007508909176082FBF08951F920F920FB698
:103A70000F9211242F933F938F939F93AF93BF93F4
:103A80008091730890917408A0917508B0917608A0
:103A90003091720823E0230F2D3720F40196A11DE9
:103AA000B11D05C026E8230F0296A11DB11D20936C
:103AB00072088093730890937408A0937508B0936C
:103AC00076088091770890917808A0917908B09154
:103AD0007A080196A11DB11D80937708909378080C
:103AE000A0937908B0937A08BF91AF919F918F917D
:103AF0003F912F910F900FBE0F901F9018951F921E
:103B00000F920FB60F9211242F933F934F935F9311
:103B10006F937F938F939F93AF93BF93EF93FF9395
:103B20008091080490910904A0910A04B0910B04BB
:103B3000892B8A2B8B2B59F180910504E091060487
:103B4000F0910704908189278083809108049091E7
:103B50000904A0910A04B0910B04181619061A065C
:103B60001B060CF03DC08091080490910904A091BF
:103B70000A04B0910B040197A109B10980930804CC
:103B800090930904A0930A04B0930B0429C0809178
:103B90000001EDE6F1E0E4919FEF90930001E13048
:103BA000B9F098F0E230C9F4909170009D7F909345
:103BB000700091E09093B0009091B100987F946074
:103BC0009093B1001092B30008C010926E0005C02F
:103BD00090916F009D7F90936F0060E00E94501B5A
:103BE000FF91EF91BF91AF919F918F917F916F91D5
:103BF0005F914F913F912F910F900FBE0F901F90AB
:103C00001895DC01ED91FC910190F081E02D099473
:103C10006115710579F0FB0101900020E9F73197FA
:103C2000AF01461B570BDC01ED91FC910280F38143
:103C3000E02D099480E090E008954F925F926F929A
:103C40007F92EF92FF920F931F93CF93DF93CDB7A5
:103C5000DEB7A1970FB6F894DEBF0FBECDBF7C01D3
:103C6000FA01CB0119A2223008F42AE08E010F5D7F
:103C70001F4F422E512C612C712CBF01A3019201C8
:103C80000E949F2BF901CA01015011096A3014F4F6
:103C9000605D01C0695CD8016C93232B242B252B1C
:103CA00061F7B801C7010E94081EA1960FB6F894EB
:103CB000DEBF0FBECDBFDF91CF911F910F91FF905F
:103CC000EF907F906F905F904F9008952F923F926A
:103CD0004F925F926F927F928F929F92AF92BF921C
:103CE000CF92DF92EF92FF920F931F93CF93DF93C8
:103CF00000D000D0CDB7DEB71A01270138018B0103
:103D00004C0196E2C92E95E0D92E59017B0188E03D
:103D1000E80EF11CF801819191918F01F6019383D6
:103D20008283F401819191914F01F6019183808307
:103D300035822482628D738DC1010E94182F80E02C
:103D400090E00E94532D9B01AC01F601668B778BAE
:103D5000808F918F6BED7FE089EC90E40E94AB2C1B
:103D6000F601628B738B848B958BF5018191919118
:103D7000A191B1915F01F60186839783A087B187F6
:103D8000F9E2CF0ED11C0E151F0521F60E94291D48
:103D90000E94532D6B017C01B101330C880B990BF0
:103DA0000E94552DA30192010E940A2EA70196019F
:103DB0000E943A2C4B015C01A5019401C701B60198
:103DC0000E94A62C18160CF4B1C083E2282E85E0C0
:103DD000382E00E010E00E94291DF10163A374A3B6
:103DE00085A396A3C78CD0A0E1A0F2A02B013C0133
:103DF0004C185D086E087F08C58CD68CE12CF12C20
:103E0000C414D504E604F7040CF080C0678F70A3D7
:103E100081A392A3C80182539B4F7C01FC01E4580B
:103E2000FF4F8081811162C0F10121853285438578
:103E3000548561897289838994890E943A2C0E94F1
:103E4000772E9B01AC01F1016381748180E090E0E9
:103E500029833A834B835C830E94532D29813A81C5
:103E60004B815C810E940A2E2B013C01F10165818E
:103E7000768180E090E00E94532D9B01AC01C3014C
:103E8000B2010E943A2C2B013C0120E030E0A90154
:103E90000E94052E20E030E040E05FE387FD05C092
:103EA000C301B2010E943A2C04C0C301B2010E94B6
:103EB000392C0E941D2DF10176876587F701E358A3
:103EC000FF4F8081882331F0719561957109F1016F
:103ED00076876587F10165857685665A7F4F878588
:103EE0009089680F791FC1010E949F04F101258903
:103EF00036894789508D61897289838994890E94A6
:103F00003A2CF101618B728B838B948B075D1F4F71
:103F1000F9E22F0E311C043A110509F05CCF0E9422
:103F2000291D0E94532D6B017C0146CF0F900F90ED
:103F30000F900F90DF91CF911F910F91FF90EF9015
:103F4000DF90CF90BF90AF909F908F907F906F90B9
:103F50005F904F903F902F900895BF92CF92DF9245
:103F6000EF92FF920F931F93CF93DF93C0E0D0E0C7
:103F700060E08091CF040E94501B02ED14E06801C4
:103F8000E12CF12CBC2EB3948091D10490E0E81682
:103F9000F906B4F44B2D6091D0048091CE040E94B8
:103FA000131840E06091D0048091CE040E94131851
:103FB000F6011082FFEFEF1AFF0ACC0EDD1EE4CFF0
:103FC00060E08091CF040E94501B61E08091CF049B
:103FD0000E94501B2196C830D10551F6F80111926C
:103FE0008F01F5E002321F07C9F7DF91CF911F91D2
:103FF0000F91FF90EF90DF90CF90BF9008952F9298
:104000003F924F925F926F927F928F929F92AF9268
:10401000BF92CF92DF92EF92FF920F931F93CF93B5
:10402000DF9300D000D01F92CDB7DEB72B013C014B
:10403000E12CF12C87E0282E312C812C912C54017D
:104040008394D501C401022C04C0880F991FAA1FB4
:10405000BB1F0A94D2F78983282F20952A8328ED45
:1040600034E03D832C8300E010E0C8018E0D9F1DDD
:10407000A301920104C056954795379527958A95D7
:10408000D2F7EC81FD8120FF04C080812981822B41
:1040900003C080812A818223808360E08091CF04E5
:1040A0000E94501BC12CD12C37E0301B3B838091E8
:1040B000D10490E0C816D90604F5C114D10459F40E
:1040C0004B816091D0048091CE040E941318EC8142
:1040D000FD81408108C040E06091D0048091CE0411
:1040E0000E94131840E06091D0048091CE040E9499
:1040F0001318FFEFCF1ADF0ADACF60E08091CF0408
:104100000E94501B61E08091CF040E94501B0F5F02
:104110001F4F2C813D81215031093D832C83063076
:10412000110509F0A2CF31E0231A310846E0E40E70
:10413000F11C5EE1E516F10409F083CF0F900F90BA
:104140000F900F900F90DF91CF911F910F91FF90E3
:10415000EF90DF90CF90BF90AF909F908F907F9027
:104160006F905F904F903F902F900895CF93DF9383
:10417000CDB7DEB7CC57D1090FB6F894DEBF0FBE6E
:10418000CDBF2CE7E9E4F2E0DE01119601900D923B
:104190002A95E1F7660F771F660F771FE1E0F0E0E1
:1041A000EC0FFD1FE60FF71F608171818281938103
:1041B000C458DF4F0FB6F894DEBF0FBECDBFDF91FE
:1041C000CF910C94FF1F4BE256E066E276E080E070
:1041D00090E00C94472BCF92DF92EF92FF92CF9317
:1041E000DF936C01990FEE08FF08F7FE16C06DE231
:1041F0008CE094E00E94011EEC0144275527BA018F
:104200004C195D096E097F092AE08CE094E00E9458
:104210001D1E7C01EC0EFD1E08C02AE0B701A601A0
:104220008CE094E00E941D1E7C0165E673E08CE04A
:1042300094E00E94081E8E0D9F1DDF91CF91FF908C
:10424000EF90DF90CF9008952F923F924F925F9220
:104250006F927F928F929F92AF92BF92CF92DF9296
:10426000EF92FF920F931F93CF93DF93CDB7DEB7FB
:1042700028970FB6F894DEBF0FBECDBF9A8389830F
:104280007C836B835E834D831901270138010E9473
:1042900026138091FF0581111092FF05C301B20121
:1042A0000E941D2D4B015C016B011616170684F14F
:1042B000B401990C880B990B0E94552D9B01AC0100
:1042C000C301B2010E94392C7B018C0191014D8107
:1042D0005E816B817C8189819A810E94661E28960D
:1042E0000FB6F894DEBF0FBECDBFDF91CF911F9107
:1042F0000F91FF90EF90DF90CF90BF90AF909F9085
:104300008F907F906F905F904F903F902F90089587
:1043100018861F82E12CF12C00E81FE391014D81EA
:104320005E816B817C8189819A810E94661E8F816A
:104330009885019698878F838C159D0559F7B8CF7E
:10434000EF92FF920F931F93CF93DF93CDB7DEB71A
:10435000A0970FB6F894DEBF0FBECDBFAC0198E0BA
:10436000FE017996DF01892F1D928A95E9F724E1F4
:1043700030E03E8F2D8F38A32F8FBE016F5E7F4FB1
:10438000DB011D929A95E9F73E8B2D8B8CEE9FEF0A
:10439000988F8F8B9E012F5F3F4F80E1D9011D9237
:1043A0008A95E9F7E12CF12C00E81FE3CF010E9488
:1043B0002421A0960FB6F894DEBF0FBECDBFDF91CB
:1043C000CF911F910F91FF90EF900895CF92DF92C0
:1043D000EF92FF92CF93DF93CDB7DEB7C057D109ED
:1043E0000FB6F894DEBF0FBECDBF20E2E5ECF2E0E1
:1043F000DE01999601900D922A95E1F720E1E5EE14
:10440000F2E0DE01AF59BF4F01900D922A95E1F71E
:1044100028E1E5EFF2E0DE01A75BBF4F01900D92CE
:104420002A95E1F728E2EDE0F3E0DE011196019034
:104430000D922A95E1F761307105F9F08CF4672B44
:1044400089F5440F551F440F551FE1E0F0E0EC0FD4
:10445000FD1FE40FF51FC0A4D1A4E2A4F3A422C061
:104460006230710589F063307105E1F4440F551F26
:10447000440F551FE1E0F0E00DC0440F551F440FFD
:10448000551FE1E6F0E006C0440F551F440F551FCD
:10449000E9E4F0E0EC0FFD1FE40FF51FC080D180D0
:1044A000E280F380C701B601C059DF4F0FB6F89420
:1044B000DEBF0FBECDBFDF91CF91FF90EF90DF90B9
:1044C000CF900C94FF1F2F923F924F925F926F926A
:1044D0007F928F929F92AF92BF92CF92DF92EF9294
:1044E000FF920F931F93CF93DF93CDB7DEB7A097C3
:1044F0000FB6F894DEBF0FBECDBF1B012C014A01E1
:1045000088E06E0199E1C90ED11CF601982F119235
:104510009A95E9F749E150E05A8F498F5C8F4B8FAC
:104520003E8F2D8F38A32F8F5E01E1E1AE0EB11CBF
:10453000F50111928A95E9F7C90137FD0196959524
:10454000879504969E8B8D8B37FF02C02F5F3F4F60
:104550003595279531952195310924503109388FAA
:104560002F8BCE0101963C0180E1F30111928A95D7
:10457000E9F780E090E0A4EBB2E489839A83AB830F
:10458000BC838D839E83AF83B88724EC2003B00166
:10459000219F700D1124072E000C880B990B0E948F
:1045A000552D2BED3FE049E450E40E940A2E20E017
:1045B00030E044E353E40E94AB2C6D877E878F8705
:1045C000988B820171019301A401B501C6010E947B
:1045D0002421A0960FB6F894DEBF0FBECDBFDF91A9
:1045E000CF911F910F91FF90EF90DF90CF90BF90F0
:1045F000AF909F908F907F906F905F904F903F9083
:104600002F900895CF92DF92EF92FF920F931F9316
:10461000CF93DF93CDB7DEB7A0970FB6F894DEBF88
:104620000FBECDBF28E06E0139E1C30ED11CD6010B
:10463000E22F1D92EA95E9F77E8F6D8F78A36F8F39
:10464000DE015196FD0111922A95E9F79B0177FF52
:1046500002C02F5F3F4F359527953E8B2D8B9B01D9
:1046600077FF02C02F5F3F4F3595279531952195F4
:104670003109388F2F8B9E012F5F3F4F40E1F901A9
:1046800011924A95E9F7E12CF12C00E81FE3AC0107
:10469000BD01C6010E942421A0960FB6F894DEBF8A
:1046A0000FBECDBFDF91CF911F910F91FF90EF9083
:1046B000DF90CF900895CF92DF92EF92FF920F9309
:1046C0001F93E82FF92F05C0015011092109310965
:1046D00061F1908196239417B9F305C00150110937
:1046E0002109310911F1908196239413F7CFC12C40
:1046F000D12CE12CF12C0AC08FEFC81AD80AE80A95
:10470000F80A0C151D052E053F0579F080818623DA
:10471000841791F36C2D7D2D8E2D9F2D1F910F9160
:10472000FF90EF90DF90CF90089560E070E080E020
:1047300090E01F910F91FF90EF90DF90CF90089540
:104740008DEA91E090933C0880933B088BE398E0DE
:104750000C94890410920F0410920E0488EE93E0DA
:10476000A0E0B0E08093100490931104A093120491
:10477000B09313042DE931E030930D0420930C0421
:1047800025EC30E0309319042093180424EC30E039
:1047900030931B0420931A0420EC30E030931D0466
:1047A00020931C0421EC30E030931F0420931E045E
:1047B00022EC30E0309321042093200426EC30E0FA
:1047C000309323042093220410922504109226048F
:1047D000109227041092280410923E0810923D086F
:1047E00080933F0890934008A0934108B0934208FB
:1047F0008DEA91E090933C0880933B081092520818
:1048000010925108109254081092530810925608B2
:104810001092550810925808109257086091590844
:104820006E7F6D7F609359086695617081E068279F
:1048300087E00E94501B61E087E00E949C1BEDE92D
:10484000F1E0E491E0934B08E9E8F1E0E491F0E075
:10485000EE0FFF1FE259FE4F8591949190934D0802
:1048600080934C0860E086E00E949C1B8091590870
:1048700081FD04C061E086E00E94501B86E08093C9
:104880004708ECE9F1E0E491E0934808E8E8F1E05A
:10489000E491F0E0EE0FFF1FE858FE4F85919491F0
:1048A00090934A088093490881E090E090933A08F9
:1048B000809339088BE398E0909338088093370809
:1048C00080E290E090932706809326068DE0809307
:1048D000280610922E0610922D06E1E0F6E01192C5
:1048E00026E0E432F207D9F710922506109224064A
:1048F0008AE08093CE048BE08093CF048CE0809399
:10490000D00481E08093D104E2EDF4E0119285E0DF
:10491000E232F807D9F78091CD04E3E2F5E09FEFAA
:1049200048EB5BE08C3088F48083282F30E0D9019D
:10493000AA0FBB1F2A0F3B1FD901A755BB4F1296C9
:104940005C934E9311978F5F01C09083108A1786F6
:10495000B99625E0E73CF20729F78093CD04089546
:10496000CF93DF93CDB7DEB7A0970FB6F894DEBF35
:104970000FBECDBF789484B5826084BD84B581605C
:1049800084BD85B5826085BD85B5816085BD80911A
:104990006E00816080936E00109281008091810092
:1049A000826080938100809181008160809381008A
:1049B000809180008160809380008091B10084604C
:1049C0008093B1008091B00081608093B0008091AD
:1049D0007A00846080937A0080917A00826080936C
:1049E0007A0080917A00816080937A0080917A00C9
:1049F000806880937A001092C1001092560810923D
:104A000055081092540810925308109252081092B0
:104A100051088DE991E09093580880935708909140
:104A20004708963108F057C02DEB30E0309352081C
:104A3000209351082BE931E0309354082093530818
:104A40002CE231E0309356082093550820916800FD
:104A5000983050F031E09E3008F430E081E001C041
:104A6000880F3A95EAF701C084E0822B80936800B2
:104A7000983038F09E3040F0963148F020E030E039
:104A800008C02DE630E005C02BE630E002C02CE681
:104A900030E030934F0820934E08983030F481E096
:104AA00001C0880F9A95EAF70EC0292F30E09E309A
:104AB00018F42850310902C02E50310981E001C09C
:104AC000880F2A95EAF780935008809157089091B3
:104AD00058080197F1F78091550890915608892B55
:104AE00021F180916A0890916B0828E08B3392073E
:104AF000E1F0009711F00E948904809159088E7F9F
:104B00008093590810926908109268088BE398E026
:104B100090936B0880936A08E0914E08F0914F08DB
:104B2000908180915008892B8083E0911C04F09142
:104B30001D0482E08083E0911804F0911904108232
:104B4000E0911A04F0911B048FEC808310922404EE
:104B5000E0912004F091210486E08083E0911E041E
:104B6000F0911F04808180618083E0911E04F091A8
:104B70001F04808188608083E0911E04F0911F04EF
:104B8000808180688083E0911E04F0911F04808101
:104B90008F7D8083109233051092320510925C0550
:104BA00010925B0510928505109284051092AE0557
:104BB0001092AD0582E090E09093CC058093CB05F8
:104BC00083E090E09093CE058093CD0584E090E063
:104BD0009093D0058093CF0585E090E09093D20527
:104BE0008093D1050E9426131092FF0588E693E07A
:104BF0000E94D21772E3E72E75E0F72E00E010E076
:104C0000C8010E94792B682F70E0613871050CF0A3
:104C10007A95D7016D937C938CE094E00E94AA145E
:104C20006FE773E08CE094E00E94081E0F5F1F4F57
:104C3000B9E2EB0EF11C0430110511F78AE590E0A2
:104C40009093DC058093DB059093DE058093DD0572
:104C50009093E0058093DF059093E2058093E10552
:104C600088E090E09093C8058093C70589E090E0C4
:104C70009093CA058093C90561E088E00E949C1B5F
:104C800060E08091C9050E949C1B8DE090E09093AC
:104C9000E4058093E30584E190E09093E60580933A
:104CA000E50561E08DE00E949C1B60E084E10E94CC
:104CB0009C1B61E08091CE040E949C1B61E080916E
:104CC000D0040E949C1B61E08091CF040E949C1B39
:104CD00061E08091D0040E94501B67E08BE00E944D
:104CE0003D1860E089E00E943D1861E08CE00E9480
:104CF0003D1860E08FE00E943D180E94AD1F6FE0FC
:104D00008AE00E943D1861E08AE00E943D1882E836
:104D100093E00E94D21784E10E94D81BBC01990F36
:104D2000880B990B611571058105910511F00E94A1
:104D3000052A6BED77E083E993E00E94E51765EFC4
:104D400075E085E993E00E94E51762E977E087E97D
:104D500093E00E94E5176BEA73E08DE793E00E9411
:104D6000E51768E776E089E993E00E94E51761E2DC
:104D700076E08BE993E00E94E5176EE277E08DE93B
:104D800093E00E94E51764EC76E08FE993E00E94DF
:104D9000E51763EA73E081EA93E00E94E51768EEA5
:104DA00071E083EA93E00E94E51761E273E085EA2F
:104DB00093E00E94E51769EE72E087EA93E00E94B3
:104DC000E51760E272E089EA93E00E94E51764ED7E
:104DD00071E08BEA93E00E94E5178BED97E09093EA
:104DE00036088093350880E090E00E94E0140E942D
:104DF0007E1462E370E080E090E00E94EF1B8DEA99
:104E000093E00E94D2170E94E80162E370E080E024
:104E100090E00E94EF1B0E94D40162E370E080E00A
:104E200090E00E94EF1B0E9420028AEB93E00E9418
:104E3000D2170E94C71220E030E044E352E40E94FF
:104E4000A62C87FF34C033E0832E912C48E0A42E9B
:104E5000B12CC12CD12C18EBE12E1EE1F12E05E86E
:104E60001FE320E030E04AEF54E460E070E08CE5BE
:104E700094E40E9436126EE170E080E090E00E94BF
:104E8000EF1B1CE5E12E1FE8F12E02E81FE320E0F6
:104E900030E04CE554E460E070E08AEF94E40E9476
:104EA000361264EF71E080E090E00E94EF1B8BE02F
:104EB00090E00E94E01468EC70E080E090E00E94D6
:104EC000EF1B0E94291D60936E0870936F088093FA
:104ED00070089093710825E2322E6E01E1E1CE0E4A
:104EE000D11C9E012F5F3F4F59012E0139E1430E26
:104EF000511C8BE398E00E948701181619060CF0EC
:104F0000A1C111E08091370890913808DC01ED9142
:104F1000FC910480F581E02D0995181619062CF0F6
:104F20008091FF0581118EC103C011118EC1F8CF90
:104F3000E0916C08F0916D08E531F10508F082C14F
:104F4000EC58FF4F0C94402F0E947E1479C161E011
:104F500070E002C06FEF7FEF809103019091040138
:104F60000E94D41A6DC161E070E002C06FEF7FEF64
:104F700080910301909104010E947D1A61C14091CA
:104F800003015091040128E0F201322F11923A9569
:104F9000E9F78EE190E09E8F8D8F98A38F8FD601D9
:104FA0001D922A95E9F79E8B8D8B82EE9FEF988F4D
:104FB0008F8B80E1E9EBF1E035C18EE190E09093D9
:104FC000020180930101409103015091040128E006
:104FD000F201322F11923A95E9F79E8F8D8F98A3A7
:104FE0008F8FD6011D922A95E9F781E190E09E8B83
:104FF0008D8B8FEE9FEF988F8F8B80E1F501119253
:105000008A95E9F78BED9FE0A9ECBFEB89879A873A
:10501000AB87BC8787E39DE8A7E2B0EC31C08EE1A7
:1050200090E090930201809301014091030150911F
:10503000040128E0D201E22F1D92EA95E9F79E8F44
:105040008D8F98A38F8FD6011D922A95E9F781E164
:1050500090E09E8B8D8B8FEE9FEF988F8F8B80E1F2
:10506000F50111928A95E9F78BED9FE0A9ECBFE37A
:1050700089879A87AB87BC8787E39DE8A7E2B0E47E
:105080008D879E87AF87B88BD2C08EE190E09093DA
:105090000201809301016EE170E080910301909123
:1050A00004010E940223CCC08EE190E090930201A3
:1050B00080930101409103015091040101E010E04F
:1050C0000CC08EE190E09093020180930101409129
:1050D0000301509104010FEF1FEF2EE130E060E07B
:1050E00070E080E89FE30E946322AAC00091030160
:1050F0001091040188E0E9ECF1E0D60101900D92F5
:105100008A95E1F7B601C8010E94461388E0E1EDF7
:10511000F1E0D50101900D928A95E1F7B501C80142
:105120000E9446138DC08EE190E09093020180931F
:10513000010161E070E008C08EE190E0909302010F
:10514000809301016FEF7FEF809103019091040143
:105150000E94D81975C084E190E090930201809379
:10516000010180910301909104010E94A02168C077
:1051700061E070E002C06FEF7FEF809103019091DA
:1051800004010E94C01C5CC061E070E002C06FEFCF
:105190007FEF80910301909104010E94291C50C06F
:1051A0008EE190E090930201809301014091030110
:1051B0005091040188E0D201E82F1D92EA95E9F7A9
:1051C00029E130E03A8F298F3C8F2B8FD6011D9239
:1051D0008A95E9F780E1E9EDF1E024C08EE190E005
:1051E00090930201809301014091030150910401C9
:1051F0008DE090E09A8F898F9C8F8B8F9E8F8D8F03
:1052000098A38F8F88E0F60111928A95E9F781E1E2
:1052100090E09E8B8D8B87EF9FEF988F8F8B80E137
:10522000E9EEF1E0D50101900D928A95E1F7E12CCC
:10523000F12C00E81FE39501B601C2010E94242170
:105240000E94E3050E94100154CE8091370890918E
:105250003808DC01ED91FC910680F781E02D09957D
:105260008093000690912806891348C01092250665
:10527000109224064BE256E066E276E081E096E08A
:105280000E94472B7C0190932A0680932906892B44
:1052900009F446CE60902D0670902E069FE2892E6E
:1052A00096E0992E00E010E0061517050CF04DC0B1
:1052B00043E250E0B401C7010E94542FA5E28A0ED8
:1052C000911C892BC1F4309EF001319EF00D112408
:1052D000EE5AF94F0190F081E02D0995E1E0F6E0FA
:1052E0001192B6E0E432FB07D9F71092250610922E
:1052F000240610E003C00F5F1F4FD6CF00910006B9
:10530000802F002E000C990B0E944D2F892B09F441
:10531000F9CD80912406909125069C012F5F3F4F87
:105320003093250620932406FC01E050FA4F0183B8
:10533000F901E050FA4F1182233231050CF4E2CD2D
:105340001092250610922406DDCDE0913508F091EB
:1053500036080995E1E0F6E0119226E0E432F20722
:10536000D9F7C3CF8F929F92AF92BF92CF92DF9225
:10537000EF92FF92CF93DF93EC01688179818A816C
:105380009B81611571058105910521F464E279ED38
:105390008BE597E02DE133EF41E050E00E94C12B17
:1053A00049015A019B01AC01A7EAB1E40E94E02B3C
:1053B0006B017C01ACEEB4EFA50194010E94EE2BD1
:1053C000DC01CB018C0D9D1DAE1DBF1DB7FF03C0C1
:1053D0000197A109B04888839983AA83BB83BC0144
:1053E000CD019F77DF91CF91FF90EF90DF90CF902D
:1053F000BF90AF909F908F9008950E94B22908951A
:1054000085E091E00E94B2290895609305017093B0
:10541000060180930701909308010895A6E0B0E08B
:10542000E4E1FAE20C94F32B5C016B017A01611563
:10543000710519F0DB018D939C93E114F10429F0BF
:10544000C7010297839708F0DCC03501BFEF6B1AE4
:105450007B0AF5011081812F90E00E943E2B892B61
:1054600011F05301F2CF1D3249F43501F2E06F0E15
:10547000711CD50111961C9101E009C01B3231F459
:105480003501B2E06B0E711CF501118100E0E114F1
:10549000F10409F4C4C0F0E1EF16F10489F410330B
:1054A00099F5D3018C918F7D883509F0B2C01196A2
:1054B0001C91B2E06B0E711C026050E1E52EF12CE4
:1054C000EAE0EE16F10409F4B0C0F0E1EF16F104E1
:1054D000D9F028E0E216F10451F438E0E32EF12C83
:1054E00088248A94982CA82C4FE1B42E13C06FEF17
:1054F0007FEFCB0197010F2C000C440B550B0E9442
:105500009F2B49015A0106C088248A94982CA82C04
:105510002FE0B22E7E826D8260E020E030E0A901B3
:1055200027010F2C000C660877082D803E80E0EDE7
:10553000E10FEA3060F08FEB810F8A3110F4E9EC73
:1055400005C08FE9810F8A3190F5E9EAE10F8E2FCE
:1055500090E08E159F055CF56F3F09F1821693066A
:10556000A406B506D8F0C301B2010E948F2B2E2FDE
:1055700030E040E050E029833A834B835C83260F80
:10558000371F481F591F89819A81AB81BC81281719
:1055900039074A075B0710F061E001C06FEFED814A
:1055A000FE813196FE83ED83D1011C91BECFC114E3
:1055B000D10489F0662339F08D819E810197F6012F
:1055C0009183808308C001FF06C08D819E81029770
:1055D000D6018D939C9300FF07C050954095309560
:1055E00021953F4F4F4F5F4F67FF10C082E290E021
:1055F00090937C0880937B086FEF7FEF8FEF9FEF96
:105600001BC060E070E080E090E016C0B901CA0104
:1056100013C010E3E114F10409F45FCF51CF10334C
:1056200009F43FCF9AE0E92EF12C89E9882E982CD5
:10563000A82C89E1B82E6ECF2696E2E10C940F2CAF
:10564000FC0188279927E89421912032E9F3293039
:1056500010F02E30C8F32B3241F02D3239F468941B
:1056600004C00E946E2B820F911D219120532A307D
:10567000C0F31EF4909581959F4F089591110C945D
:10568000762B803219F089508550C8F70895FA01B9
:10569000A191B081009719F41097E1F0CD01DC01E0
:1056A000CD010D90002011F4C00113C0FB01219128
:1056B000222319F02015D9F7F3CFFB0121912015F2
:1056C00019F41E92119606C02223C1F70D900020F6
:1056D000A1F7D001FA01A193B08308957AE0979FD2
:1056E000902D879F802D910D11240895992788274B
:1056F0000895F999FECF92BD81BDF89A992780B59A
:105700000895262FF999FECF1FBA92BD81BD20BD05
:105710000FB6F894FA9AF99A0FBE01960895DB0134
:105720008F939F930E94E02BBF91AF91A29F800D1A
:10573000911DA39F900DB29F900D11240895A1E299
:105740001A2EAA1BBB1BFD010DC0AA1FBB1FEE1FFB
:10575000FF1FA217B307E407F50720F0A21BB30B46
:10576000E40BF50B661F771F881F991F1A9469F7C2
:1057700060957095809590959B01AC01BD01CF011E
:105780000895052E97FB1EF400940E94D82B57FD18
:1057900007D00E949F2B07FC03D04EF40C94D82B0B
:1057A00050954095309521953F4F4F4F5F4F08954D
:1057B00090958095709561957F4F8F4F9F4F08957D
:1057C0000E942A2CA59F900DB49F900DA49F800D40
:1057D000911D11240895B7FF0C94E02B0E94E02B3B
:1057E000821B930B08952F923F924F925F926F927C
:1057F0007F928F929F92AF92BF92CF92DF92EF9261
:10580000FF920F931F93CF93DF93CDB7DEB7CA1BE1
:10581000DB0B0FB6F894DEBF0FBECDBF09942A880C
:10582000398848885F846E847D848C849B84AA84B4
:10583000B984C884DF80EE80FD800C811B81AA8141
:10584000B981CE0FD11D0FB6F894DEBF0FBECDBF0C
:10585000ED010895A29FB001B39FC001A39F700DF9
:10586000811D1124911DB29F700D811D1124911D68
:1058700008955058BB27AA270E94512C0C94CB2D79
:105880000E94BD2D38F00E94C42D20F039F49F3FB6
:1058900019F426F40C94BA2D0EF4E095E7FB0C9461
:1058A000B42DE92F0E94DC2D58F3BA176207730755
:1058B0008407950720F079F4A6F50C94FE2D0EF4DC
:1058C000E0950B2EBA2FA02D0B01B90190010C0110
:1058D000CA01A0011124FF27591B99F0593F50F428
:1058E000503E68F11A16F040A22F232F342F442780
:1058F000585FF3CF469537952795A795F040539578
:10590000C9F77EF41F16BA0B620B730B840BBAF047
:105910009150A1F0FF0FBB1F661F771F881FC2F7B2
:105920000EC0BA0F621F731F841F48F487957795C6
:105930006795B795F7959E3F08F0B0CF9395880F80
:1059400008F09927EE0F9795879508950E94902D5E
:1059500008F481E008950E94BF2C0C94CB2D0E9486
:10596000C42D58F00E94BD2D40F029F45F3F29F06E
:105970000C94B42D51110C94FF2D0C94BA2D0E944F
:10598000DC2D68F39923B1F3552391F3951B550B47
:10599000BB27AA2762177307840738F09F5F5F4F02
:1059A000220F331F441FAA1FA9F335D00E2E3AF041
:1059B000E0E832D091505040E695001CCAF72BD059
:1059C000FE2F29D0660F771F881FBB1F26173707AA
:1059D0004807AB07B0E809F0BB0B802DBF01FF27DC
:1059E00093585F4F3AF09E3F510578F00C94B42DD8
:1059F0000C94FF2D5F3FE4F3983ED4F386957795A2
:105A00006795B795F7959F5FC9F7880F911D969594
:105A1000879597F90895E1E0660F771F881FBB1FF0
:105A2000621773078407BA0720F0621B730B840B9D
:105A3000BA0BEE1F88F7E09508950E94242D689414
:105A4000B1110C94FF2D08950E94E42D88F09F570A
:105A500098F0B92F9927B751B0F0E1F0660F771F92
:105A6000881F991F1AF0BA95C9F714C0B13091F088
:105A70000E94FE2DB1E008950C94FE2D672F782F23
:105A80008827B85F39F0B93FCCF38695779567954D
:105A9000B395D9F73EF490958095709561957F4FB9
:105AA0008F4F9F4F0895E89409C097FB3EF490955F
:105AB0008095709561957F4F8F4F9F4F9923A9F0E7
:105AC000F92F96E9BB279395F69587957795679576
:105AD000B795F111F8CFFAF4BB0F11F460FF1BC0BA
